{
  "_format": "hh-sol-artifact-1",
  "contractName": "VeilPay",
  "sourceName": "contracts/VeilPay.sol",
  "abi": [
    {
      "inputs": [],
      "name": "ZamaProtocolUnsupported",
      "type": "error"
    },
    {
      "anonymous": false,
      "inputs": [
        {
          "indexed": true,
          "internalType": "uint256",
          "name": "jobId",
          "type": "uint256"
        },
        {
          "indexed": true,
          "internalType": "uint256",
          "name": "applicationId",
          "type": "uint256"
        }
      ],
      "name": "ApplicationResolved",
      "type": "event"
    },
    {
      "anonymous": false,
      "inputs": [
        {
          "indexed": true,
          "internalType": "uint256",
          "name": "jobId",
          "type": "uint256"
        },
        {
          "indexed": true,
          "internalType": "uint256",
          "name": "applicationId",
          "type": "uint256"
        },
        {
          "indexed": true,
          "internalType": "address",
          "name": "candidate",
          "type": "address"
        }
      ],
      "name": "ApplicationSubmitted",
      "type": "event"
    },
    {
      "anonymous": false,
      "inputs": [
        {
          "indexed": true,
          "internalType": "uint256",
          "name": "jobId",
          "type": "uint256"
        }
      ],
      "name": "JobClosed",
      "type": "event"
    },
    {
      "anonymous": false,
      "inputs": [
        {
          "indexed": true,
          "internalType": "uint256",
          "name": "jobId",
          "type": "uint256"
        },
        {
          "indexed": true,
          "internalType": "address",
          "name": "employer",
          "type": "address"
        },
        {
          "indexed": false,
          "internalType": "string",
          "name": "title",
          "type": "string"
        },
        {
          "indexed": false,
          "internalType": "string",
          "name": "company",
          "type": "string"
        }
      ],
      "name": "JobPosted",
      "type": "event"
    },
    {
      "anonymous": false,
      "inputs": [
        {
          "indexed": true,
          "internalType": "uint256",
          "name": "jobId",
          "type": "uint256"
        },
        {
          "indexed": true,
          "internalType": "uint256",
          "name": "applicationId",
          "type": "uint256"
        },
        {
          "indexed": false,
          "internalType": "bool",
          "name": "isMatch",
          "type": "bool"
        }
      ],
      "name": "MatchRevealed",
      "type": "event"
    },
    {
      "anonymous": false,
      "inputs": [
        {
          "indexed": true,
          "internalType": "uint256",
          "name": "jobId",
          "type": "uint256"
        },
        {
          "indexed": true,
          "internalType": "uint256",
          "name": "applicationId",
          "type": "uint256"
        },
        {
          "indexed": true,
          "internalType": "address",
          "name": "sender",
          "type": "address"
        },
        {
          "indexed": false,
          "internalType": "uint256",
          "name": "messageIndex",
          "type": "uint256"
        }
      ],
      "name": "MessageSent",
      "type": "event"
    },
    {
      "anonymous": false,
      "inputs": [
        {
          "indexed": true,
          "internalType": "uint256",
          "name": "jobId",
          "type": "uint256"
        },
        {
          "indexed": true,
          "internalType": "uint256",
          "name": "applicationId",
          "type": "uint256"
        },
        {
          "indexed": true,
          "internalType": "address",
          "name": "employer",
          "type": "address"
        }
      ],
      "name": "ResumeUnlocked",
      "type": "event"
    },
    {
      "inputs": [
        {
          "internalType": "uint256",
          "name": "",
          "type": "uint256"
        },
        {
          "internalType": "uint256",
          "name": "",
          "type": "uint256"
        }
      ],
      "name": "applications",
      "outputs": [
        {
          "internalType": "address",
          "name": "candidate",
          "type": "address"
        },
        {
          "internalType": "string",
          "name": "candidateName",
          "type": "string"
        },
        {
          "internalType": "string",
          "name": "resumeIpfsCid",
          "type": "string"
        },
        {
          "internalType": "euint64",
          "name": "min_expectation",
          "type": "bytes32"
        },
        {
          "internalType": "ebool",
          "name": "isMatched",
          "type": "bytes32"
        },
        {
          "internalType": "bool",
          "name": "matchRevealed",
          "type": "bool"
        },
        {
          "internalType": "bool",
          "name": "matchResult",
          "type": "bool"
        },
        {
          "internalType": "bool",
          "name": "resumeUnlocked",
          "type": "bool"
        },
        {
          "internalType": "uint256",
          "name": "appliedAt",
          "type": "uint256"
        }
      ],
      "stateMutability": "view",
      "type": "function"
    },
    {
      "inputs": [
        {
          "internalType": "uint256",
          "name": "jobId",
          "type": "uint256"
        },
        {
          "internalType": "string",
          "name": "candidateName",
          "type": "string"
        },
        {
          "internalType": "string",
          "name": "resumeIpfsCid",
          "type": "string"
        },
        {
          "internalType": "bytes32",
          "name": "encryptedExpectation",
          "type": "bytes32"
        },
        {
          "internalType": "bytes",
          "name": "inputProof",
          "type": "bytes"
        }
      ],
      "name": "applyToJob",
      "outputs": [
        {
          "internalType": "uint256",
          "name": "applicationId",
          "type": "uint256"
        }
      ],
      "stateMutability": "nonpayable",
      "type": "function"
    },
    {
      "inputs": [
        {
          "internalType": "address",
          "name": "",
          "type": "address"
        },
        {
          "internalType": "uint256",
          "name": "",
          "type": "uint256"
        }
      ],
      "name": "candidateApplicationId",
      "outputs": [
        {
          "internalType": "uint256",
          "name": "",
          "type": "uint256"
        }
      ],
      "stateMutability": "view",
      "type": "function"
    },
    {
      "inputs": [
        {
          "internalType": "address",
          "name": "",
          "type": "address"
        },
        {
          "internalType": "uint256",
          "name": "",
          "type": "uint256"
        }
      ],
      "name": "candidateJobIds",
      "outputs": [
        {
          "internalType": "uint256",
          "name": "",
          "type": "uint256"
        }
      ],
      "stateMutability": "view",
      "type": "function"
    },
    {
      "inputs": [
        {
          "internalType": "uint256",
          "name": "jobId",
          "type": "uint256"
        }
      ],
      "name": "closeJob",
      "outputs": [],
      "stateMutability": "nonpayable",
      "type": "function"
    },
    {
      "inputs": [],
      "name": "confidentialProtocolId",
      "outputs": [
        {
          "internalType": "uint256",
          "name": "",
          "type": "uint256"
        }
      ],
      "stateMutability": "view",
      "type": "function"
    },
    {
      "inputs": [
        {
          "internalType": "string",
          "name": "title",
          "type": "string"
        },
        {
          "internalType": "string",
          "name": "company",
          "type": "string"
        },
        {
          "internalType": "string",
          "name": "location",
          "type": "string"
        },
        {
          "internalType": "string",
          "name": "jobType",
          "type": "string"
        },
        {
          "internalType": "bytes32",
          "name": "encryptedBudget",
          "type": "bytes32"
        },
        {
          "internalType": "bytes",
          "name": "inputProof",
          "type": "bytes"
        }
      ],
      "name": "createJobPosting",
      "outputs": [
        {
          "internalType": "uint256",
          "name": "jobId",
          "type": "uint256"
        }
      ],
      "stateMutability": "nonpayable",
      "type": "function"
    },
    {
      "inputs": [],
      "name": "getActiveJobs",
      "outputs": [
        {
          "internalType": "uint256[]",
          "name": "ids",
          "type": "uint256[]"
        },
        {
          "internalType": "address[]",
          "name": "employers",
          "type": "address[]"
        },
        {
          "internalType": "string[]",
          "name": "titles",
          "type": "string[]"
        },
        {
          "internalType": "string[]",
          "name": "companies",
          "type": "string[]"
        },
        {
          "internalType": "string[]",
          "name": "locations",
          "type": "string[]"
        },
        {
          "internalType": "string[]",
          "name": "jobTypes",
          "type": "string[]"
        },
        {
          "internalType": "uint256[]",
          "name": "createdAts",
          "type": "uint256[]"
        },
        {
          "internalType": "uint256[]",
          "name": "applicationCounts",
          "type": "uint256[]"
        }
      ],
      "stateMutability": "view",
      "type": "function"
    },
    {
      "inputs": [
        {
          "internalType": "uint256",
          "name": "jobId",
          "type": "uint256"
        }
      ],
      "name": "getApplicationsForJob",
      "outputs": [
        {
          "internalType": "uint256[]",
          "name": "appIds",
          "type": "uint256[]"
        },
        {
          "internalType": "address[]",
          "name": "candidates",
          "type": "address[]"
        },
        {
          "internalType": "string[]",
          "name": "names",
          "type": "string[]"
        },
        {
          "internalType": "bool[]",
          "name": "matchRevealeds",
          "type": "bool[]"
        },
        {
          "internalType": "bool[]",
          "name": "matchResults",
          "type": "bool[]"
        },
        {
          "internalType": "bytes32[]",
          "name": "matchHandles",
          "type": "bytes32[]"
        },
        {
          "internalType": "bool[]",
          "name": "resumeUnlockeds",
          "type": "bool[]"
        },
        {
          "internalType": "uint256[]",
          "name": "appliedAts",
          "type": "uint256[]"
        }
      ],
      "stateMutability": "view",
      "type": "function"
    },
    {
      "inputs": [
        {
          "internalType": "address",
          "name": "employer",
          "type": "address"
        }
      ],
      "name": "getJobsByEmployer",
      "outputs": [
        {
          "internalType": "uint256[]",
          "name": "jobIds",
          "type": "uint256[]"
        }
      ],
      "stateMutability": "view",
      "type": "function"
    },
    {
      "inputs": [
        {
          "internalType": "uint256",
          "name": "jobId",
          "type": "uint256"
        },
        {
          "internalType": "uint256",
          "name": "applicationId",
          "type": "uint256"
        }
      ],
      "name": "getMessageCount",
      "outputs": [
        {
          "internalType": "uint256",
          "name": "",
          "type": "uint256"
        }
      ],
      "stateMutability": "view",
      "type": "function"
    },
    {
      "inputs": [
        {
          "internalType": "uint256",
          "name": "jobId",
          "type": "uint256"
        },
        {
          "internalType": "uint256",
          "name": "applicationId",
          "type": "uint256"
        }
      ],
      "name": "getMessages",
      "outputs": [
        {
          "internalType": "address[]",
          "name": "senders",
          "type": "address[]"
        },
        {
          "internalType": "string[]",
          "name": "contents",
          "type": "string[]"
        },
        {
          "internalType": "uint256[]",
          "name": "timestamps",
          "type": "uint256[]"
        }
      ],
      "stateMutability": "view",
      "type": "function"
    },
    {
      "inputs": [],
      "name": "getMyApplications",
      "outputs": [
        {
          "internalType": "uint256[]",
          "name": "jobIds",
          "type": "uint256[]"
        },
        {
          "internalType": "uint256[]",
          "name": "appIds",
          "type": "uint256[]"
        },
        {
          "internalType": "string[]",
          "name": "titles",
          "type": "string[]"
        },
        {
          "internalType": "string[]",
          "name": "companies",
          "type": "string[]"
        },
        {
          "internalType": "bool[]",
          "name": "matchRevealeds",
          "type": "bool[]"
        },
        {
          "internalType": "bool[]",
          "name": "matchResults",
          "type": "bool[]"
        },
        {
          "internalType": "uint256[]",
          "name": "appliedAts",
          "type": "uint256[]"
        }
      ],
      "stateMutability": "view",
      "type": "function"
    },
    {
      "inputs": [
        {
          "internalType": "uint256",
          "name": "jobId",
          "type": "uint256"
        },
        {
          "internalType": "uint256",
          "name": "applicationId",
          "type": "uint256"
        }
      ],
      "name": "getResumeIfUnlocked",
      "outputs": [
        {
          "internalType": "string",
          "name": "ipfsCid",
          "type": "string"
        }
      ],
      "stateMutability": "view",
      "type": "function"
    },
    {
      "inputs": [
        {
          "internalType": "uint256",
          "name": "",
          "type": "uint256"
        },
        {
          "internalType": "uint256",
          "name": "",
          "type": "uint256"
        }
      ],
      "name": "jobApplicationIds",
      "outputs": [
        {
          "internalType": "uint256",
          "name": "",
          "type": "uint256"
        }
      ],
      "stateMutability": "view",
      "type": "function"
    },
    {
      "inputs": [],
      "name": "jobCount",
      "outputs": [
        {
          "internalType": "uint256",
          "name": "",
          "type": "uint256"
        }
      ],
      "stateMutability": "view",
      "type": "function"
    },
    {
      "inputs": [
        {
          "internalType": "uint256",
          "name": "",
          "type": "uint256"
        }
      ],
      "name": "jobPostings",
      "outputs": [
        {
          "internalType": "address",
          "name": "employer",
          "type": "address"
        },
        {
          "internalType": "string",
          "name": "title",
          "type": "string"
        },
        {
          "internalType": "string",
          "name": "company",
          "type": "string"
        },
        {
          "internalType": "string",
          "name": "location",
          "type": "string"
        },
        {
          "internalType": "string",
          "name": "jobType",
          "type": "string"
        },
        {
          "internalType": "euint64",
          "name": "max_budget",
          "type": "bytes32"
        },
        {
          "internalType": "bool",
          "name": "isActive",
          "type": "bool"
        },
        {
          "internalType": "bool",
          "name": "isResolved",
          "type": "bool"
        },
        {
          "internalType": "uint256",
          "name": "createdAt",
          "type": "uint256"
        },
        {
          "internalType": "uint256",
          "name": "applicationCount",
          "type": "uint256"
        }
      ],
      "stateMutability": "view",
      "type": "function"
    },
    {
      "inputs": [
        {
          "internalType": "uint256",
          "name": "jobId",
          "type": "uint256"
        },
        {
          "internalType": "uint256",
          "name": "applicationId",
          "type": "uint256"
        }
      ],
      "name": "resolveApplication",
      "outputs": [],
      "stateMutability": "nonpayable",
      "type": "function"
    },
    {
      "inputs": [
        {
          "internalType": "uint256",
          "name": "jobId",
          "type": "uint256"
        },
        {
          "internalType": "uint256",
          "name": "applicationId",
          "type": "uint256"
        },
        {
          "internalType": "bool",
          "name": "decryptedMatchResult",
          "type": "bool"
        }
      ],
      "name": "revealMatchResult",
      "outputs": [],
      "stateMutability": "nonpayable",
      "type": "function"
    },
    {
      "inputs": [
        {
          "internalType": "uint256",
          "name": "jobId",
          "type": "uint256"
        },
        {
          "internalType": "uint256",
          "name": "applicationId",
          "type": "uint256"
        },
        {
          "internalType": "string",
          "name": "content",
          "type": "string"
        }
      ],
      "name": "sendMessage",
      "outputs": [],
      "stateMutability": "nonpayable",
      "type": "function"
    },
    {
      "inputs": [
        {
          "internalType": "uint256",
          "name": "jobId",
          "type": "uint256"
        },
        {
          "internalType": "uint256",
          "name": "applicationId",
          "type": "uint256"
        }
      ],
      "name": "unlockResume",
      "outputs": [],
      "stateMutability": "nonpayable",
      "type": "function"
    }
  ],
  "bytecode": "0x608060405234801562000010575f80fd5b50620000c86200001f620000ce565b80517f9e7b61f58c47dc699ac88507c4f5bb9f121c03808c5676a8078fe583e464970080546001600160a01b03199081166001600160a01b039384161790915560208301517f9e7b61f58c47dc699ac88507c4f5bb9f121c03808c5676a8078fe583e46497018054831691841691909117905560408301517f9e7b61f58c47dc699ac88507c4f5bb9f121c03808c5676a8078fe583e46497028054909216921691909117905550565b62000280565b604080516060810182525f80825260208201819052918101919091524660010362000168575060408051606080820183525f8083526020808401829052928401528251908101835273ca2e8f1f656cd25c01f05d0b243ab1ecd4a8ffb6815273d82385dada1ae3e969447f20a3164f6213100e75918101919091527377627828a55156b04ac0dc0eb30467f1a552bb039181019190915290565b4662aa36a703620001e8575060408051606080820183525f8083526020808401829052928401528251908101835273f0ffdc93b7e186bc2f8cb3daa75d86d1930a433d81527392c920834ec8941d2c77d188936e1f7a6f49c1279181019190915273be0e383937d564d7ff0bc3b46c51f0bf8d5c311a9181019190915290565b46617a690362000267575060408051606080820183525f808352602080840182905292840152825190810183527350157cffd6bbfa2dece204a89ec419c23ef5755d815273e3a9105a3a932253a70f126eb1e3b589c643dd249181019190915273901f8942346f7ab3a01f6d7613119bca447bb0309181019190915290565b6040516373cac13b60e01b815260040160405180910390fd5b613beb806200028e5f395ff3fe608060405234801561000f575f80fd5b5060043610610132575f3560e01c80634d91e57d116100b45780637a870b63116100795780637a870b63146102c7578063853aff91146102ef578063880125681461030a5780638927b0301461032a5780639950c2a314610332578063ce71fbbe14610345575f80fd5b80634d91e57d1461023e578063558ee6a8146102655780635d74ed731461027857806361f925c61461028b578063622359b91461029e575f80fd5b80633c1ef6c4116100fa5780633c1ef6c4146101c45780633deac9f3146101ee5780634be8362d146102015780634c5d8a0f146102235780634d5a32781461022b575f80fd5b8063129de6e5146101365780631772973b1461015f5780631e01abca1461018057806337597cb51461019557806339561dba146101b1575b5f80fd5b6101496101443660046130e8565b610358565b604051610156919061313b565b60405180910390f35b61017261016d36600461314d565b610448565b604051908152602001610156565b61019361018e36600461316d565b6104c6565b005b61019d610562565b604051610156989796959493929190613257565b6101936101bf366004613349565b610b90565b6101726101d2366004613397565b600560209081525f928352604080842090915290825290205481565b6101726101fc3660046133bf565b610df5565b61021461020f36600461314d565b611263565b60405161015693929190613463565b6101725f5481565b610172610239366004613397565b6115fc565b61025161024c36600461316d565b611627565b6040516101569897969594939291906134cc565b61019361027336600461314d565b611aed565b61019361028636600461314d565b611c43565b610193610299366004613557565b611d9b565b6102b16102ac36600461316d565b611ef7565b6040516101569a99989796959493929190613591565b6102da6102d536600461314d565b61216f565b60405161015699989796959493929190613621565b6102f76122e1565b6040516101569796959493929190613690565b61031d61031836600461314d565b6127e8565b6040516101569190613726565b61017261297f565b610172610340366004613738565b61298d565b61017261035336600461314d565b612c4a565b60605f805b5f5481101561039c575f818152600160205260409020546001600160a01b03808616911603610394578161039081613828565b9250505b60010161035d565b50806001600160401b038111156103b5576103b561384c565b6040519080825280602002602001820160405280156103de578160200160208202803683370190505b5091505f805b5f54811015610440575f818152600160205260409020546001600160a01b038087169116036104385780848361041981613828565b94508151811061042b5761042b613860565b6020026020010181815250505b6001016103e4565b505050919050565b5f825f5481106104735760405162461bcd60e51b815260040161046a90613874565b60405180910390fd5b5f848152600160205260409020600801548490849081106104a65760405162461bcd60e51b815260040161046a906138ab565b5050505f9283525060066020908152604080842092845291905290205490565b805f5481106104e75760405162461bcd60e51b815260040161046a90613874565b5f8281526001602052604090205482906001600160a01b0316331461051e5760405162461bcd60e51b815260040161046a906138ee565b5f83815260016020526040808220600601805460ff191690555184917f6edf0875f8a9ed26275e4e52f2355d96ea7fd96625d6992a9733be603136fa6e91a2505050565b6060806060806060806060805f805b5f548110156105a9575f8181526001602052604090206006015460ff16156105a1578161059d81613828565b9250505b600101610571565b50806001600160401b038111156105c2576105c261384c565b6040519080825280602002602001820160405280156105eb578160200160208202803683370190505b509850806001600160401b038111156106065761060661384c565b60405190808252806020026020018201604052801561062f578160200160208202803683370190505b509750806001600160401b0381111561064a5761064a61384c565b60405190808252806020026020018201604052801561067d57816020015b60608152602001906001900390816106685790505b509650806001600160401b038111156106985761069861384c565b6040519080825280602002602001820160405280156106cb57816020015b60608152602001906001900390816106b65790505b509550806001600160401b038111156106e6576106e661384c565b60405190808252806020026020018201604052801561071957816020015b60608152602001906001900390816107045790505b509450806001600160401b038111156107345761073461384c565b60405190808252806020026020018201604052801561076757816020015b60608152602001906001900390816107525790505b509350806001600160401b038111156107825761078261384c565b6040519080825280602002602001820160405280156107ab578160200160208202803683370190505b509250806001600160401b038111156107c6576107c661384c565b6040519080825280602002602001820160405280156107ef578160200160208202803683370190505b5091505f805b5f54811015610b83575f8181526001602052604090206006015460ff1615610b7b575f8181526001602052604090208b5182908d908590811061083a5761083a613860565b602090810291909101015280548b516001600160a01b03909116908c908590811061086757610867613860565b60200260200101906001600160a01b031690816001600160a01b03168152505080600101805461089690613925565b80601f01602080910402602001604051908101604052809291908181526020018280546108c290613925565b801561090d5780601f106108e45761010080835404028352916020019161090d565b820191905f5260205f20905b8154815290600101906020018083116108f057829003601f168201915b50505050508a848151811061092457610924613860565b602002602001018190525080600201805461093e90613925565b80601f016020809104026020016040519081016040528092919081815260200182805461096a90613925565b80156109b55780601f1061098c576101008083540402835291602001916109b5565b820191905f5260205f20905b81548152906001019060200180831161099857829003601f168201915b50505050508984815181106109cc576109cc613860565b60200260200101819052508060030180546109e690613925565b80601f0160208091040260200160405190810160405280929190818152602001828054610a1290613925565b8015610a5d5780601f10610a3457610100808354040283529160200191610a5d565b820191905f5260205f20905b815481529060010190602001808311610a4057829003601f168201915b5050505050888481518110610a7457610a74613860565b6020026020010181905250806004018054610a8e90613925565b80601f0160208091040260200160405190810160405280929190818152602001828054610aba90613925565b8015610b055780601f10610adc57610100808354040283529160200191610b05565b820191905f5260205f20905b815481529060010190602001808311610ae857829003601f168201915b5050505050878481518110610b1c57610b1c613860565b60200260200101819052508060070154868481518110610b3e57610b3e613860565b6020026020010181815250508060080154858481518110610b6157610b61613860565b602090810291909101015282610b7681613828565b935050505b6001016107f5565b5050509091929394959697565b835f548110610bb15760405162461bcd60e51b815260040161046a90613874565b5f85815260016020526040902060080154859085908110610be45760405162461bcd60e51b815260040161046a906138ab565b5f87815260026020908152604080832089845282528083208a84526001909252909120600582015460ff168015610c2457506005820154610100900460ff165b610c705760405162461bcd60e51b815260206004820152601f60248201527f5665696c5061793a204e6f20636f6e6669726d656420464845206d6174636800604482015260640161046a565b80546001600160a01b0316331480610c91575081546001600160a01b031633145b610cad5760405162461bcd60e51b815260040161046a9061395d565b85610cf35760405162461bcd60e51b81526020600482015260166024820152755665696c5061793a20456d707479206d65737361676560501b604482015260640161046a565b5f8981526006602090815260408083208b8452825291829020805483516060810185523381528451601f8c018590048502810185019095528a8552909391929091828201918c908c90819084018382808284375f9201829052509385525050426020938401525083546001808201865594825290829020835160039092020180546001600160a01b0319166001600160a01b03909216919091178155908201519192909190820190610da590826139f1565b506040918201516002909101555181815233908a908c907f402a45bf1deda6d11334ec5ba68b3cfb7b6d0066d03a8abb09996fd18cffa8659060200160405180910390a450505050505050505050565b5f885f548110610e175760405162461bcd60e51b815260040161046a90613874565b5f8a8152600160205260409020600601548a9060ff16610e795760405162461bcd60e51b815260206004820152601a60248201527f5665696c5061793a204a6f62206973206e6f7420616374697665000000000000604482015260640161046a565b335f9081526005602090815260408083208e8452909152902054158015610ed957505f8b81526003602052604090205415801590610ed757505f8b81526002602090815260408083208380529091529020546001600160a01b031633145b155b610f255760405162461bcd60e51b815260206004820152601860248201527f5665696c5061793a20416c7265616479206170706c6965640000000000000000604482015260640161046a565b5f8b8152600160205260408120600801805491610f4183613828565b9190505592505f610f8a8787878080601f0160208091040260200160405190810160405280939291908181526020018383808284375f9201919091525060059250612c63915050565b9050610f9581612d70565b505f610fa05f612d90565b9050610fab81612db1565b50604051806101200160405280336001600160a01b031681526020018d8d8080601f0160208091040260200160405190810160405280939291908181526020018383808284375f92019190915250505090825250604080516020601f8e018190048102820181019092528c815291810191908d908d90819084018382808284375f81840152601f19601f8201169050808301925050505050505081526020018381526020018281526020015f151581526020015f151581526020015f151581526020014281525060025f8f81526020019081526020015f205f8781526020019081526020015f205f820151815f015f6101000a8154816001600160a01b0302191690836001600160a01b0316021790555060208201518160010190816110d191906139f1565b50604082015160028201906110e690826139f1565b50606082015181600301556080820151816004015560a0820151816005015f6101000a81548160ff02191690831515021790555060c08201518160050160016101000a81548160ff02191690831515021790555060e08201518160050160026101000a81548160ff021916908315150217905550610100820151816006015590505060035f8e81526020019081526020015f2085908060018154018082558091505060019003905f5260205f20015f909190919091505560045f336001600160a01b03166001600160a01b031681526020019081526020015f208d908060018154018082558091505060019003905f5260205f20015f90919091909150558460055f336001600160a01b03166001600160a01b031681526020019081526020015f205f8f81526020019081526020015f2081905550336001600160a01b0316858e7ffdb73f695bc6f43d03128339b6d99121833f5cb8d65f8cb3ffc6abe2e08a0a5b60405160405180910390a45050505098975050505050505050565b6060806060845f5481106112895760405162461bcd60e51b815260040161046a90613874565b5f868152600160205260409020600801548690869081106112bc5760405162461bcd60e51b815260040161046a906138ab565b5f8881526002602090815260408083208a845282528083208b84526001909252909120600582015460ff1680156112fc57506005820154610100900460ff165b6113485760405162461bcd60e51b815260206004820152601f60248201527f5665696c5061793a204e6f20636f6e6669726d656420464845206d6174636800604482015260640161046a565b80546001600160a01b0316331480611369575081546001600160a01b031633145b6113855760405162461bcd60e51b815260040161046a9061395d565b5f8a81526006602090815260408083208c845290915290208054806001600160401b038111156113b7576113b761384c565b6040519080825280602002602001820160405280156113e0578160200160208202803683370190505b509950806001600160401b038111156113fb576113fb61384c565b60405190808252806020026020018201604052801561142e57816020015b60608152602001906001900390816114195790505b509850806001600160401b038111156114495761144961384c565b604051908082528060200260200182016040528015611472578160200160208202803683370190505b5097505f5b818110156115ed5782818154811061149157611491613860565b5f9182526020909120600390910201548b516001600160a01b03909116908c90839081106114c1576114c1613860565b60200260200101906001600160a01b031690816001600160a01b0316815250508281815481106114f3576114f3613860565b905f5260205f209060030201600101805461150d90613925565b80601f016020809104026020016040519081016040528092919081815260200182805461153990613925565b80156115845780601f1061155b57610100808354040283529160200191611584565b820191905f5260205f20905b81548152906001019060200180831161156757829003601f168201915b50505050508a828151811061159b5761159b613860565b60200260200101819052508281815481106115b8576115b8613860565b905f5260205f209060030201600201548982815181106115da576115da613860565b6020908102919091010152600101611477565b50505050505050509250925092565b6004602052815f5260405f208181548110611615575f80fd5b905f5260205f20015f91509150505481565b606080606080606080606080885f5481106116545760405162461bcd60e51b815260040161046a90613874565b5f8a8152600160205260409020548a906001600160a01b0316331461168b5760405162461bcd60e51b815260040161046a906138ee565b5f8b815260016020526040902060080154806001600160401b038111156116b4576116b461384c565b6040519080825280602002602001820160405280156116dd578160200160208202803683370190505b509a50806001600160401b038111156116f8576116f861384c565b604051908082528060200260200182016040528015611721578160200160208202803683370190505b509950806001600160401b0381111561173c5761173c61384c565b60405190808252806020026020018201604052801561176f57816020015b606081526020019060019003908161175a5790505b509850806001600160401b0381111561178a5761178a61384c565b6040519080825280602002602001820160405280156117b3578160200160208202803683370190505b509750806001600160401b038111156117ce576117ce61384c565b6040519080825280602002602001820160405280156117f7578160200160208202803683370190505b509650806001600160401b038111156118125761181261384c565b60405190808252806020026020018201604052801561183b578160200160208202803683370190505b509550806001600160401b038111156118565761185661384c565b60405190808252806020026020018201604052801561187f578160200160208202803683370190505b509450806001600160401b0381111561189a5761189a61384c565b6040519080825280602002602001820160405280156118c3578160200160208202803683370190505b5093505f5b81811015611ade575f8d815260026020908152604080832084845290915290208c5182908e90829081106118fe576118fe613860565b602090810291909101015280548c516001600160a01b03909116908d908490811061192b5761192b613860565b60200260200101906001600160a01b031690816001600160a01b03168152505080600101805461195a90613925565b80601f016020809104026020016040519081016040528092919081815260200182805461198690613925565b80156119d15780601f106119a8576101008083540402835291602001916119d1565b820191905f5260205f20905b8154815290600101906020018083116119b457829003601f168201915b50505050508b83815181106119e8576119e8613860565b602090810291909101015260058101548a5160ff909116908b9084908110611a1257611a12613860565b6020026020010190151590811515815250508060050160019054906101000a900460ff16898381518110611a4857611a48613860565b6020026020010190151590811515815250508060040154888381518110611a7157611a71613860565b6020026020010181815250508060050160029054906101000a900460ff16878381518110611aa157611aa1613860565b6020026020010190151590811515815250508060060154868381518110611aca57611aca613860565b6020908102919091010152506001016118c8565b50505050919395975091939597565b815f548110611b0e5760405162461bcd60e51b815260040161046a90613874565b5f83815260016020526040902060080154839083908110611b415760405162461bcd60e51b815260040161046a906138ab565b5f8581526001602052604090205485906001600160a01b03163314611b785760405162461bcd60e51b815260040161046a906138ee565b5f8681526002602090815260408083208884529091529020600581015460ff168015611bad57506005810154610100900460ff165b611bf95760405162461bcd60e51b815260206004820152601b60248201527f5665696c5061793a204e6f20636f6e6669726d6564206d617463680000000000604482015260640161046a565b60058101805462ff00001916620100001790556040513390879089907fd9c67b23e0903b466cca5aa7664734499e4c82bbeb358ea2eb592f06d52c83fa905f90a450505050505050565b815f548110611c645760405162461bcd60e51b815260040161046a90613874565b5f83815260016020526040902060080154839083908110611c975760405162461bcd60e51b815260040161046a906138ab565b5f85815260026020908152604080832087845282528083208884526001909252909120600582015460ff1615611d1e5760405162461bcd60e51b815260206004820152602660248201527f5665696c5061793a20416c7265616479207265736f6c76656420616e642072656044820152651d99585b195960d21b606482015260840161046a565b5f611d3183600301548360050154612dc0565b600484018190559050611d4381612db1565b508154611d5a9082906001600160a01b0316612df5565b50611d6481612e18565b50604051879089907faa8bbadb289a5d836c5a29b62b1e26336926974e58e77b4ab5840cd8ca90a126905f90a35050505050505050565b825f548110611dbc5760405162461bcd60e51b815260040161046a90613874565b5f84815260016020526040902060080154849084908110611def5760405162461bcd60e51b815260040161046a906138ab565b5f8681526001602052604090205486906001600160a01b03163314611e265760405162461bcd60e51b815260040161046a906138ee565b5f8781526002602090815260408083208984529091529020600581015460ff1615611e935760405162461bcd60e51b815260206004820152601f60248201527f5665696c5061793a204d6174636820616c72656164792072657665616c656400604482015260640161046a565b6005810180548715156101000261ffff19909116176001179055604051879089907ffa71382ddfc4ee59159e8334f34a8aa254c10d048d8954a3b4f87a76982f72f090611ee5908a1515815260200190565b60405180910390a35050505050505050565b600160208190525f9182526040909120805491810180546001600160a01b0390931692611f2390613925565b80601f0160208091040260200160405190810160405280929190818152602001828054611f4f90613925565b8015611f9a5780601f10611f7157610100808354040283529160200191611f9a565b820191905f5260205f20905b815481529060010190602001808311611f7d57829003601f168201915b505050505090806002018054611faf90613925565b80601f0160208091040260200160405190810160405280929190818152602001828054611fdb90613925565b80156120265780601f10611ffd57610100808354040283529160200191612026565b820191905f5260205f20905b81548152906001019060200180831161200957829003601f168201915b50505050509080600301805461203b90613925565b80601f016020809104026020016040519081016040528092919081815260200182805461206790613925565b80156120b25780601f10612089576101008083540402835291602001916120b2565b820191905f5260205f20905b81548152906001019060200180831161209557829003601f168201915b5050505050908060040180546120c790613925565b80601f01602080910402602001604051908101604052809291908181526020018280546120f390613925565b801561213e5780601f106121155761010080835404028352916020019161213e565b820191905f5260205f20905b81548152906001019060200180831161212157829003601f168201915b5050506005840154600685015460078601546008909601549495919460ff808316955061010090920490911692508a565b600260209081525f9283526040808420909152908252902080546001820180546001600160a01b0390921692916121a590613925565b80601f01602080910402602001604051908101604052809291908181526020018280546121d190613925565b801561221c5780601f106121f35761010080835404028352916020019161221c565b820191905f5260205f20905b8154815290600101906020018083116121ff57829003601f168201915b50505050509080600201805461223190613925565b80601f016020809104026020016040519081016040528092919081815260200182805461225d90613925565b80156122a85780601f1061227f576101008083540402835291602001916122a8565b820191905f5260205f20905b81548152906001019060200180831161228b57829003601f168201915b5050506003840154600485015460058601546006909601549495919490935060ff80831693506101008304811692620100009004169089565b60608060608060608060605f60045f336001600160a01b03166001600160a01b031681526020019081526020015f2080548060200260200160405190810160405280929190818152602001828054801561235857602002820191905f5260205f20905b815481526020019060010190808311612344575b5050835193945083925050506001600160401b0381111561237b5761237b61384c565b6040519080825280602002602001820160405280156123a4578160200160208202803683370190505b509850806001600160401b038111156123bf576123bf61384c565b6040519080825280602002602001820160405280156123e8578160200160208202803683370190505b509750806001600160401b038111156124035761240361384c565b60405190808252806020026020018201604052801561243657816020015b60608152602001906001900390816124215790505b509650806001600160401b038111156124515761245161384c565b60405190808252806020026020018201604052801561248457816020015b606081526020019060019003908161246f5790505b509550806001600160401b0381111561249f5761249f61384c565b6040519080825280602002602001820160405280156124c8578160200160208202803683370190505b509450806001600160401b038111156124e3576124e361384c565b60405190808252806020026020018201604052801561250c578160200160208202803683370190505b509350806001600160401b038111156125275761252761384c565b604051908082528060200260200182016040528015612550578160200160208202803683370190505b5092505f5b818110156127dc575f83828151811061257057612570613860565b602090810291909101810151335f908152600583526040808220838352845280822054600285528183208184528552818320848452600190955291208e5192945090929184908f90879081106125c8576125c8613860565b602002602001018181525050828d86815181106125e7576125e7613860565b60200260200101818152505080600101805461260290613925565b80601f016020809104026020016040519081016040528092919081815260200182805461262e90613925565b80156126795780601f1061265057610100808354040283529160200191612679565b820191905f5260205f20905b81548152906001019060200180831161265c57829003601f168201915b50505050508c868151811061269057612690613860565b60200260200101819052508060020180546126aa90613925565b80601f01602080910402602001604051908101604052809291908181526020018280546126d690613925565b80156127215780601f106126f857610100808354040283529160200191612721565b820191905f5260205f20905b81548152906001019060200180831161270457829003601f168201915b50505050508b868151811061273857612738613860565b602090810291909101015260058201548a5160ff909116908b908790811061276257612762613860565b6020026020010190151590811515815250508160050160019054906101000a900460ff1689868151811061279857612798613860565b60200260200101901515908115158152505081600601548886815181106127c1576127c1613860565b60209081029190910101525050600190920191506125559050565b50505090919293949596565b6060825f54811061280b5760405162461bcd60e51b815260040161046a90613874565b5f8481526001602052604090206008015484908490811061283e5760405162461bcd60e51b815260040161046a906138ab565b5f8681526001602052604090205486906001600160a01b031633146128755760405162461bcd60e51b815260040161046a906138ee565b5f8781526002602090815260408083208984529091529020600581015462010000900460ff166128e75760405162461bcd60e51b815260206004820181905260248201527f5665696c5061793a20526573756d65206e6f742079657420756e6c6f636b6564604482015260640161046a565b8060020180546128f690613925565b80601f016020809104026020016040519081016040528092919081815260200182805461292290613925565b801561296d5780601f106129445761010080835404028352916020019161296d565b820191905f5260205f20905b81548152906001019060200180831161295057829003601f168201915b50505050509550505050505092915050565b5f612988612e33565b905090565b5f8054818061299b83613828565b9190505590505f6129e48585858080601f0160208091040260200160405190810160405280939291908181526020018383808284375f9201919091525060059250612c63915050565b90506129ef81612d70565b50604051806101400160405280336001600160a01b031681526020018e8e8080601f0160208091040260200160405190810160405280939291908181526020018383808284375f92019190915250505090825250604080516020601f8f018190048102820181019092528d815291810191908e908e90819084018382808284375f92019190915250505090825250604080516020601f8d018190048102820181019092528b815291810191908c908c90819084018382808284375f92019190915250505090825250604080516020601f8b0181900481028201810190925289815291810191908a908a90819084018382808284375f9201829052509385525050506020808301859052600160408085018290526060850184905242608086015260a090940183905286835280825292909120835181546001600160a01b0319166001600160a01b03909116178155908301519091820190612b5090826139f1565b5060408201516002820190612b6590826139f1565b5060608201516003820190612b7a90826139f1565b5060808201516004820190612b8f90826139f1565b5060a0820151816005015560c0820151816006015f6101000a81548160ff02191690831515021790555060e08201518160060160016101000a81548160ff02191690831515021790555061010082015181600701556101208201518160080155905050336001600160a01b0316827f752f79388b35d90d4202940ffb0c752f318a347800decc9e4c322e2cec1b404a8f8f8f8f604051612c329493929190613ad8565b60405180910390a3509b9a5050505050505050505050565b6003602052815f5260405f208181548110611615575f80fd5b7f9e7b61f58c47dc699ac88507c4f5bb9f121c03808c5676a8078fe583e46497015460405163045fc19560e11b81525f915f80516020613b96833981519152916001600160a01b03909116906308bf832a90612cc9908890339089908990600401613b29565b6020604051808303815f875af1158015612ce5573d5f803e3d5ffd5b505050506040513d601f19601f82011682018060405250810190612d099190613b6a565b8154604051630f8e573b60e21b8152600481018390523360248201529193506001600160a01b031690633e395cec906044015f604051808303815f87803b158015612d52575f80fd5b505af1158015612d64573d5f803e3d5ffd5b50505050509392505050565b5f81612d8257612d7f5f612e67565b91505b612d8c8230612e7c565b5090565b5f612dab82612d9f575f612da2565b60015b60ff165f612ef0565b92915050565b5f81612d8257612d7f5f612d90565b5f82612dd257612dcf5f612e67565b92505b81612de357612de05f612e67565b91505b612dee83835f612f9a565b9392505050565b5f82612e0757612e045f612d90565b92505b612e118383612e7c565b5090919050565b5f81612e2a57612e275f612d90565b91505b612d8c8261304f565b5f46600103612e425750600190565b4662aa36a703612e53575061271190565b46617a6903612e6257505f1990565b505f90565b5f612dab826001600160401b03166005612ef0565b5f80516020613b968339815191528054604051635ca4b5b160e11b8152600481018590526001600160a01b0384811660248301529091169063b9496b62906044015b5f604051808303815f87803b158015612ed5575f80fd5b505af1158015612ee7573d5f803e3d5ffd5b50505050505050565b7f9e7b61f58c47dc699ac88507c4f5bb9f121c03808c5676a8078fe583e464970154604051639cd07acb60e01b81525f915f80516020613b96833981519152916001600160a01b0390911690639cd07acb90612f529087908790600401613b81565b6020604051808303815f875af1158015612f6e573d5f803e3d5ffd5b505050506040513d601f19601f82011682018060405250810190612f929190613b6a565b949350505050565b5f808215612fad5750600160f81b612fb0565b505f5b5f5f80516020613b968339815191526001810154604051631d44e90160e21b815260048101899052602481018890526001600160f81b0319851660448201529192506001600160a01b031690637513a404906064016020604051808303815f875af1158015613021573d5f803e3d5ffd5b505050506040513d601f19601f820116820180604052508101906130459190613b6a565b9695505050505050565b6040805160018082528183019092525f80516020613b96833981519152915f91906020808301908036833701905050905082815f8151811061309357613093613860565b60209081029190910101528154604051637d6e912360e11b81526001600160a01b039091169063fadd224690612ebe90849060040161313b565b80356001600160a01b03811681146130e3575f80fd5b919050565b5f602082840312156130f8575f80fd5b612dee826130cd565b5f815180845260208085019450602084015f5b8381101561313057815187529582019590820190600101613114565b509495945050505050565b602081525f612dee6020830184613101565b5f806040838503121561315e575f80fd5b50508035926020909101359150565b5f6020828403121561317d575f80fd5b5035919050565b5f815180845260208085019450602084015f5b838110156131305781516001600160a01b031687529582019590820190600101613197565b5f81518084525f5b818110156131e0576020818501810151868301820152016131c4565b505f602082860101526020601f19601f83011685010191505092915050565b5f8282518085526020808601955060208260051b840101602086015f5b8481101561324a57601f198684030189526132388383516131bc565b9884019892509083019060010161321c565b5090979650505050505050565b5f61010080835261326a8184018c613101565b9050828103602084015261327e818b613184565b90508281036040840152613292818a6131ff565b905082810360608401526132a681896131ff565b905082810360808401526132ba81886131ff565b905082810360a08401526132ce81876131ff565b905082810360c08401526132e28186613101565b905082810360e08401526132f68185613101565b9b9a5050505050505050505050565b5f8083601f840112613315575f80fd5b5081356001600160401b0381111561332b575f80fd5b602083019150836020828501011115613342575f80fd5b9250929050565b5f805f806060858703121561335c575f80fd5b843593506020850135925060408501356001600160401b0381111561337f575f80fd5b61338b87828801613305565b95989497509550505050565b5f80604083850312156133a8575f80fd5b6133b1836130cd565b946020939093013593505050565b5f805f805f805f8060a0898b0312156133d6575f80fd5b8835975060208901356001600160401b03808211156133f3575f80fd5b6133ff8c838d01613305565b909950975060408b0135915080821115613417575f80fd5b6134238c838d01613305565b909750955060608b0135945060808b0135915080821115613442575f80fd5b5061344f8b828c01613305565b999c989b5096995094979396929594505050565b606081525f6134756060830186613184565b828103602084015261348781866131ff565b905082810360408401526130458185613101565b5f815180845260208085019450602084015f5b838110156131305781511515875295820195908201906001016134ae565b5f6101008083526134df8184018c613101565b905082810360208401526134f3818b613184565b90508281036040840152613507818a6131ff565b9050828103606084015261351b818961349b565b9050828103608084015261352f818861349b565b905082810360a08401526135438187613101565b905082810360c08401526132e2818661349b565b5f805f60608486031215613569575f80fd5b833592506020840135915060408401358015158114613586575f80fd5b809150509250925092565b6001600160a01b038b168152610140602082018190525f906135b58382018d6131bc565b905082810360408401526135c9818c6131bc565b905082810360608401526135dd818b6131bc565b905082810360808401526135f1818a6131bc565b60a0840198909852505093151560c085015291151560e08401526101008301526101209091015295945050505050565b6001600160a01b038a168152610120602082018190525f906136458382018c6131bc565b90508281036040840152613659818b6131bc565b60608401999099525050608081019590955292151560a085015290151560c0840152151560e0830152610100909101529392505050565b60e081525f6136a260e083018a613101565b82810360208401526136b4818a613101565b905082810360408401526136c881896131ff565b905082810360608401526136dc81886131ff565b905082810360808401526136f0818761349b565b905082810360a0840152613704818661349b565b905082810360c08401526137188185613101565b9a9950505050505050505050565b602081525f612dee60208301846131bc565b5f805f805f805f805f805f60c08c8e031215613752575f80fd5b6001600160401b03808d351115613767575f80fd5b6137748e8e358f01613305565b909c509a5060208d0135811015613789575f80fd5b6137998e60208f01358f01613305565b909a50985060408d01358110156137ae575f80fd5b6137be8e60408f01358f01613305565b909850965060608d01358110156137d3575f80fd5b6137e38e60608f01358f01613305565b909650945060808d0135935060a08d01358110156137ff575f80fd5b506138108d60a08e01358e01613305565b81935080925050509295989b509295989b9093969950565b5f6001820161384557634e487b7160e01b5f52601160045260245ffd5b5060010190565b634e487b7160e01b5f52604160045260245ffd5b634e487b7160e01b5f52603260045260245ffd5b6020808252601b908201527f5665696c5061793a204a6f6220646f6573206e6f742065786973740000000000604082015260600190565b60208082526023908201527f5665696c5061793a204170706c69636174696f6e20646f6573206e6f742065786040820152621a5cdd60ea1b606082015260800190565b60208082526019908201527f5665696c5061793a204e6f742074686520656d706c6f79657200000000000000604082015260600190565b600181811c9082168061393957607f821691505b60208210810361395757634e487b7160e01b5f52602260045260245ffd5b50919050565b60208082526028908201527f5665696c5061793a204e6f742061207061727469636970616e7420696e2074686040820152670d2e640dac2e8c6d60c31b606082015260800190565b601f8211156139ec57805f5260205f20601f840160051c810160208510156139ca5750805b601f840160051c820191505b818110156139e9575f81556001016139d6565b50505b505050565b81516001600160401b03811115613a0a57613a0a61384c565b613a1e81613a188454613925565b846139a5565b602080601f831160018114613a51575f8415613a3a5750858301515b5f19600386901b1c1916600185901b178555613aa8565b5f85815260208120601f198616915b82811015613a7f57888601518255948401946001909101908401613a60565b5085821015613a9c57878501515f19600388901b60f8161c191681555b505060018460011b0185555b505050505050565b81835281816020850137505f828201602090810191909152601f909101601f19169091010190565b604081525f613aeb604083018688613ab0565b8281036020840152613afe818587613ab0565b979650505050505050565b60548110613b2557634e487b7160e01b5f52602160045260245ffd5b9052565b8481526001600160a01b03841660208201526080604082018190525f90613b52908301856131bc565b9050613b616060830184613b09565b95945050505050565b5f60208284031215613b7a575f80fd5b5051919050565b82815260408101612dee6020830184613b0956fe9e7b61f58c47dc699ac88507c4f5bb9f121c03808c5676a8078fe583e4649700a2646970667358221220d4e542ba2b6a7f57b807f0330b1fd50b486d19285b5aa879969087e89ffcd7ef64736f6c63430008180033",
  "linkReferences": {},
  "deployedLinkReferences": {}
}