{
  "_format": "hh-sol-artifact-1",
  "contractName": "VeilPay",
  "sourceName": "contracts/VeilPay.sol",
  "abi": [
    {
      "inputs": [],
      "name": "ZamaProtocolUnsupported",
      "type": "error"
    },
    {
      "anonymous": false,
      "inputs": [
        {
          "indexed": true,
          "internalType": "uint256",
          "name": "jobId",
          "type": "uint256"
        },
        {
          "indexed": true,
          "internalType": "uint256",
          "name": "applicationId",
          "type": "uint256"
        }
      ],
      "name": "ApplicationResolved",
      "type": "event"
    },
    {
      "anonymous": false,
      "inputs": [
        {
          "indexed": true,
          "internalType": "uint256",
          "name": "jobId",
          "type": "uint256"
        },
        {
          "indexed": true,
          "internalType": "uint256",
          "name": "applicationId",
          "type": "uint256"
        },
        {
          "indexed": true,
          "internalType": "address",
          "name": "candidate",
          "type": "address"
        }
      ],
      "name": "ApplicationSubmitted",
      "type": "event"
    },
    {
      "anonymous": false,
      "inputs": [
        {
          "indexed": true,
          "internalType": "uint256",
          "name": "jobId",
          "type": "uint256"
        }
      ],
      "name": "JobClosed",
      "type": "event"
    },
    {
      "anonymous": false,
      "inputs": [
        {
          "indexed": true,
          "internalType": "uint256",
          "name": "jobId",
          "type": "uint256"
        },
        {
          "indexed": true,
          "internalType": "address",
          "name": "employer",
          "type": "address"
        },
        {
          "indexed": false,
          "internalType": "string",
          "name": "title",
          "type": "string"
        },
        {
          "indexed": false,
          "internalType": "string",
          "name": "company",
          "type": "string"
        }
      ],
      "name": "JobPosted",
      "type": "event"
    },
    {
      "anonymous": false,
      "inputs": [
        {
          "indexed": true,
          "internalType": "uint256",
          "name": "jobId",
          "type": "uint256"
        },
        {
          "indexed": true,
          "internalType": "uint256",
          "name": "applicationId",
          "type": "uint256"
        },
        {
          "indexed": false,
          "internalType": "bool",
          "name": "isMatch",
          "type": "bool"
        }
      ],
      "name": "MatchRevealed",
      "type": "event"
    },
    {
      "anonymous": false,
      "inputs": [
        {
          "indexed": true,
          "internalType": "uint256",
          "name": "jobId",
          "type": "uint256"
        },
        {
          "indexed": true,
          "internalType": "uint256",
          "name": "applicationId",
          "type": "uint256"
        },
        {
          "indexed": true,
          "internalType": "address",
          "name": "sender",
          "type": "address"
        },
        {
          "indexed": false,
          "internalType": "uint256",
          "name": "messageIndex",
          "type": "uint256"
        }
      ],
      "name": "MessageSent",
      "type": "event"
    },
    {
      "anonymous": false,
      "inputs": [
        {
          "indexed": true,
          "internalType": "uint256",
          "name": "jobId",
          "type": "uint256"
        },
        {
          "indexed": true,
          "internalType": "uint256",
          "name": "applicationId",
          "type": "uint256"
        },
        {
          "indexed": true,
          "internalType": "address",
          "name": "employer",
          "type": "address"
        }
      ],
      "name": "ResumeUnlocked",
      "type": "event"
    },
    {
      "inputs": [
        {
          "internalType": "uint256",
          "name": "",
          "type": "uint256"
        },
        {
          "internalType": "uint256",
          "name": "",
          "type": "uint256"
        }
      ],
      "name": "applications",
      "outputs": [
        {
          "internalType": "address",
          "name": "candidate",
          "type": "address"
        },
        {
          "internalType": "string",
          "name": "candidateName",
          "type": "string"
        },
        {
          "internalType": "string",
          "name": "resumeIpfsCid",
          "type": "string"
        },
        {
          "internalType": "euint64",
          "name": "min_expectation",
          "type": "bytes32"
        },
        {
          "internalType": "ebool",
          "name": "isMatched",
          "type": "bytes32"
        },
        {
          "internalType": "bool",
          "name": "matchRevealed",
          "type": "bool"
        },
        {
          "internalType": "bool",
          "name": "matchResult",
          "type": "bool"
        },
        {
          "internalType": "bool",
          "name": "resumeUnlocked",
          "type": "bool"
        },
        {
          "internalType": "uint256",
          "name": "appliedAt",
          "type": "uint256"
        }
      ],
      "stateMutability": "view",
      "type": "function"
    },
    {
      "inputs": [
        {
          "internalType": "uint256",
          "name": "jobId",
          "type": "uint256"
        },
        {
          "internalType": "string",
          "name": "candidateName",
          "type": "string"
        },
        {
          "internalType": "string",
          "name": "resumeIpfsCid",
          "type": "string"
        },
        {
          "internalType": "bytes32",
          "name": "encryptedExpectation",
          "type": "bytes32"
        },
        {
          "internalType": "bytes",
          "name": "inputProof",
          "type": "bytes"
        }
      ],
      "name": "applyToJob",
      "outputs": [
        {
          "internalType": "uint256",
          "name": "applicationId",
          "type": "uint256"
        }
      ],
      "stateMutability": "nonpayable",
      "type": "function"
    },
    {
      "inputs": [
        {
          "internalType": "address",
          "name": "",
          "type": "address"
        },
        {
          "internalType": "uint256",
          "name": "",
          "type": "uint256"
        }
      ],
      "name": "candidateApplicationId",
      "outputs": [
        {
          "internalType": "uint256",
          "name": "",
          "type": "uint256"
        }
      ],
      "stateMutability": "view",
      "type": "function"
    },
    {
      "inputs": [
        {
          "internalType": "address",
          "name": "",
          "type": "address"
        },
        {
          "internalType": "uint256",
          "name": "",
          "type": "uint256"
        }
      ],
      "name": "candidateJobIds",
      "outputs": [
        {
          "internalType": "uint256",
          "name": "",
          "type": "uint256"
        }
      ],
      "stateMutability": "view",
      "type": "function"
    },
    {
      "inputs": [
        {
          "internalType": "uint256",
          "name": "jobId",
          "type": "uint256"
        }
      ],
      "name": "closeJob",
      "outputs": [],
      "stateMutability": "nonpayable",
      "type": "function"
    },
    {
      "inputs": [],
      "name": "confidentialProtocolId",
      "outputs": [
        {
          "internalType": "uint256",
          "name": "",
          "type": "uint256"
        }
      ],
      "stateMutability": "view",
      "type": "function"
    },
    {
      "inputs": [
        {
          "internalType": "string",
          "name": "title",
          "type": "string"
        },
        {
          "internalType": "string",
          "name": "company",
          "type": "string"
        },
        {
          "internalType": "string",
          "name": "location",
          "type": "string"
        },
        {
          "internalType": "string",
          "name": "jobType",
          "type": "string"
        },
        {
          "internalType": "bytes32",
          "name": "encryptedBudget",
          "type": "bytes32"
        },
        {
          "internalType": "bytes",
          "name": "inputProof",
          "type": "bytes"
        }
      ],
      "name": "createJobPosting",
      "outputs": [
        {
          "internalType": "uint256",
          "name": "jobId",
          "type": "uint256"
        }
      ],
      "stateMutability": "nonpayable",
      "type": "function"
    },
    {
      "inputs": [],
      "name": "getActiveJobs",
      "outputs": [
        {
          "internalType": "uint256[]",
          "name": "ids",
          "type": "uint256[]"
        },
        {
          "internalType": "address[]",
          "name": "employers",
          "type": "address[]"
        },
        {
          "internalType": "string[]",
          "name": "titles",
          "type": "string[]"
        },
        {
          "internalType": "string[]",
          "name": "companies",
          "type": "string[]"
        },
        {
          "internalType": "string[]",
          "name": "locations",
          "type": "string[]"
        },
        {
          "internalType": "string[]",
          "name": "jobTypes",
          "type": "string[]"
        },
        {
          "internalType": "uint256[]",
          "name": "createdAts",
          "type": "uint256[]"
        },
        {
          "internalType": "uint256[]",
          "name": "applicationCounts",
          "type": "uint256[]"
        }
      ],
      "stateMutability": "view",
      "type": "function"
    },
    {
      "inputs": [
        {
          "internalType": "uint256",
          "name": "jobId",
          "type": "uint256"
        }
      ],
      "name": "getApplicationsForJob",
      "outputs": [
        {
          "internalType": "uint256[]",
          "name": "appIds",
          "type": "uint256[]"
        },
        {
          "internalType": "address[]",
          "name": "candidates",
          "type": "address[]"
        },
        {
          "internalType": "string[]",
          "name": "names",
          "type": "string[]"
        },
        {
          "internalType": "bool[]",
          "name": "matchRevealeds",
          "type": "bool[]"
        },
        {
          "internalType": "bool[]",
          "name": "matchResults",
          "type": "bool[]"
        },
        {
          "internalType": "bool[]",
          "name": "resumeUnlockeds",
          "type": "bool[]"
        },
        {
          "internalType": "uint256[]",
          "name": "appliedAts",
          "type": "uint256[]"
        }
      ],
      "stateMutability": "view",
      "type": "function"
    },
    {
      "inputs": [
        {
          "internalType": "address",
          "name": "employer",
          "type": "address"
        }
      ],
      "name": "getJobsByEmployer",
      "outputs": [
        {
          "internalType": "uint256[]",
          "name": "jobIds",
          "type": "uint256[]"
        }
      ],
      "stateMutability": "view",
      "type": "function"
    },
    {
      "inputs": [
        {
          "internalType": "uint256",
          "name": "jobId",
          "type": "uint256"
        },
        {
          "internalType": "uint256",
          "name": "applicationId",
          "type": "uint256"
        }
      ],
      "name": "getMessageCount",
      "outputs": [
        {
          "internalType": "uint256",
          "name": "",
          "type": "uint256"
        }
      ],
      "stateMutability": "view",
      "type": "function"
    },
    {
      "inputs": [
        {
          "internalType": "uint256",
          "name": "jobId",
          "type": "uint256"
        },
        {
          "internalType": "uint256",
          "name": "applicationId",
          "type": "uint256"
        }
      ],
      "name": "getMessages",
      "outputs": [
        {
          "internalType": "address[]",
          "name": "senders",
          "type": "address[]"
        },
        {
          "internalType": "string[]",
          "name": "contents",
          "type": "string[]"
        },
        {
          "internalType": "uint256[]",
          "name": "timestamps",
          "type": "uint256[]"
        }
      ],
      "stateMutability": "view",
      "type": "function"
    },
    {
      "inputs": [],
      "name": "getMyApplications",
      "outputs": [
        {
          "internalType": "uint256[]",
          "name": "jobIds",
          "type": "uint256[]"
        },
        {
          "internalType": "uint256[]",
          "name": "appIds",
          "type": "uint256[]"
        },
        {
          "internalType": "string[]",
          "name": "titles",
          "type": "string[]"
        },
        {
          "internalType": "string[]",
          "name": "companies",
          "type": "string[]"
        },
        {
          "internalType": "bool[]",
          "name": "matchRevealeds",
          "type": "bool[]"
        },
        {
          "internalType": "bool[]",
          "name": "matchResults",
          "type": "bool[]"
        },
        {
          "internalType": "uint256[]",
          "name": "appliedAts",
          "type": "uint256[]"
        }
      ],
      "stateMutability": "view",
      "type": "function"
    },
    {
      "inputs": [
        {
          "internalType": "uint256",
          "name": "jobId",
          "type": "uint256"
        },
        {
          "internalType": "uint256",
          "name": "applicationId",
          "type": "uint256"
        }
      ],
      "name": "getResumeIfUnlocked",
      "outputs": [
        {
          "internalType": "string",
          "name": "ipfsCid",
          "type": "string"
        }
      ],
      "stateMutability": "view",
      "type": "function"
    },
    {
      "inputs": [
        {
          "internalType": "uint256",
          "name": "",
          "type": "uint256"
        },
        {
          "internalType": "uint256",
          "name": "",
          "type": "uint256"
        }
      ],
      "name": "jobApplicationIds",
      "outputs": [
        {
          "internalType": "uint256",
          "name": "",
          "type": "uint256"
        }
      ],
      "stateMutability": "view",
      "type": "function"
    },
    {
      "inputs": [],
      "name": "jobCount",
      "outputs": [
        {
          "internalType": "uint256",
          "name": "",
          "type": "uint256"
        }
      ],
      "stateMutability": "view",
      "type": "function"
    },
    {
      "inputs": [
        {
          "internalType": "uint256",
          "name": "",
          "type": "uint256"
        }
      ],
      "name": "jobPostings",
      "outputs": [
        {
          "internalType": "address",
          "name": "employer",
          "type": "address"
        },
        {
          "internalType": "string",
          "name": "title",
          "type": "string"
        },
        {
          "internalType": "string",
          "name": "company",
          "type": "string"
        },
        {
          "internalType": "string",
          "name": "location",
          "type": "string"
        },
        {
          "internalType": "string",
          "name": "jobType",
          "type": "string"
        },
        {
          "internalType": "euint64",
          "name": "max_budget",
          "type": "bytes32"
        },
        {
          "internalType": "bool",
          "name": "isActive",
          "type": "bool"
        },
        {
          "internalType": "bool",
          "name": "isResolved",
          "type": "bool"
        },
        {
          "internalType": "uint256",
          "name": "createdAt",
          "type": "uint256"
        },
        {
          "internalType": "uint256",
          "name": "applicationCount",
          "type": "uint256"
        }
      ],
      "stateMutability": "view",
      "type": "function"
    },
    {
      "inputs": [
        {
          "internalType": "uint256",
          "name": "jobId",
          "type": "uint256"
        },
        {
          "internalType": "uint256",
          "name": "applicationId",
          "type": "uint256"
        }
      ],
      "name": "resolveApplication",
      "outputs": [],
      "stateMutability": "nonpayable",
      "type": "function"
    },
    {
      "inputs": [
        {
          "internalType": "uint256",
          "name": "jobId",
          "type": "uint256"
        },
        {
          "internalType": "uint256",
          "name": "applicationId",
          "type": "uint256"
        }
      ],
      "name": "revealMatchResult",
      "outputs": [],
      "stateMutability": "nonpayable",
      "type": "function"
    },
    {
      "inputs": [
        {
          "internalType": "uint256",
          "name": "jobId",
          "type": "uint256"
        },
        {
          "internalType": "uint256",
          "name": "applicationId",
          "type": "uint256"
        },
        {
          "internalType": "string",
          "name": "content",
          "type": "string"
        }
      ],
      "name": "sendMessage",
      "outputs": [],
      "stateMutability": "nonpayable",
      "type": "function"
    },
    {
      "inputs": [
        {
          "internalType": "uint256",
          "name": "jobId",
          "type": "uint256"
        },
        {
          "internalType": "uint256",
          "name": "applicationId",
          "type": "uint256"
        }
      ],
      "name": "unlockResume",
      "outputs": [],
      "stateMutability": "nonpayable",
      "type": "function"
    }
  ],
  "bytecode": "0x608060405234801562000010575f80fd5b50620000c86200001f620000ce565b80517f9e7b61f58c47dc699ac88507c4f5bb9f121c03808c5676a8078fe583e464970080546001600160a01b03199081166001600160a01b039384161790915560208301517f9e7b61f58c47dc699ac88507c4f5bb9f121c03808c5676a8078fe583e46497018054831691841691909117905560408301517f9e7b61f58c47dc699ac88507c4f5bb9f121c03808c5676a8078fe583e46497028054909216921691909117905550565b62000280565b604080516060810182525f80825260208201819052918101919091524660010362000168575060408051606080820183525f8083526020808401829052928401528251908101835273ca2e8f1f656cd25c01f05d0b243ab1ecd4a8ffb6815273d82385dada1ae3e969447f20a3164f6213100e75918101919091527377627828a55156b04ac0dc0eb30467f1a552bb039181019190915290565b4662aa36a703620001e8575060408051606080820183525f8083526020808401829052928401528251908101835273f0ffdc93b7e186bc2f8cb3daa75d86d1930a433d81527392c920834ec8941d2c77d188936e1f7a6f49c1279181019190915273be0e383937d564d7ff0bc3b46c51f0bf8d5c311a9181019190915290565b46617a690362000267575060408051606080820183525f808352602080840182905292840152825190810183527350157cffd6bbfa2dece204a89ec419c23ef5755d815273e3a9105a3a932253a70f126eb1e3b589c643dd249181019190915273901f8942346f7ab3a01f6d7613119bca447bb0309181019190915290565b6040516373cac13b60e01b815260040160405180910390fd5b613b3a806200028e5f395ff3fe608060405234801561000f575f80fd5b5060043610610132575f3560e01c80634d91e57d116100b4578063853aff9111610079578063853aff91146102db57806388012568146102f65780638927b030146103165780639950c2a31461031e578063ca916b2714610331578063ce71fbbe14610344575f80fd5b80634d91e57d1461023e578063558ee6a8146102645780635d74ed7314610277578063622359b91461028a5780637a870b63146102b3575f80fd5b80633c1ef6c4116100fa5780633c1ef6c4146101c45780633deac9f3146101ee5780634be8362d146102015780634c5d8a0f146102235780634d5a32781461022b575f80fd5b8063129de6e5146101365780631772973b1461015f5780631e01abca1461018057806337597cb51461019557806339561dba146101b1575b5f80fd5b61014961014436600461306d565b610357565b60405161015691906130c0565b60405180910390f35b61017261016d3660046130d2565b610447565b604051908152602001610156565b61019361018e3660046130f2565b6104c5565b005b61019d610561565b6040516101569897969594939291906131dc565b6101936101bf3660046132ce565b610b8f565b6101726101d236600461331c565b600560209081525f928352604080842090915290825290205481565b6101726101fc366004613344565b610df4565b61021461020f3660046130d2565b611262565b604051610156939291906133e8565b6101725f5481565b61017261023936600461331c565b6115fb565b61025161024c3660046130f2565b611626565b6040516101569796959493929190613451565b6101936102723660046130d2565b611a84565b6101936102853660046130d2565b611bda565b61029d6102983660046130f2565b611d32565b6040516101569a999897969594939291906134e7565b6102c66102c13660046130d2565b611faa565b60405161015699989796959493929190613577565b6102e361211c565b60405161015697969594939291906135e6565b6103096103043660046130d2565b612623565b6040516101569190613632565b6101726127ba565b61017261032c366004613644565b6127c8565b61019361033f3660046130d2565b612a85565b6101726103523660046130d2565b612bcf565b60605f805b5f5481101561039b575f818152600160205260409020546001600160a01b03808616911603610393578161038f81613734565b9250505b60010161035c565b50806001600160401b038111156103b4576103b4613758565b6040519080825280602002602001820160405280156103dd578160200160208202803683370190505b5091505f805b5f5481101561043f575f818152600160205260409020546001600160a01b038087169116036104375780848361041881613734565b94508151811061042a5761042a61376c565b6020026020010181815250505b6001016103e3565b505050919050565b5f825f5481106104725760405162461bcd60e51b815260040161046990613780565b60405180910390fd5b5f848152600160205260409020600801548490849081106104a55760405162461bcd60e51b8152600401610469906137b7565b5050505f9283525060066020908152604080842092845291905290205490565b805f5481106104e65760405162461bcd60e51b815260040161046990613780565b5f8281526001602052604090205482906001600160a01b0316331461051d5760405162461bcd60e51b8152600401610469906137fa565b5f83815260016020526040808220600601805460ff191690555184917f6edf0875f8a9ed26275e4e52f2355d96ea7fd96625d6992a9733be603136fa6e91a2505050565b6060806060806060806060805f805b5f548110156105a8575f8181526001602052604090206006015460ff16156105a0578161059c81613734565b9250505b600101610570565b50806001600160401b038111156105c1576105c1613758565b6040519080825280602002602001820160405280156105ea578160200160208202803683370190505b509850806001600160401b0381111561060557610605613758565b60405190808252806020026020018201604052801561062e578160200160208202803683370190505b509750806001600160401b0381111561064957610649613758565b60405190808252806020026020018201604052801561067c57816020015b60608152602001906001900390816106675790505b509650806001600160401b0381111561069757610697613758565b6040519080825280602002602001820160405280156106ca57816020015b60608152602001906001900390816106b55790505b509550806001600160401b038111156106e5576106e5613758565b60405190808252806020026020018201604052801561071857816020015b60608152602001906001900390816107035790505b509450806001600160401b0381111561073357610733613758565b60405190808252806020026020018201604052801561076657816020015b60608152602001906001900390816107515790505b509350806001600160401b0381111561078157610781613758565b6040519080825280602002602001820160405280156107aa578160200160208202803683370190505b509250806001600160401b038111156107c5576107c5613758565b6040519080825280602002602001820160405280156107ee578160200160208202803683370190505b5091505f805b5f54811015610b82575f8181526001602052604090206006015460ff1615610b7a575f8181526001602052604090208b5182908d90859081106108395761083961376c565b602090810291909101015280548b516001600160a01b03909116908c90859081106108665761086661376c565b60200260200101906001600160a01b031690816001600160a01b03168152505080600101805461089590613831565b80601f01602080910402602001604051908101604052809291908181526020018280546108c190613831565b801561090c5780601f106108e35761010080835404028352916020019161090c565b820191905f5260205f20905b8154815290600101906020018083116108ef57829003601f168201915b50505050508a84815181106109235761092361376c565b602002602001018190525080600201805461093d90613831565b80601f016020809104026020016040519081016040528092919081815260200182805461096990613831565b80156109b45780601f1061098b576101008083540402835291602001916109b4565b820191905f5260205f20905b81548152906001019060200180831161099757829003601f168201915b50505050508984815181106109cb576109cb61376c565b60200260200101819052508060030180546109e590613831565b80601f0160208091040260200160405190810160405280929190818152602001828054610a1190613831565b8015610a5c5780601f10610a3357610100808354040283529160200191610a5c565b820191905f5260205f20905b815481529060010190602001808311610a3f57829003601f168201915b5050505050888481518110610a7357610a7361376c565b6020026020010181905250806004018054610a8d90613831565b80601f0160208091040260200160405190810160405280929190818152602001828054610ab990613831565b8015610b045780601f10610adb57610100808354040283529160200191610b04565b820191905f5260205f20905b815481529060010190602001808311610ae757829003601f168201915b5050505050878481518110610b1b57610b1b61376c565b60200260200101819052508060070154868481518110610b3d57610b3d61376c565b6020026020010181815250508060080154858481518110610b6057610b6061376c565b602090810291909101015282610b7581613734565b935050505b6001016107f4565b5050509091929394959697565b835f548110610bb05760405162461bcd60e51b815260040161046990613780565b5f85815260016020526040902060080154859085908110610be35760405162461bcd60e51b8152600401610469906137b7565b5f87815260026020908152604080832089845282528083208a84526001909252909120600582015460ff168015610c2357506005820154610100900460ff165b610c6f5760405162461bcd60e51b815260206004820152601f60248201527f5665696c5061793a204e6f20636f6e6669726d656420464845206d61746368006044820152606401610469565b80546001600160a01b0316331480610c90575081546001600160a01b031633145b610cac5760405162461bcd60e51b815260040161046990613869565b85610cf25760405162461bcd60e51b81526020600482015260166024820152755665696c5061793a20456d707479206d65737361676560501b6044820152606401610469565b5f8981526006602090815260408083208b8452825291829020805483516060810185523381528451601f8c018590048502810185019095528a8552909391929091828201918c908c90819084018382808284375f9201829052509385525050426020938401525083546001808201865594825290829020835160039092020180546001600160a01b0319166001600160a01b03909216919091178155908201519192909190820190610da490826138fd565b506040918201516002909101555181815233908a908c907f402a45bf1deda6d11334ec5ba68b3cfb7b6d0066d03a8abb09996fd18cffa8659060200160405180910390a450505050505050505050565b5f885f548110610e165760405162461bcd60e51b815260040161046990613780565b5f8a8152600160205260409020600601548a9060ff16610e785760405162461bcd60e51b815260206004820152601a60248201527f5665696c5061793a204a6f62206973206e6f74206163746976650000000000006044820152606401610469565b335f9081526005602090815260408083208e8452909152902054158015610ed857505f8b81526003602052604090205415801590610ed657505f8b81526002602090815260408083208380529091529020546001600160a01b031633145b155b610f245760405162461bcd60e51b815260206004820152601860248201527f5665696c5061793a20416c7265616479206170706c69656400000000000000006044820152606401610469565b5f8b8152600160205260408120600801805491610f4083613734565b9190505592505f610f898787878080601f0160208091040260200160405190810160405280939291908181526020018383808284375f9201919091525060059250612be8915050565b9050610f9481612cf5565b505f610f9f5f612d15565b9050610faa81612d36565b50604051806101200160405280336001600160a01b031681526020018d8d8080601f0160208091040260200160405190810160405280939291908181526020018383808284375f92019190915250505090825250604080516020601f8e018190048102820181019092528c815291810191908d908d90819084018382808284375f81840152601f19601f8201169050808301925050505050505081526020018381526020018281526020015f151581526020015f151581526020015f151581526020014281525060025f8f81526020019081526020015f205f8781526020019081526020015f205f820151815f015f6101000a8154816001600160a01b0302191690836001600160a01b0316021790555060208201518160010190816110d091906138fd565b50604082015160028201906110e590826138fd565b50606082015181600301556080820151816004015560a0820151816005015f6101000a81548160ff02191690831515021790555060c08201518160050160016101000a81548160ff02191690831515021790555060e08201518160050160026101000a81548160ff021916908315150217905550610100820151816006015590505060035f8e81526020019081526020015f2085908060018154018082558091505060019003905f5260205f20015f909190919091505560045f336001600160a01b03166001600160a01b031681526020019081526020015f208d908060018154018082558091505060019003905f5260205f20015f90919091909150558460055f336001600160a01b03166001600160a01b031681526020019081526020015f205f8f81526020019081526020015f2081905550336001600160a01b0316858e7ffdb73f695bc6f43d03128339b6d99121833f5cb8d65f8cb3ffc6abe2e08a0a5b60405160405180910390a45050505098975050505050505050565b6060806060845f5481106112885760405162461bcd60e51b815260040161046990613780565b5f868152600160205260409020600801548690869081106112bb5760405162461bcd60e51b8152600401610469906137b7565b5f8881526002602090815260408083208a845282528083208b84526001909252909120600582015460ff1680156112fb57506005820154610100900460ff165b6113475760405162461bcd60e51b815260206004820152601f60248201527f5665696c5061793a204e6f20636f6e6669726d656420464845206d61746368006044820152606401610469565b80546001600160a01b0316331480611368575081546001600160a01b031633145b6113845760405162461bcd60e51b815260040161046990613869565b5f8a81526006602090815260408083208c845290915290208054806001600160401b038111156113b6576113b6613758565b6040519080825280602002602001820160405280156113df578160200160208202803683370190505b509950806001600160401b038111156113fa576113fa613758565b60405190808252806020026020018201604052801561142d57816020015b60608152602001906001900390816114185790505b509850806001600160401b0381111561144857611448613758565b604051908082528060200260200182016040528015611471578160200160208202803683370190505b5097505f5b818110156115ec578281815481106114905761149061376c565b5f9182526020909120600390910201548b516001600160a01b03909116908c90839081106114c0576114c061376c565b60200260200101906001600160a01b031690816001600160a01b0316815250508281815481106114f2576114f261376c565b905f5260205f209060030201600101805461150c90613831565b80601f016020809104026020016040519081016040528092919081815260200182805461153890613831565b80156115835780601f1061155a57610100808354040283529160200191611583565b820191905f5260205f20905b81548152906001019060200180831161156657829003601f168201915b50505050508a828151811061159a5761159a61376c565b60200260200101819052508281815481106115b7576115b761376c565b905f5260205f209060030201600201548982815181106115d9576115d961376c565b6020908102919091010152600101611476565b50505050505050509250925092565b6004602052815f5260405f208181548110611614575f80fd5b905f5260205f20015f91509150505481565b6060806060806060806060875f5481106116525760405162461bcd60e51b815260040161046990613780565b5f8981526001602052604090205489906001600160a01b031633146116895760405162461bcd60e51b8152600401610469906137fa565b5f8a815260016020526040902060080154806001600160401b038111156116b2576116b2613758565b6040519080825280602002602001820160405280156116db578160200160208202803683370190505b509950806001600160401b038111156116f6576116f6613758565b60405190808252806020026020018201604052801561171f578160200160208202803683370190505b509850806001600160401b0381111561173a5761173a613758565b60405190808252806020026020018201604052801561176d57816020015b60608152602001906001900390816117585790505b509750806001600160401b0381111561178857611788613758565b6040519080825280602002602001820160405280156117b1578160200160208202803683370190505b509650806001600160401b038111156117cc576117cc613758565b6040519080825280602002602001820160405280156117f5578160200160208202803683370190505b509550806001600160401b0381111561181057611810613758565b604051908082528060200260200182016040528015611839578160200160208202803683370190505b509450806001600160401b0381111561185457611854613758565b60405190808252806020026020018201604052801561187d578160200160208202803683370190505b5093505f5b81811015611a75575f8c815260026020908152604080832084845290915290208b5182908d90829081106118b8576118b861376c565b602090810291909101015280548b516001600160a01b03909116908c90849081106118e5576118e561376c565b60200260200101906001600160a01b031690816001600160a01b03168152505080600101805461191490613831565b80601f016020809104026020016040519081016040528092919081815260200182805461194090613831565b801561198b5780601f106119625761010080835404028352916020019161198b565b820191905f5260205f20905b81548152906001019060200180831161196e57829003601f168201915b50505050508a83815181106119a2576119a261376c565b60209081029190910101526005810154895160ff909116908a90849081106119cc576119cc61376c565b6020026020010190151590811515815250508060050160019054906101000a900460ff16888381518110611a0257611a0261376c565b6020026020010190151590811515815250508060050160029054906101000a900460ff16878381518110611a3857611a3861376c565b6020026020010190151590811515815250508060060154868381518110611a6157611a6161376c565b602090810291909101015250600101611882565b50505050919395979092949650565b815f548110611aa55760405162461bcd60e51b815260040161046990613780565b5f83815260016020526040902060080154839083908110611ad85760405162461bcd60e51b8152600401610469906137b7565b5f8581526001602052604090205485906001600160a01b03163314611b0f5760405162461bcd60e51b8152600401610469906137fa565b5f8681526002602090815260408083208884529091529020600581015460ff168015611b4457506005810154610100900460ff165b611b905760405162461bcd60e51b815260206004820152601b60248201527f5665696c5061793a204e6f20636f6e6669726d6564206d6174636800000000006044820152606401610469565b60058101805462ff00001916620100001790556040513390879089907fd9c67b23e0903b466cca5aa7664734499e4c82bbeb358ea2eb592f06d52c83fa905f90a450505050505050565b815f548110611bfb5760405162461bcd60e51b815260040161046990613780565b5f83815260016020526040902060080154839083908110611c2e5760405162461bcd60e51b8152600401610469906137b7565b5f85815260026020908152604080832087845282528083208884526001909252909120600582015460ff1615611cb55760405162461bcd60e51b815260206004820152602660248201527f5665696c5061793a20416c7265616479207265736f6c76656420616e642072656044820152651d99585b195960d21b6064820152608401610469565b5f611cc883600301548360050154612d45565b600484018190559050611cda81612d36565b508154611cf19082906001600160a01b0316612d7a565b50611cfb81612d9d565b50604051879089907faa8bbadb289a5d836c5a29b62b1e26336926974e58e77b4ab5840cd8ca90a126905f90a35050505050505050565b600160208190525f9182526040909120805491810180546001600160a01b0390931692611d5e90613831565b80601f0160208091040260200160405190810160405280929190818152602001828054611d8a90613831565b8015611dd55780601f10611dac57610100808354040283529160200191611dd5565b820191905f5260205f20905b815481529060010190602001808311611db857829003601f168201915b505050505090806002018054611dea90613831565b80601f0160208091040260200160405190810160405280929190818152602001828054611e1690613831565b8015611e615780601f10611e3857610100808354040283529160200191611e61565b820191905f5260205f20905b815481529060010190602001808311611e4457829003601f168201915b505050505090806003018054611e7690613831565b80601f0160208091040260200160405190810160405280929190818152602001828054611ea290613831565b8015611eed5780601f10611ec457610100808354040283529160200191611eed565b820191905f5260205f20905b815481529060010190602001808311611ed057829003601f168201915b505050505090806004018054611f0290613831565b80601f0160208091040260200160405190810160405280929190818152602001828054611f2e90613831565b8015611f795780601f10611f5057610100808354040283529160200191611f79565b820191905f5260205f20905b815481529060010190602001808311611f5c57829003601f168201915b5050506005840154600685015460078601546008909601549495919460ff808316955061010090920490911692508a565b600260209081525f9283526040808420909152908252902080546001820180546001600160a01b039092169291611fe090613831565b80601f016020809104026020016040519081016040528092919081815260200182805461200c90613831565b80156120575780601f1061202e57610100808354040283529160200191612057565b820191905f5260205f20905b81548152906001019060200180831161203a57829003601f168201915b50505050509080600201805461206c90613831565b80601f016020809104026020016040519081016040528092919081815260200182805461209890613831565b80156120e35780601f106120ba576101008083540402835291602001916120e3565b820191905f5260205f20905b8154815290600101906020018083116120c657829003601f168201915b5050506003840154600485015460058601546006909601549495919490935060ff80831693506101008304811692620100009004169089565b60608060608060608060605f60045f336001600160a01b03166001600160a01b031681526020019081526020015f2080548060200260200160405190810160405280929190818152602001828054801561219357602002820191905f5260205f20905b81548152602001906001019080831161217f575b5050835193945083925050506001600160401b038111156121b6576121b6613758565b6040519080825280602002602001820160405280156121df578160200160208202803683370190505b509850806001600160401b038111156121fa576121fa613758565b604051908082528060200260200182016040528015612223578160200160208202803683370190505b509750806001600160401b0381111561223e5761223e613758565b60405190808252806020026020018201604052801561227157816020015b606081526020019060019003908161225c5790505b509650806001600160401b0381111561228c5761228c613758565b6040519080825280602002602001820160405280156122bf57816020015b60608152602001906001900390816122aa5790505b509550806001600160401b038111156122da576122da613758565b604051908082528060200260200182016040528015612303578160200160208202803683370190505b509450806001600160401b0381111561231e5761231e613758565b604051908082528060200260200182016040528015612347578160200160208202803683370190505b509350806001600160401b0381111561236257612362613758565b60405190808252806020026020018201604052801561238b578160200160208202803683370190505b5092505f5b81811015612617575f8382815181106123ab576123ab61376c565b602090810291909101810151335f908152600583526040808220838352845280822054600285528183208184528552818320848452600190955291208e5192945090929184908f90879081106124035761240361376c565b602002602001018181525050828d86815181106124225761242261376c565b60200260200101818152505080600101805461243d90613831565b80601f016020809104026020016040519081016040528092919081815260200182805461246990613831565b80156124b45780601f1061248b576101008083540402835291602001916124b4565b820191905f5260205f20905b81548152906001019060200180831161249757829003601f168201915b50505050508c86815181106124cb576124cb61376c565b60200260200101819052508060020180546124e590613831565b80601f016020809104026020016040519081016040528092919081815260200182805461251190613831565b801561255c5780601f106125335761010080835404028352916020019161255c565b820191905f5260205f20905b81548152906001019060200180831161253f57829003601f168201915b50505050508b86815181106125735761257361376c565b602090810291909101015260058201548a5160ff909116908b908790811061259d5761259d61376c565b6020026020010190151590811515815250508160050160019054906101000a900460ff168986815181106125d3576125d361376c565b60200260200101901515908115158152505081600601548886815181106125fc576125fc61376c565b60209081029190910101525050600190920191506123909050565b50505090919293949596565b6060825f5481106126465760405162461bcd60e51b815260040161046990613780565b5f848152600160205260409020600801548490849081106126795760405162461bcd60e51b8152600401610469906137b7565b5f8681526001602052604090205486906001600160a01b031633146126b05760405162461bcd60e51b8152600401610469906137fa565b5f8781526002602090815260408083208984529091529020600581015462010000900460ff166127225760405162461bcd60e51b815260206004820181905260248201527f5665696c5061793a20526573756d65206e6f742079657420756e6c6f636b65646044820152606401610469565b80600201805461273190613831565b80601f016020809104026020016040519081016040528092919081815260200182805461275d90613831565b80156127a85780601f1061277f576101008083540402835291602001916127a8565b820191905f5260205f20905b81548152906001019060200180831161278b57829003601f168201915b50505050509550505050505092915050565b5f6127c3612db8565b905090565b5f805481806127d683613734565b9190505590505f61281f8585858080601f0160208091040260200160405190810160405280939291908181526020018383808284375f9201919091525060059250612be8915050565b905061282a81612cf5565b50604051806101400160405280336001600160a01b031681526020018e8e8080601f0160208091040260200160405190810160405280939291908181526020018383808284375f92019190915250505090825250604080516020601f8f018190048102820181019092528d815291810191908e908e90819084018382808284375f92019190915250505090825250604080516020601f8d018190048102820181019092528b815291810191908c908c90819084018382808284375f92019190915250505090825250604080516020601f8b0181900481028201810190925289815291810191908a908a90819084018382808284375f9201829052509385525050506020808301859052600160408085018290526060850184905242608086015260a090940183905286835280825292909120835181546001600160a01b0319166001600160a01b0390911617815590830151909182019061298b90826138fd565b50604082015160028201906129a090826138fd565b50606082015160038201906129b590826138fd565b50608082015160048201906129ca90826138fd565b5060a0820151816005015560c0820151816006015f6101000a81548160ff02191690831515021790555060e08201518160060160016101000a81548160ff02191690831515021790555061010082015181600701556101208201518160080155905050336001600160a01b0316827f752f79388b35d90d4202940ffb0c752f318a347800decc9e4c322e2cec1b404a8f8f8f8f604051612a6d94939291906139e4565b60405180910390a3509b9a5050505050505050505050565b815f548110612aa65760405162461bcd60e51b815260040161046990613780565b5f83815260016020526040902060080154839083908110612ad95760405162461bcd60e51b8152600401610469906137b7565b5f8581526001602052604090205485906001600160a01b03163314612b105760405162461bcd60e51b8152600401610469906137fa565b5f8681526002602090815260408083208884529091529020600581015460ff1615612b7d5760405162461bcd60e51b815260206004820152601f60248201527f5665696c5061793a204d6174636820616c72656164792072657665616c6564006044820152606401610469565b60058101805461ffff191661010117905560405160018152869088907ffa71382ddfc4ee59159e8334f34a8aa254c10d048d8954a3b4f87a76982f72f09060200160405180910390a350505050505050565b6003602052815f5260405f208181548110611614575f80fd5b7f9e7b61f58c47dc699ac88507c4f5bb9f121c03808c5676a8078fe583e46497015460405163045fc19560e11b81525f915f80516020613ae5833981519152916001600160a01b03909116906308bf832a90612c4e908890339089908990600401613a35565b6020604051808303815f875af1158015612c6a573d5f803e3d5ffd5b505050506040513d601f19601f82011682018060405250810190612c8e9190613a76565b8154604051630f8e573b60e21b8152600481018390523360248201529193506001600160a01b031690633e395cec906044015f604051808303815f87803b158015612cd7575f80fd5b505af1158015612ce9573d5f803e3d5ffd5b50505050509392505050565b5f81612d0757612d045f612dec565b91505b612d118230612e01565b5090565b5f612d3082612d24575f612d27565b60015b60ff165f612e75565b92915050565b5f81612d0757612d045f612d15565b5f82612d5757612d545f612dec565b92505b81612d6857612d655f612dec565b91505b612d7383835f612f1f565b9392505050565b5f82612d8c57612d895f612d15565b92505b612d968383612e01565b5090919050565b5f81612daf57612dac5f612d15565b91505b612d1182612fd4565b5f46600103612dc75750600190565b4662aa36a703612dd8575061271190565b46617a6903612de757505f1990565b505f90565b5f612d30826001600160401b03166005612e75565b5f80516020613ae58339815191528054604051635ca4b5b160e11b8152600481018590526001600160a01b0384811660248301529091169063b9496b62906044015b5f604051808303815f87803b158015612e5a575f80fd5b505af1158015612e6c573d5f803e3d5ffd5b50505050505050565b7f9e7b61f58c47dc699ac88507c4f5bb9f121c03808c5676a8078fe583e464970154604051639cd07acb60e01b81525f915f80516020613ae5833981519152916001600160a01b0390911690639cd07acb90612ed79087908790600401613a8d565b6020604051808303815f875af1158015612ef3573d5f803e3d5ffd5b505050506040513d601f19601f82011682018060405250810190612f179190613a76565b949350505050565b5f808215612f325750600160f81b612f35565b505f5b5f5f80516020613ae58339815191526001810154604051631d44e90160e21b815260048101899052602481018890526001600160f81b0319851660448201529192506001600160a01b031690637513a404906064016020604051808303815f875af1158015612fa6573d5f803e3d5ffd5b505050506040513d601f19601f82011682018060405250810190612fca9190613a76565b9695505050505050565b6040805160018082528183019092525f80516020613ae5833981519152915f91906020808301908036833701905050905082815f815181106130185761301861376c565b60209081029190910101528154604051637d6e912360e11b81526001600160a01b039091169063fadd224690612e43908490600401613aa1565b80356001600160a01b0381168114613068575f80fd5b919050565b5f6020828403121561307d575f80fd5b612d7382613052565b5f815180845260208085019450602084015f5b838110156130b557815187529582019590820190600101613099565b509495945050505050565b602081525f612d736020830184613086565b5f80604083850312156130e3575f80fd5b50508035926020909101359150565b5f60208284031215613102575f80fd5b5035919050565b5f815180845260208085019450602084015f5b838110156130b55781516001600160a01b03168752958201959082019060010161311c565b5f81518084525f5b8181101561316557602081850181015186830182015201613149565b505f602082860101526020601f19601f83011685010191505092915050565b5f8282518085526020808601955060208260051b840101602086015f5b848110156131cf57601f198684030189526131bd838351613141565b988401989250908301906001016131a1565b5090979650505050505050565b5f6101008083526131ef8184018c613086565b90508281036020840152613203818b613109565b90508281036040840152613217818a613184565b9050828103606084015261322b8189613184565b9050828103608084015261323f8188613184565b905082810360a08401526132538187613184565b905082810360c08401526132678186613086565b905082810360e084015261327b8185613086565b9b9a5050505050505050505050565b5f8083601f84011261329a575f80fd5b5081356001600160401b038111156132b0575f80fd5b6020830191508360208285010111156132c7575f80fd5b9250929050565b5f805f80606085870312156132e1575f80fd5b843593506020850135925060408501356001600160401b03811115613304575f80fd5b6133108782880161328a565b95989497509550505050565b5f806040838503121561332d575f80fd5b61333683613052565b946020939093013593505050565b5f805f805f805f8060a0898b03121561335b575f80fd5b8835975060208901356001600160401b0380821115613378575f80fd5b6133848c838d0161328a565b909950975060408b013591508082111561339c575f80fd5b6133a88c838d0161328a565b909750955060608b0135945060808b01359150808211156133c7575f80fd5b506133d48b828c0161328a565b999c989b5096995094979396929594505050565b606081525f6133fa6060830186613109565b828103602084015261340c8186613184565b90508281036040840152612fca8185613086565b5f815180845260208085019450602084015f5b838110156130b5578151151587529582019590820190600101613433565b60e081525f61346360e083018a613086565b8281036020840152613475818a613109565b905082810360408401526134898189613184565b9050828103606084015261349d8188613420565b905082810360808401526134b18187613420565b905082810360a08401526134c58186613420565b905082810360c08401526134d98185613086565b9a9950505050505050505050565b6001600160a01b038b168152610140602082018190525f9061350b8382018d613141565b9050828103604084015261351f818c613141565b90508281036060840152613533818b613141565b90508281036080840152613547818a613141565b60a0840198909852505093151560c085015291151560e08401526101008301526101209091015295945050505050565b6001600160a01b038a168152610120602082018190525f9061359b8382018c613141565b905082810360408401526135af818b613141565b60608401999099525050608081019590955292151560a085015290151560c0840152151560e0830152610100909101529392505050565b60e081525f6135f860e083018a613086565b828103602084015261360a818a613086565b9050828103604084015261361e8189613184565b9050828103606084015261349d8188613184565b602081525f612d736020830184613141565b5f805f805f805f805f805f60c08c8e03121561365e575f80fd5b6001600160401b03808d351115613673575f80fd5b6136808e8e358f0161328a565b909c509a5060208d0135811015613695575f80fd5b6136a58e60208f01358f0161328a565b909a50985060408d01358110156136ba575f80fd5b6136ca8e60408f01358f0161328a565b909850965060608d01358110156136df575f80fd5b6136ef8e60608f01358f0161328a565b909650945060808d0135935060a08d013581101561370b575f80fd5b5061371c8d60a08e01358e0161328a565b81935080925050509295989b509295989b9093969950565b5f6001820161375157634e487b7160e01b5f52601160045260245ffd5b5060010190565b634e487b7160e01b5f52604160045260245ffd5b634e487b7160e01b5f52603260045260245ffd5b6020808252601b908201527f5665696c5061793a204a6f6220646f6573206e6f742065786973740000000000604082015260600190565b60208082526023908201527f5665696c5061793a204170706c69636174696f6e20646f6573206e6f742065786040820152621a5cdd60ea1b606082015260800190565b60208082526019908201527f5665696c5061793a204e6f742074686520656d706c6f79657200000000000000604082015260600190565b600181811c9082168061384557607f821691505b60208210810361386357634e487b7160e01b5f52602260045260245ffd5b50919050565b60208082526028908201527f5665696c5061793a204e6f742061207061727469636970616e7420696e2074686040820152670d2e640dac2e8c6d60c31b606082015260800190565b601f8211156138f857805f5260205f20601f840160051c810160208510156138d65750805b601f840160051c820191505b818110156138f5575f81556001016138e2565b50505b505050565b81516001600160401b0381111561391657613916613758565b61392a816139248454613831565b846138b1565b602080601f83116001811461395d575f84156139465750858301515b5f19600386901b1c1916600185901b1785556139b4565b5f85815260208120601f198616915b8281101561398b5788860151825594840194600190910190840161396c565b50858210156139a857878501515f19600388901b60f8161c191681555b505060018460011b0185555b505050505050565b81835281816020850137505f828201602090810191909152601f909101601f19169091010190565b604081525f6139f76040830186886139bc565b8281036020840152613a0a8185876139bc565b979650505050505050565b60548110613a3157634e487b7160e01b5f52602160045260245ffd5b9052565b8481526001600160a01b03841660208201526080604082018190525f90613a5e90830185613141565b9050613a6d6060830184613a15565b95945050505050565b5f60208284031215613a86575f80fd5b5051919050565b82815260408101612d736020830184613a15565b602080825282518282018190525f9190848201906040850190845b81811015613ad857835183529284019291840191600101613abc565b5090969550505050505056fe9e7b61f58c47dc699ac88507c4f5bb9f121c03808c5676a8078fe583e4649700a26469706673582212202e259105fb7837eb3afe2ffe925fe20dfb4b589754a12882e7cc53813948ca9064736f6c63430008180033",
  "linkReferences": {},
  "deployedLinkReferences": {}
}