{
  "_format": "hh-sol-artifact-1",
  "contractName": "BlindHire",
  "sourceName": "contracts/BlindHire.sol",
  "abi": [
    {
      "inputs": [],
      "name": "ZamaProtocolUnsupported",
      "type": "error"
    },
    {
      "anonymous": false,
      "inputs": [
        {
          "indexed": true,
          "internalType": "uint256",
          "name": "jobId",
          "type": "uint256"
        },
        {
          "indexed": true,
          "internalType": "uint256",
          "name": "applicationId",
          "type": "uint256"
        }
      ],
      "name": "ApplicationResolved",
      "type": "event"
    },
    {
      "anonymous": false,
      "inputs": [
        {
          "indexed": true,
          "internalType": "uint256",
          "name": "jobId",
          "type": "uint256"
        },
        {
          "indexed": true,
          "internalType": "uint256",
          "name": "applicationId",
          "type": "uint256"
        },
        {
          "indexed": true,
          "internalType": "address",
          "name": "candidate",
          "type": "address"
        }
      ],
      "name": "ApplicationSubmitted",
      "type": "event"
    },
    {
      "anonymous": false,
      "inputs": [
        {
          "indexed": true,
          "internalType": "uint256",
          "name": "jobId",
          "type": "uint256"
        }
      ],
      "name": "JobClosed",
      "type": "event"
    },
    {
      "anonymous": false,
      "inputs": [
        {
          "indexed": true,
          "internalType": "uint256",
          "name": "jobId",
          "type": "uint256"
        },
        {
          "indexed": true,
          "internalType": "address",
          "name": "employer",
          "type": "address"
        },
        {
          "indexed": false,
          "internalType": "string",
          "name": "title",
          "type": "string"
        },
        {
          "indexed": false,
          "internalType": "string",
          "name": "company",
          "type": "string"
        }
      ],
      "name": "JobPosted",
      "type": "event"
    },
    {
      "anonymous": false,
      "inputs": [
        {
          "indexed": true,
          "internalType": "uint256",
          "name": "jobId",
          "type": "uint256"
        },
        {
          "indexed": true,
          "internalType": "uint256",
          "name": "applicationId",
          "type": "uint256"
        },
        {
          "indexed": false,
          "internalType": "bool",
          "name": "isMatch",
          "type": "bool"
        }
      ],
      "name": "MatchRevealed",
      "type": "event"
    },
    {
      "anonymous": false,
      "inputs": [
        {
          "indexed": true,
          "internalType": "uint256",
          "name": "jobId",
          "type": "uint256"
        },
        {
          "indexed": true,
          "internalType": "uint256",
          "name": "applicationId",
          "type": "uint256"
        },
        {
          "indexed": true,
          "internalType": "address",
          "name": "sender",
          "type": "address"
        },
        {
          "indexed": false,
          "internalType": "uint256",
          "name": "messageIndex",
          "type": "uint256"
        }
      ],
      "name": "MessageSent",
      "type": "event"
    },
    {
      "anonymous": false,
      "inputs": [
        {
          "indexed": true,
          "internalType": "uint256",
          "name": "jobId",
          "type": "uint256"
        },
        {
          "indexed": true,
          "internalType": "uint256",
          "name": "applicationId",
          "type": "uint256"
        },
        {
          "indexed": true,
          "internalType": "address",
          "name": "employer",
          "type": "address"
        }
      ],
      "name": "ResumeUnlocked",
      "type": "event"
    },
    {
      "inputs": [
        {
          "internalType": "uint256",
          "name": "",
          "type": "uint256"
        },
        {
          "internalType": "uint256",
          "name": "",
          "type": "uint256"
        }
      ],
      "name": "applications",
      "outputs": [
        {
          "internalType": "address",
          "name": "candidate",
          "type": "address"
        },
        {
          "internalType": "string",
          "name": "candidateName",
          "type": "string"
        },
        {
          "internalType": "string",
          "name": "resumeIpfsCid",
          "type": "string"
        },
        {
          "internalType": "euint64",
          "name": "min_expectation",
          "type": "bytes32"
        },
        {
          "internalType": "ebool",
          "name": "isMatched",
          "type": "bytes32"
        },
        {
          "internalType": "bool",
          "name": "matchRevealed",
          "type": "bool"
        },
        {
          "internalType": "bool",
          "name": "matchResult",
          "type": "bool"
        },
        {
          "internalType": "bool",
          "name": "resumeUnlocked",
          "type": "bool"
        },
        {
          "internalType": "uint256",
          "name": "appliedAt",
          "type": "uint256"
        }
      ],
      "stateMutability": "view",
      "type": "function"
    },
    {
      "inputs": [
        {
          "internalType": "uint256",
          "name": "jobId",
          "type": "uint256"
        },
        {
          "internalType": "string",
          "name": "candidateName",
          "type": "string"
        },
        {
          "internalType": "string",
          "name": "resumeIpfsCid",
          "type": "string"
        },
        {
          "internalType": "bytes32",
          "name": "encryptedExpectation",
          "type": "bytes32"
        },
        {
          "internalType": "bytes",
          "name": "inputProof",
          "type": "bytes"
        }
      ],
      "name": "applyToJob",
      "outputs": [
        {
          "internalType": "uint256",
          "name": "applicationId",
          "type": "uint256"
        }
      ],
      "stateMutability": "nonpayable",
      "type": "function"
    },
    {
      "inputs": [
        {
          "internalType": "address",
          "name": "",
          "type": "address"
        },
        {
          "internalType": "uint256",
          "name": "",
          "type": "uint256"
        }
      ],
      "name": "candidateApplicationId",
      "outputs": [
        {
          "internalType": "uint256",
          "name": "",
          "type": "uint256"
        }
      ],
      "stateMutability": "view",
      "type": "function"
    },
    {
      "inputs": [
        {
          "internalType": "address",
          "name": "",
          "type": "address"
        },
        {
          "internalType": "uint256",
          "name": "",
          "type": "uint256"
        }
      ],
      "name": "candidateJobIds",
      "outputs": [
        {
          "internalType": "uint256",
          "name": "",
          "type": "uint256"
        }
      ],
      "stateMutability": "view",
      "type": "function"
    },
    {
      "inputs": [
        {
          "internalType": "uint256",
          "name": "jobId",
          "type": "uint256"
        }
      ],
      "name": "closeJob",
      "outputs": [],
      "stateMutability": "nonpayable",
      "type": "function"
    },
    {
      "inputs": [],
      "name": "confidentialProtocolId",
      "outputs": [
        {
          "internalType": "uint256",
          "name": "",
          "type": "uint256"
        }
      ],
      "stateMutability": "view",
      "type": "function"
    },
    {
      "inputs": [
        {
          "internalType": "string",
          "name": "title",
          "type": "string"
        },
        {
          "internalType": "string",
          "name": "company",
          "type": "string"
        },
        {
          "internalType": "string",
          "name": "location",
          "type": "string"
        },
        {
          "internalType": "string",
          "name": "jobType",
          "type": "string"
        },
        {
          "internalType": "bytes32",
          "name": "encryptedBudget",
          "type": "bytes32"
        },
        {
          "internalType": "bytes",
          "name": "inputProof",
          "type": "bytes"
        }
      ],
      "name": "createJobPosting",
      "outputs": [
        {
          "internalType": "uint256",
          "name": "jobId",
          "type": "uint256"
        }
      ],
      "stateMutability": "nonpayable",
      "type": "function"
    },
    {
      "inputs": [],
      "name": "getActiveJobs",
      "outputs": [
        {
          "internalType": "uint256[]",
          "name": "ids",
          "type": "uint256[]"
        },
        {
          "internalType": "address[]",
          "name": "employers",
          "type": "address[]"
        },
        {
          "internalType": "string[]",
          "name": "titles",
          "type": "string[]"
        },
        {
          "internalType": "string[]",
          "name": "companies",
          "type": "string[]"
        },
        {
          "internalType": "string[]",
          "name": "locations",
          "type": "string[]"
        },
        {
          "internalType": "string[]",
          "name": "jobTypes",
          "type": "string[]"
        },
        {
          "internalType": "uint256[]",
          "name": "createdAts",
          "type": "uint256[]"
        },
        {
          "internalType": "uint256[]",
          "name": "applicationCounts",
          "type": "uint256[]"
        }
      ],
      "stateMutability": "view",
      "type": "function"
    },
    {
      "inputs": [
        {
          "internalType": "uint256",
          "name": "jobId",
          "type": "uint256"
        }
      ],
      "name": "getApplicationsForJob",
      "outputs": [
        {
          "internalType": "uint256[]",
          "name": "appIds",
          "type": "uint256[]"
        },
        {
          "internalType": "address[]",
          "name": "candidates",
          "type": "address[]"
        },
        {
          "internalType": "string[]",
          "name": "names",
          "type": "string[]"
        },
        {
          "internalType": "bool[]",
          "name": "matchRevealeds",
          "type": "bool[]"
        },
        {
          "internalType": "bool[]",
          "name": "matchResults",
          "type": "bool[]"
        },
        {
          "internalType": "bool[]",
          "name": "resumeUnlockeds",
          "type": "bool[]"
        },
        {
          "internalType": "uint256[]",
          "name": "appliedAts",
          "type": "uint256[]"
        }
      ],
      "stateMutability": "view",
      "type": "function"
    },
    {
      "inputs": [
        {
          "internalType": "address",
          "name": "employer",
          "type": "address"
        }
      ],
      "name": "getJobsByEmployer",
      "outputs": [
        {
          "internalType": "uint256[]",
          "name": "jobIds",
          "type": "uint256[]"
        }
      ],
      "stateMutability": "view",
      "type": "function"
    },
    {
      "inputs": [
        {
          "internalType": "uint256",
          "name": "jobId",
          "type": "uint256"
        },
        {
          "internalType": "uint256",
          "name": "applicationId",
          "type": "uint256"
        }
      ],
      "name": "getMessageCount",
      "outputs": [
        {
          "internalType": "uint256",
          "name": "",
          "type": "uint256"
        }
      ],
      "stateMutability": "view",
      "type": "function"
    },
    {
      "inputs": [
        {
          "internalType": "uint256",
          "name": "jobId",
          "type": "uint256"
        },
        {
          "internalType": "uint256",
          "name": "applicationId",
          "type": "uint256"
        }
      ],
      "name": "getMessages",
      "outputs": [
        {
          "internalType": "address[]",
          "name": "senders",
          "type": "address[]"
        },
        {
          "internalType": "string[]",
          "name": "contents",
          "type": "string[]"
        },
        {
          "internalType": "uint256[]",
          "name": "timestamps",
          "type": "uint256[]"
        }
      ],
      "stateMutability": "view",
      "type": "function"
    },
    {
      "inputs": [],
      "name": "getMyApplications",
      "outputs": [
        {
          "internalType": "uint256[]",
          "name": "jobIds",
          "type": "uint256[]"
        },
        {
          "internalType": "uint256[]",
          "name": "appIds",
          "type": "uint256[]"
        },
        {
          "internalType": "string[]",
          "name": "titles",
          "type": "string[]"
        },
        {
          "internalType": "string[]",
          "name": "companies",
          "type": "string[]"
        },
        {
          "internalType": "bool[]",
          "name": "matchRevealeds",
          "type": "bool[]"
        },
        {
          "internalType": "bool[]",
          "name": "matchResults",
          "type": "bool[]"
        },
        {
          "internalType": "uint256[]",
          "name": "appliedAts",
          "type": "uint256[]"
        }
      ],
      "stateMutability": "view",
      "type": "function"
    },
    {
      "inputs": [
        {
          "internalType": "uint256",
          "name": "jobId",
          "type": "uint256"
        },
        {
          "internalType": "uint256",
          "name": "applicationId",
          "type": "uint256"
        }
      ],
      "name": "getResumeIfUnlocked",
      "outputs": [
        {
          "internalType": "string",
          "name": "ipfsCid",
          "type": "string"
        }
      ],
      "stateMutability": "view",
      "type": "function"
    },
    {
      "inputs": [
        {
          "internalType": "uint256",
          "name": "",
          "type": "uint256"
        },
        {
          "internalType": "uint256",
          "name": "",
          "type": "uint256"
        }
      ],
      "name": "jobApplicationIds",
      "outputs": [
        {
          "internalType": "uint256",
          "name": "",
          "type": "uint256"
        }
      ],
      "stateMutability": "view",
      "type": "function"
    },
    {
      "inputs": [],
      "name": "jobCount",
      "outputs": [
        {
          "internalType": "uint256",
          "name": "",
          "type": "uint256"
        }
      ],
      "stateMutability": "view",
      "type": "function"
    },
    {
      "inputs": [
        {
          "internalType": "uint256",
          "name": "",
          "type": "uint256"
        }
      ],
      "name": "jobPostings",
      "outputs": [
        {
          "internalType": "address",
          "name": "employer",
          "type": "address"
        },
        {
          "internalType": "string",
          "name": "title",
          "type": "string"
        },
        {
          "internalType": "string",
          "name": "company",
          "type": "string"
        },
        {
          "internalType": "string",
          "name": "location",
          "type": "string"
        },
        {
          "internalType": "string",
          "name": "jobType",
          "type": "string"
        },
        {
          "internalType": "euint64",
          "name": "max_budget",
          "type": "bytes32"
        },
        {
          "internalType": "bool",
          "name": "isActive",
          "type": "bool"
        },
        {
          "internalType": "bool",
          "name": "isResolved",
          "type": "bool"
        },
        {
          "internalType": "uint256",
          "name": "createdAt",
          "type": "uint256"
        },
        {
          "internalType": "uint256",
          "name": "applicationCount",
          "type": "uint256"
        }
      ],
      "stateMutability": "view",
      "type": "function"
    },
    {
      "inputs": [
        {
          "internalType": "uint256",
          "name": "jobId",
          "type": "uint256"
        },
        {
          "internalType": "uint256",
          "name": "applicationId",
          "type": "uint256"
        }
      ],
      "name": "resolveApplication",
      "outputs": [],
      "stateMutability": "nonpayable",
      "type": "function"
    },
    {
      "inputs": [
        {
          "internalType": "uint256",
          "name": "jobId",
          "type": "uint256"
        },
        {
          "internalType": "uint256",
          "name": "applicationId",
          "type": "uint256"
        }
      ],
      "name": "revealMatchResult",
      "outputs": [],
      "stateMutability": "nonpayable",
      "type": "function"
    },
    {
      "inputs": [
        {
          "internalType": "uint256",
          "name": "jobId",
          "type": "uint256"
        },
        {
          "internalType": "uint256",
          "name": "applicationId",
          "type": "uint256"
        },
        {
          "internalType": "string",
          "name": "content",
          "type": "string"
        }
      ],
      "name": "sendMessage",
      "outputs": [],
      "stateMutability": "nonpayable",
      "type": "function"
    },
    {
      "inputs": [
        {
          "internalType": "uint256",
          "name": "jobId",
          "type": "uint256"
        },
        {
          "internalType": "uint256",
          "name": "applicationId",
          "type": "uint256"
        }
      ],
      "name": "unlockResume",
      "outputs": [],
      "stateMutability": "nonpayable",
      "type": "function"
    }
  ],
  "bytecode": "0x608060405234801562000010575f80fd5b50620000c86200001f620000ce565b80517f9e7b61f58c47dc699ac88507c4f5bb9f121c03808c5676a8078fe583e464970080546001600160a01b03199081166001600160a01b039384161790915560208301517f9e7b61f58c47dc699ac88507c4f5bb9f121c03808c5676a8078fe583e46497018054831691841691909117905560408301517f9e7b61f58c47dc699ac88507c4f5bb9f121c03808c5676a8078fe583e46497028054909216921691909117905550565b62000280565b604080516060810182525f80825260208201819052918101919091524660010362000168575060408051606080820183525f8083526020808401829052928401528251908101835273ca2e8f1f656cd25c01f05d0b243ab1ecd4a8ffb6815273d82385dada1ae3e969447f20a3164f6213100e75918101919091527377627828a55156b04ac0dc0eb30467f1a552bb039181019190915290565b4662aa36a703620001e8575060408051606080820183525f8083526020808401829052928401528251908101835273f0ffdc93b7e186bc2f8cb3daa75d86d1930a433d81527392c920834ec8941d2c77d188936e1f7a6f49c1279181019190915273be0e383937d564d7ff0bc3b46c51f0bf8d5c311a9181019190915290565b46617a690362000267575060408051606080820183525f808352602080840182905292840152825190810183527350157cffd6bbfa2dece204a89ec419c23ef5755d815273e3a9105a3a932253a70f126eb1e3b589c643dd249181019190915273901f8942346f7ab3a01f6d7613119bca447bb0309181019190915290565b6040516373cac13b60e01b815260040160405180910390fd5b613b3d806200028e5f395ff3fe608060405234801561000f575f80fd5b5060043610610132575f3560e01c80634d91e57d116100b4578063853aff9111610079578063853aff91146102db57806388012568146102f65780638927b030146103165780639950c2a31461031e578063ca916b2714610331578063ce71fbbe14610344575f80fd5b80634d91e57d1461023e578063558ee6a8146102645780635d74ed7314610277578063622359b91461028a5780637a870b63146102b3575f80fd5b80633c1ef6c4116100fa5780633c1ef6c4146101c45780633deac9f3146101ee5780634be8362d146102015780634c5d8a0f146102235780634d5a32781461022b575f80fd5b8063129de6e5146101365780631772973b1461015f5780631e01abca1461018057806337597cb51461019557806339561dba146101b1575b5f80fd5b61014961014436600461302b565b610357565b604051610156919061307e565b60405180910390f35b61017261016d366004613090565b610447565b604051908152602001610156565b61019361018e3660046130b0565b6104c5565b005b61019d610561565b60405161015698979695949392919061319a565b6101936101bf36600461328c565b610b8f565b6101726101d23660046132da565b600560209081525f928352604080842090915290825290205481565b6101726101fc366004613302565b610dcb565b61021461020f366004613090565b611239565b604051610156939291906133a6565b6101725f5481565b6101726102393660046132da565b6115a2565b61025161024c3660046130b0565b6115cd565b604051610156979695949392919061340f565b610193610272366004613090565b611a2b565b610193610285366004613090565b611b81565b61029d6102983660046130b0565b611cdb565b6040516101569a999897969594939291906134a5565b6102c66102c1366004613090565b611f53565b60405161015699989796959493929190613535565b6102e36120c5565b60405161015697969594939291906135a4565b610309610304366004613090565b6125cc565b60405161015691906135f0565b61017261276e565b61017261032c366004613602565b61277c565b61019361033f366004613090565b612a39565b610172610352366004613090565b612b8d565b60605f805b5f5481101561039b575f818152600160205260409020546001600160a01b03808616911603610393578161038f816136f2565b9250505b60010161035c565b50806001600160401b038111156103b4576103b4613716565b6040519080825280602002602001820160405280156103dd578160200160208202803683370190505b5091505f805b5f5481101561043f575f818152600160205260409020546001600160a01b0380871691160361043757808483610418816136f2565b94508151811061042a5761042a61372a565b6020026020010181815250505b6001016103e3565b505050919050565b5f825f5481106104725760405162461bcd60e51b81526004016104699061373e565b60405180910390fd5b5f848152600160205260409020600801548490849081106104a55760405162461bcd60e51b815260040161046990613775565b5050505f9283525060066020908152604080842092845291905290205490565b805f5481106104e65760405162461bcd60e51b81526004016104699061373e565b5f8281526001602052604090205482906001600160a01b0316331461051d5760405162461bcd60e51b8152600401610469906137ba565b5f83815260016020526040808220600601805460ff191690555184917f6edf0875f8a9ed26275e4e52f2355d96ea7fd96625d6992a9733be603136fa6e91a2505050565b6060806060806060806060805f805b5f548110156105a8575f8181526001602052604090206006015460ff16156105a0578161059c816136f2565b9250505b600101610570565b50806001600160401b038111156105c1576105c1613716565b6040519080825280602002602001820160405280156105ea578160200160208202803683370190505b509850806001600160401b0381111561060557610605613716565b60405190808252806020026020018201604052801561062e578160200160208202803683370190505b509750806001600160401b0381111561064957610649613716565b60405190808252806020026020018201604052801561067c57816020015b60608152602001906001900390816106675790505b509650806001600160401b0381111561069757610697613716565b6040519080825280602002602001820160405280156106ca57816020015b60608152602001906001900390816106b55790505b509550806001600160401b038111156106e5576106e5613716565b60405190808252806020026020018201604052801561071857816020015b60608152602001906001900390816107035790505b509450806001600160401b0381111561073357610733613716565b60405190808252806020026020018201604052801561076657816020015b60608152602001906001900390816107515790505b509350806001600160401b0381111561078157610781613716565b6040519080825280602002602001820160405280156107aa578160200160208202803683370190505b509250806001600160401b038111156107c5576107c5613716565b6040519080825280602002602001820160405280156107ee578160200160208202803683370190505b5091505f805b5f54811015610b82575f8181526001602052604090206006015460ff1615610b7a575f8181526001602052604090208b5182908d90859081106108395761083961372a565b602090810291909101015280548b516001600160a01b03909116908c90859081106108665761086661372a565b60200260200101906001600160a01b031690816001600160a01b031681525050806001018054610895906137f1565b80601f01602080910402602001604051908101604052809291908181526020018280546108c1906137f1565b801561090c5780601f106108e35761010080835404028352916020019161090c565b820191905f5260205f20905b8154815290600101906020018083116108ef57829003601f168201915b50505050508a84815181106109235761092361372a565b602002602001018190525080600201805461093d906137f1565b80601f0160208091040260200160405190810160405280929190818152602001828054610969906137f1565b80156109b45780601f1061098b576101008083540402835291602001916109b4565b820191905f5260205f20905b81548152906001019060200180831161099757829003601f168201915b50505050508984815181106109cb576109cb61372a565b60200260200101819052508060030180546109e5906137f1565b80601f0160208091040260200160405190810160405280929190818152602001828054610a11906137f1565b8015610a5c5780601f10610a3357610100808354040283529160200191610a5c565b820191905f5260205f20905b815481529060010190602001808311610a3f57829003601f168201915b5050505050888481518110610a7357610a7361372a565b6020026020010181905250806004018054610a8d906137f1565b80601f0160208091040260200160405190810160405280929190818152602001828054610ab9906137f1565b8015610b045780601f10610adb57610100808354040283529160200191610b04565b820191905f5260205f20905b815481529060010190602001808311610ae757829003601f168201915b5050505050878481518110610b1b57610b1b61372a565b60200260200101819052508060070154868481518110610b3d57610b3d61372a565b6020026020010181815250508060080154858481518110610b6057610b6061372a565b602090810291909101015282610b75816136f2565b935050505b6001016107f4565b5050509091929394959697565b835f548110610bb05760405162461bcd60e51b81526004016104699061373e565b5f85815260016020526040902060080154859085908110610be35760405162461bcd60e51b815260040161046990613775565b5f87815260026020908152604080832089845282528083208a84526001909252909120600582015460ff168015610c2357506005820154610100900460ff165b610c3f5760405162461bcd60e51b815260040161046990613829565b80546001600160a01b0316331480610c60575081546001600160a01b031633145b610c7c5760405162461bcd60e51b81526004016104699061386a565b85610cc95760405162461bcd60e51b815260206004820152601860248201527f426c696e64486972653a20456d707479206d65737361676500000000000000006044820152606401610469565b5f8981526006602090815260408083208b8452825291829020805483516060810185523381528451601f8c018590048502810185019095528a8552909391929091828201918c908c90819084018382808284375f9201829052509385525050426020938401525083546001808201865594825290829020835160039092020180546001600160a01b0319166001600160a01b03909216919091178155908201519192909190820190610d7b9082613900565b506040918201516002909101555181815233908a908c907f402a45bf1deda6d11334ec5ba68b3cfb7b6d0066d03a8abb09996fd18cffa8659060200160405180910390a450505050505050505050565b5f885f548110610ded5760405162461bcd60e51b81526004016104699061373e565b5f8a8152600160205260409020600601548a9060ff16610e4f5760405162461bcd60e51b815260206004820152601c60248201527f426c696e64486972653a204a6f62206973206e6f7420616374697665000000006044820152606401610469565b335f9081526005602090815260408083208e8452909152902054158015610eaf57505f8b81526003602052604090205415801590610ead57505f8b81526002602090815260408083208380529091529020546001600160a01b031633145b155b610efb5760405162461bcd60e51b815260206004820152601a60248201527f426c696e64486972653a20416c7265616479206170706c6965640000000000006044820152606401610469565b5f8b8152600160205260408120600801805491610f17836136f2565b9190505592505f610f608787878080601f0160208091040260200160405190810160405280939291908181526020018383808284375f9201919091525060059250612ba6915050565b9050610f6b81612cb3565b505f610f765f612cd3565b9050610f8181612cf4565b50604051806101200160405280336001600160a01b031681526020018d8d8080601f0160208091040260200160405190810160405280939291908181526020018383808284375f92019190915250505090825250604080516020601f8e018190048102820181019092528c815291810191908d908d90819084018382808284375f81840152601f19601f8201169050808301925050505050505081526020018381526020018281526020015f151581526020015f151581526020015f151581526020014281525060025f8f81526020019081526020015f205f8781526020019081526020015f205f820151815f015f6101000a8154816001600160a01b0302191690836001600160a01b0316021790555060208201518160010190816110a79190613900565b50604082015160028201906110bc9082613900565b50606082015181600301556080820151816004015560a0820151816005015f6101000a81548160ff02191690831515021790555060c08201518160050160016101000a81548160ff02191690831515021790555060e08201518160050160026101000a81548160ff021916908315150217905550610100820151816006015590505060035f8e81526020019081526020015f2085908060018154018082558091505060019003905f5260205f20015f909190919091505560045f336001600160a01b03166001600160a01b031681526020019081526020015f208d908060018154018082558091505060019003905f5260205f20015f90919091909150558460055f336001600160a01b03166001600160a01b031681526020019081526020015f205f8f81526020019081526020015f2081905550336001600160a01b0316858e7ffdb73f695bc6f43d03128339b6d99121833f5cb8d65f8cb3ffc6abe2e08a0a5b60405160405180910390a45050505098975050505050505050565b6060806060845f54811061125f5760405162461bcd60e51b81526004016104699061373e565b5f868152600160205260409020600801548690869081106112925760405162461bcd60e51b815260040161046990613775565b5f8881526002602090815260408083208a845282528083208b84526001909252909120600582015460ff1680156112d257506005820154610100900460ff165b6112ee5760405162461bcd60e51b815260040161046990613829565b80546001600160a01b031633148061130f575081546001600160a01b031633145b61132b5760405162461bcd60e51b81526004016104699061386a565b5f8a81526006602090815260408083208c845290915290208054806001600160401b0381111561135d5761135d613716565b604051908082528060200260200182016040528015611386578160200160208202803683370190505b509950806001600160401b038111156113a1576113a1613716565b6040519080825280602002602001820160405280156113d457816020015b60608152602001906001900390816113bf5790505b509850806001600160401b038111156113ef576113ef613716565b604051908082528060200260200182016040528015611418578160200160208202803683370190505b5097505f5b81811015611593578281815481106114375761143761372a565b5f9182526020909120600390910201548b516001600160a01b03909116908c90839081106114675761146761372a565b60200260200101906001600160a01b031690816001600160a01b0316815250508281815481106114995761149961372a565b905f5260205f20906003020160010180546114b3906137f1565b80601f01602080910402602001604051908101604052809291908181526020018280546114df906137f1565b801561152a5780601f106115015761010080835404028352916020019161152a565b820191905f5260205f20905b81548152906001019060200180831161150d57829003601f168201915b50505050508a82815181106115415761154161372a565b602002602001018190525082818154811061155e5761155e61372a565b905f5260205f209060030201600201548982815181106115805761158061372a565b602090810291909101015260010161141d565b50505050505050509250925092565b6004602052815f5260405f2081815481106115bb575f80fd5b905f5260205f20015f91509150505481565b6060806060806060806060875f5481106115f95760405162461bcd60e51b81526004016104699061373e565b5f8981526001602052604090205489906001600160a01b031633146116305760405162461bcd60e51b8152600401610469906137ba565b5f8a815260016020526040902060080154806001600160401b0381111561165957611659613716565b604051908082528060200260200182016040528015611682578160200160208202803683370190505b509950806001600160401b0381111561169d5761169d613716565b6040519080825280602002602001820160405280156116c6578160200160208202803683370190505b509850806001600160401b038111156116e1576116e1613716565b60405190808252806020026020018201604052801561171457816020015b60608152602001906001900390816116ff5790505b509750806001600160401b0381111561172f5761172f613716565b604051908082528060200260200182016040528015611758578160200160208202803683370190505b509650806001600160401b0381111561177357611773613716565b60405190808252806020026020018201604052801561179c578160200160208202803683370190505b509550806001600160401b038111156117b7576117b7613716565b6040519080825280602002602001820160405280156117e0578160200160208202803683370190505b509450806001600160401b038111156117fb576117fb613716565b604051908082528060200260200182016040528015611824578160200160208202803683370190505b5093505f5b81811015611a1c575f8c815260026020908152604080832084845290915290208b5182908d908290811061185f5761185f61372a565b602090810291909101015280548b516001600160a01b03909116908c908490811061188c5761188c61372a565b60200260200101906001600160a01b031690816001600160a01b0316815250508060010180546118bb906137f1565b80601f01602080910402602001604051908101604052809291908181526020018280546118e7906137f1565b80156119325780601f1061190957610100808354040283529160200191611932565b820191905f5260205f20905b81548152906001019060200180831161191557829003601f168201915b50505050508a83815181106119495761194961372a565b60209081029190910101526005810154895160ff909116908a90849081106119735761197361372a565b6020026020010190151590811515815250508060050160019054906101000a900460ff168883815181106119a9576119a961372a565b6020026020010190151590811515815250508060050160029054906101000a900460ff168783815181106119df576119df61372a565b6020026020010190151590811515815250508060060154868381518110611a0857611a0861372a565b602090810291909101015250600101611829565b50505050919395979092949650565b815f548110611a4c5760405162461bcd60e51b81526004016104699061373e565b5f83815260016020526040902060080154839083908110611a7f5760405162461bcd60e51b815260040161046990613775565b5f8581526001602052604090205485906001600160a01b03163314611ab65760405162461bcd60e51b8152600401610469906137ba565b5f8681526002602090815260408083208884529091529020600581015460ff168015611aeb57506005810154610100900460ff165b611b375760405162461bcd60e51b815260206004820152601d60248201527f426c696e64486972653a204e6f20636f6e6669726d6564206d617463680000006044820152606401610469565b60058101805462ff00001916620100001790556040513390879089907fd9c67b23e0903b466cca5aa7664734499e4c82bbeb358ea2eb592f06d52c83fa905f90a450505050505050565b815f548110611ba25760405162461bcd60e51b81526004016104699061373e565b5f83815260016020526040902060080154839083908110611bd55760405162461bcd60e51b815260040161046990613775565b5f85815260026020908152604080832087845282528083208884526001909252909120600582015460ff1615611c5e5760405162461bcd60e51b815260206004820152602860248201527f426c696e64486972653a20416c7265616479207265736f6c76656420616e64206044820152671c995d99585b195960c21b6064820152608401610469565b5f611c7183600301548360050154612d03565b600484018190559050611c8381612cf4565b508154611c9a9082906001600160a01b0316612d38565b50611ca481612d5b565b50604051879089907faa8bbadb289a5d836c5a29b62b1e26336926974e58e77b4ab5840cd8ca90a126905f90a35050505050505050565b600160208190525f9182526040909120805491810180546001600160a01b0390931692611d07906137f1565b80601f0160208091040260200160405190810160405280929190818152602001828054611d33906137f1565b8015611d7e5780601f10611d5557610100808354040283529160200191611d7e565b820191905f5260205f20905b815481529060010190602001808311611d6157829003601f168201915b505050505090806002018054611d93906137f1565b80601f0160208091040260200160405190810160405280929190818152602001828054611dbf906137f1565b8015611e0a5780601f10611de157610100808354040283529160200191611e0a565b820191905f5260205f20905b815481529060010190602001808311611ded57829003601f168201915b505050505090806003018054611e1f906137f1565b80601f0160208091040260200160405190810160405280929190818152602001828054611e4b906137f1565b8015611e965780601f10611e6d57610100808354040283529160200191611e96565b820191905f5260205f20905b815481529060010190602001808311611e7957829003601f168201915b505050505090806004018054611eab906137f1565b80601f0160208091040260200160405190810160405280929190818152602001828054611ed7906137f1565b8015611f225780601f10611ef957610100808354040283529160200191611f22565b820191905f5260205f20905b815481529060010190602001808311611f0557829003601f168201915b5050506005840154600685015460078601546008909601549495919460ff808316955061010090920490911692508a565b600260209081525f9283526040808420909152908252902080546001820180546001600160a01b039092169291611f89906137f1565b80601f0160208091040260200160405190810160405280929190818152602001828054611fb5906137f1565b80156120005780601f10611fd757610100808354040283529160200191612000565b820191905f5260205f20905b815481529060010190602001808311611fe357829003601f168201915b505050505090806002018054612015906137f1565b80601f0160208091040260200160405190810160405280929190818152602001828054612041906137f1565b801561208c5780601f106120635761010080835404028352916020019161208c565b820191905f5260205f20905b81548152906001019060200180831161206f57829003601f168201915b5050506003840154600485015460058601546006909601549495919490935060ff80831693506101008304811692620100009004169089565b60608060608060608060605f60045f336001600160a01b03166001600160a01b031681526020019081526020015f2080548060200260200160405190810160405280929190818152602001828054801561213c57602002820191905f5260205f20905b815481526020019060010190808311612128575b5050835193945083925050506001600160401b0381111561215f5761215f613716565b604051908082528060200260200182016040528015612188578160200160208202803683370190505b509850806001600160401b038111156121a3576121a3613716565b6040519080825280602002602001820160405280156121cc578160200160208202803683370190505b509750806001600160401b038111156121e7576121e7613716565b60405190808252806020026020018201604052801561221a57816020015b60608152602001906001900390816122055790505b509650806001600160401b0381111561223557612235613716565b60405190808252806020026020018201604052801561226857816020015b60608152602001906001900390816122535790505b509550806001600160401b0381111561228357612283613716565b6040519080825280602002602001820160405280156122ac578160200160208202803683370190505b509450806001600160401b038111156122c7576122c7613716565b6040519080825280602002602001820160405280156122f0578160200160208202803683370190505b509350806001600160401b0381111561230b5761230b613716565b604051908082528060200260200182016040528015612334578160200160208202803683370190505b5092505f5b818110156125c0575f8382815181106123545761235461372a565b602090810291909101810151335f908152600583526040808220838352845280822054600285528183208184528552818320848452600190955291208e5192945090929184908f90879081106123ac576123ac61372a565b602002602001018181525050828d86815181106123cb576123cb61372a565b6020026020010181815250508060010180546123e6906137f1565b80601f0160208091040260200160405190810160405280929190818152602001828054612412906137f1565b801561245d5780601f106124345761010080835404028352916020019161245d565b820191905f5260205f20905b81548152906001019060200180831161244057829003601f168201915b50505050508c86815181106124745761247461372a565b602002602001018190525080600201805461248e906137f1565b80601f01602080910402602001604051908101604052809291908181526020018280546124ba906137f1565b80156125055780601f106124dc57610100808354040283529160200191612505565b820191905f5260205f20905b8154815290600101906020018083116124e857829003601f168201915b50505050508b868151811061251c5761251c61372a565b602090810291909101015260058201548a5160ff909116908b90879081106125465761254661372a565b6020026020010190151590811515815250508160050160019054906101000a900460ff1689868151811061257c5761257c61372a565b60200260200101901515908115158152505081600601548886815181106125a5576125a561372a565b60209081029190910101525050600190920191506123399050565b50505090919293949596565b6060825f5481106125ef5760405162461bcd60e51b81526004016104699061373e565b5f848152600160205260409020600801548490849081106126225760405162461bcd60e51b815260040161046990613775565b5f8681526001602052604090205486906001600160a01b031633146126595760405162461bcd60e51b8152600401610469906137ba565b5f8781526002602090815260408083208984529091529020600581015462010000900460ff166126d65760405162461bcd60e51b815260206004820152602260248201527f426c696e64486972653a20526573756d65206e6f742079657420756e6c6f636b604482015261195960f21b6064820152608401610469565b8060020180546126e5906137f1565b80601f0160208091040260200160405190810160405280929190818152602001828054612711906137f1565b801561275c5780601f106127335761010080835404028352916020019161275c565b820191905f5260205f20905b81548152906001019060200180831161273f57829003601f168201915b50505050509550505050505092915050565b5f612777612d76565b905090565b5f8054818061278a836136f2565b9190505590505f6127d38585858080601f0160208091040260200160405190810160405280939291908181526020018383808284375f9201919091525060059250612ba6915050565b90506127de81612cb3565b50604051806101400160405280336001600160a01b031681526020018e8e8080601f0160208091040260200160405190810160405280939291908181526020018383808284375f92019190915250505090825250604080516020601f8f018190048102820181019092528d815291810191908e908e90819084018382808284375f92019190915250505090825250604080516020601f8d018190048102820181019092528b815291810191908c908c90819084018382808284375f92019190915250505090825250604080516020601f8b0181900481028201810190925289815291810191908a908a90819084018382808284375f9201829052509385525050506020808301859052600160408085018290526060850184905242608086015260a090940183905286835280825292909120835181546001600160a01b0319166001600160a01b0390911617815590830151909182019061293f9082613900565b50604082015160028201906129549082613900565b50606082015160038201906129699082613900565b506080820151600482019061297e9082613900565b5060a0820151816005015560c0820151816006015f6101000a81548160ff02191690831515021790555060e08201518160060160016101000a81548160ff02191690831515021790555061010082015181600701556101208201518160080155905050336001600160a01b0316827f752f79388b35d90d4202940ffb0c752f318a347800decc9e4c322e2cec1b404a8f8f8f8f604051612a2194939291906139e7565b60405180910390a3509b9a5050505050505050505050565b815f548110612a5a5760405162461bcd60e51b81526004016104699061373e565b5f83815260016020526040902060080154839083908110612a8d5760405162461bcd60e51b815260040161046990613775565b5f8581526001602052604090205485906001600160a01b03163314612ac45760405162461bcd60e51b8152600401610469906137ba565b5f8681526002602090815260408083208884529091529020600581015460ff1615612b3b5760405162461bcd60e51b815260206004820152602160248201527f426c696e64486972653a204d6174636820616c72656164792072657665616c656044820152601960fa1b6064820152608401610469565b60058101805461ffff191661010117905560405160018152869088907ffa71382ddfc4ee59159e8334f34a8aa254c10d048d8954a3b4f87a76982f72f09060200160405180910390a350505050505050565b6003602052815f5260405f2081815481106115bb575f80fd5b7f9e7b61f58c47dc699ac88507c4f5bb9f121c03808c5676a8078fe583e46497015460405163045fc19560e11b81525f915f80516020613ae8833981519152916001600160a01b03909116906308bf832a90612c0c908890339089908990600401613a38565b6020604051808303815f875af1158015612c28573d5f803e3d5ffd5b505050506040513d601f19601f82011682018060405250810190612c4c9190613a79565b8154604051630f8e573b60e21b8152600481018390523360248201529193506001600160a01b031690633e395cec906044015f604051808303815f87803b158015612c95575f80fd5b505af1158015612ca7573d5f803e3d5ffd5b50505050509392505050565b5f81612cc557612cc25f612daa565b91505b612ccf8230612dbf565b5090565b5f612cee82612ce2575f612ce5565b60015b60ff165f612e33565b92915050565b5f81612cc557612cc25f612cd3565b5f82612d1557612d125f612daa565b92505b81612d2657612d235f612daa565b91505b612d3183835f612edd565b9392505050565b5f82612d4a57612d475f612cd3565b92505b612d548383612dbf565b5090919050565b5f81612d6d57612d6a5f612cd3565b91505b612ccf82612f92565b5f46600103612d855750600190565b4662aa36a703612d96575061271190565b46617a6903612da557505f1990565b505f90565b5f612cee826001600160401b03166005612e33565b5f80516020613ae88339815191528054604051635ca4b5b160e11b8152600481018590526001600160a01b0384811660248301529091169063b9496b62906044015b5f604051808303815f87803b158015612e18575f80fd5b505af1158015612e2a573d5f803e3d5ffd5b50505050505050565b7f9e7b61f58c47dc699ac88507c4f5bb9f121c03808c5676a8078fe583e464970154604051639cd07acb60e01b81525f915f80516020613ae8833981519152916001600160a01b0390911690639cd07acb90612e959087908790600401613a90565b6020604051808303815f875af1158015612eb1573d5f803e3d5ffd5b505050506040513d601f19601f82011682018060405250810190612ed59190613a79565b949350505050565b5f808215612ef05750600160f81b612ef3565b505f5b5f5f80516020613ae88339815191526001810154604051631d44e90160e21b815260048101899052602481018890526001600160f81b0319851660448201529192506001600160a01b031690637513a404906064016020604051808303815f875af1158015612f64573d5f803e3d5ffd5b505050506040513d601f19601f82011682018060405250810190612f889190613a79565b9695505050505050565b6040805160018082528183019092525f80516020613ae8833981519152915f91906020808301908036833701905050905082815f81518110612fd657612fd661372a565b60209081029190910101528154604051637d6e912360e11b81526001600160a01b039091169063fadd224690612e01908490600401613aa4565b80356001600160a01b0381168114613026575f80fd5b919050565b5f6020828403121561303b575f80fd5b612d3182613010565b5f815180845260208085019450602084015f5b8381101561307357815187529582019590820190600101613057565b509495945050505050565b602081525f612d316020830184613044565b5f80604083850312156130a1575f80fd5b50508035926020909101359150565b5f602082840312156130c0575f80fd5b5035919050565b5f815180845260208085019450602084015f5b838110156130735781516001600160a01b0316875295820195908201906001016130da565b5f81518084525f5b8181101561312357602081850181015186830182015201613107565b505f602082860101526020601f19601f83011685010191505092915050565b5f8282518085526020808601955060208260051b840101602086015f5b8481101561318d57601f1986840301895261317b8383516130ff565b9884019892509083019060010161315f565b5090979650505050505050565b5f6101008083526131ad8184018c613044565b905082810360208401526131c1818b6130c7565b905082810360408401526131d5818a613142565b905082810360608401526131e98189613142565b905082810360808401526131fd8188613142565b905082810360a08401526132118187613142565b905082810360c08401526132258186613044565b905082810360e08401526132398185613044565b9b9a5050505050505050505050565b5f8083601f840112613258575f80fd5b5081356001600160401b0381111561326e575f80fd5b602083019150836020828501011115613285575f80fd5b9250929050565b5f805f806060858703121561329f575f80fd5b843593506020850135925060408501356001600160401b038111156132c2575f80fd5b6132ce87828801613248565b95989497509550505050565b5f80604083850312156132eb575f80fd5b6132f483613010565b946020939093013593505050565b5f805f805f805f8060a0898b031215613319575f80fd5b8835975060208901356001600160401b0380821115613336575f80fd5b6133428c838d01613248565b909950975060408b013591508082111561335a575f80fd5b6133668c838d01613248565b909750955060608b0135945060808b0135915080821115613385575f80fd5b506133928b828c01613248565b999c989b5096995094979396929594505050565b606081525f6133b860608301866130c7565b82810360208401526133ca8186613142565b90508281036040840152612f888185613044565b5f815180845260208085019450602084015f5b838110156130735781511515875295820195908201906001016133f1565b60e081525f61342160e083018a613044565b8281036020840152613433818a6130c7565b905082810360408401526134478189613142565b9050828103606084015261345b81886133de565b9050828103608084015261346f81876133de565b905082810360a084015261348381866133de565b905082810360c08401526134978185613044565b9a9950505050505050505050565b6001600160a01b038b168152610140602082018190525f906134c98382018d6130ff565b905082810360408401526134dd818c6130ff565b905082810360608401526134f1818b6130ff565b90508281036080840152613505818a6130ff565b60a0840198909852505093151560c085015291151560e08401526101008301526101209091015295945050505050565b6001600160a01b038a168152610120602082018190525f906135598382018c6130ff565b9050828103604084015261356d818b6130ff565b60608401999099525050608081019590955292151560a085015290151560c0840152151560e0830152610100909101529392505050565b60e081525f6135b660e083018a613044565b82810360208401526135c8818a613044565b905082810360408401526135dc8189613142565b9050828103606084015261345b8188613142565b602081525f612d3160208301846130ff565b5f805f805f805f805f805f60c08c8e03121561361c575f80fd5b6001600160401b03808d351115613631575f80fd5b61363e8e8e358f01613248565b909c509a5060208d0135811015613653575f80fd5b6136638e60208f01358f01613248565b909a50985060408d0135811015613678575f80fd5b6136888e60408f01358f01613248565b909850965060608d013581101561369d575f80fd5b6136ad8e60608f01358f01613248565b909650945060808d0135935060a08d01358110156136c9575f80fd5b506136da8d60a08e01358e01613248565b81935080925050509295989b509295989b9093969950565b5f6001820161370f57634e487b7160e01b5f52601160045260245ffd5b5060010190565b634e487b7160e01b5f52604160045260245ffd5b634e487b7160e01b5f52603260045260245ffd5b6020808252601d908201527f426c696e64486972653a204a6f6220646f6573206e6f74206578697374000000604082015260600190565b60208082526025908201527f426c696e64486972653a204170706c69636174696f6e20646f6573206e6f7420604082015264195e1a5cdd60da1b606082015260800190565b6020808252601b908201527f426c696e64486972653a204e6f742074686520656d706c6f7965720000000000604082015260600190565b600181811c9082168061380557607f821691505b60208210810361382357634e487b7160e01b5f52602260045260245ffd5b50919050565b60208082526021908201527f426c696e64486972653a204e6f20636f6e6669726d656420464845206d6174636040820152600d60fb1b606082015260800190565b6020808252602a908201527f426c696e64486972653a204e6f742061207061727469636970616e7420696e206040820152690e8d0d2e640dac2e8c6d60b31b606082015260800190565b601f8211156138fb57805f5260205f20601f840160051c810160208510156138d95750805b601f840160051c820191505b818110156138f8575f81556001016138e5565b50505b505050565b81516001600160401b0381111561391957613919613716565b61392d8161392784546137f1565b846138b4565b602080601f831160018114613960575f84156139495750858301515b5f19600386901b1c1916600185901b1785556139b7565b5f85815260208120601f198616915b8281101561398e5788860151825594840194600190910190840161396f565b50858210156139ab57878501515f19600388901b60f8161c191681555b505060018460011b0185555b505050505050565b81835281816020850137505f828201602090810191909152601f909101601f19169091010190565b604081525f6139fa6040830186886139bf565b8281036020840152613a0d8185876139bf565b979650505050505050565b60548110613a3457634e487b7160e01b5f52602160045260245ffd5b9052565b8481526001600160a01b03841660208201526080604082018190525f90613a61908301856130ff565b9050613a706060830184613a18565b95945050505050565b5f60208284031215613a89575f80fd5b5051919050565b82815260408101612d316020830184613a18565b602080825282518282018190525f9190848201906040850190845b81811015613adb57835183529284019291840191600101613abf565b5090969550505050505056fe9e7b61f58c47dc699ac88507c4f5bb9f121c03808c5676a8078fe583e4649700a2646970667358221220f55711f733f7d80b2f59a4a5e5682fdbe4186d56cdb3fa6f9eefa24f99b204e764736f6c63430008180033",
  "linkReferences": {},
  "deployedLinkReferences": {}
}