{
  "_format": "hh-sol-artifact-1",
  "contractName": "VeilPay",
  "sourceName": "contracts/VeilPay.sol",
  "abi": [
    {
      "inputs": [
        {
          "internalType": "address",
          "name": "_bountyToken",
          "type": "address"
        }
      ],
      "stateMutability": "nonpayable",
      "type": "constructor"
    },
    {
      "inputs": [],
      "name": "ZamaProtocolUnsupported",
      "type": "error"
    },
    {
      "anonymous": false,
      "inputs": [
        {
          "indexed": true,
          "internalType": "uint256",
          "name": "jobId",
          "type": "uint256"
        },
        {
          "indexed": true,
          "internalType": "uint256",
          "name": "applicationId",
          "type": "uint256"
        }
      ],
      "name": "ApplicationResolved",
      "type": "event"
    },
    {
      "anonymous": false,
      "inputs": [
        {
          "indexed": true,
          "internalType": "uint256",
          "name": "jobId",
          "type": "uint256"
        },
        {
          "indexed": true,
          "internalType": "uint256",
          "name": "applicationId",
          "type": "uint256"
        },
        {
          "indexed": true,
          "internalType": "address",
          "name": "candidate",
          "type": "address"
        }
      ],
      "name": "ApplicationSubmitted",
      "type": "event"
    },
    {
      "anonymous": false,
      "inputs": [
        {
          "indexed": true,
          "internalType": "uint256",
          "name": "jobId",
          "type": "uint256"
        },
        {
          "indexed": true,
          "internalType": "uint256",
          "name": "applicationId",
          "type": "uint256"
        },
        {
          "indexed": true,
          "internalType": "address",
          "name": "candidate",
          "type": "address"
        },
        {
          "indexed": false,
          "internalType": "uint256",
          "name": "amount",
          "type": "uint256"
        }
      ],
      "name": "BountyPaid",
      "type": "event"
    },
    {
      "anonymous": false,
      "inputs": [
        {
          "indexed": true,
          "internalType": "uint256",
          "name": "jobId",
          "type": "uint256"
        },
        {
          "indexed": true,
          "internalType": "address",
          "name": "employer",
          "type": "address"
        },
        {
          "indexed": false,
          "internalType": "uint256",
          "name": "amount",
          "type": "uint256"
        }
      ],
      "name": "BountyRefunded",
      "type": "event"
    },
    {
      "anonymous": false,
      "inputs": [
        {
          "indexed": true,
          "internalType": "uint256",
          "name": "jobId",
          "type": "uint256"
        }
      ],
      "name": "JobClosed",
      "type": "event"
    },
    {
      "anonymous": false,
      "inputs": [
        {
          "indexed": true,
          "internalType": "uint256",
          "name": "jobId",
          "type": "uint256"
        },
        {
          "indexed": true,
          "internalType": "address",
          "name": "employer",
          "type": "address"
        },
        {
          "indexed": false,
          "internalType": "string",
          "name": "title",
          "type": "string"
        },
        {
          "indexed": false,
          "internalType": "string",
          "name": "company",
          "type": "string"
        }
      ],
      "name": "JobPosted",
      "type": "event"
    },
    {
      "anonymous": false,
      "inputs": [
        {
          "indexed": true,
          "internalType": "uint256",
          "name": "jobId",
          "type": "uint256"
        },
        {
          "indexed": true,
          "internalType": "uint256",
          "name": "applicationId",
          "type": "uint256"
        },
        {
          "indexed": false,
          "internalType": "bool",
          "name": "isMatch",
          "type": "bool"
        }
      ],
      "name": "MatchRevealed",
      "type": "event"
    },
    {
      "anonymous": false,
      "inputs": [
        {
          "indexed": true,
          "internalType": "uint256",
          "name": "jobId",
          "type": "uint256"
        },
        {
          "indexed": true,
          "internalType": "uint256",
          "name": "applicationId",
          "type": "uint256"
        },
        {
          "indexed": true,
          "internalType": "address",
          "name": "sender",
          "type": "address"
        },
        {
          "indexed": false,
          "internalType": "uint256",
          "name": "messageIndex",
          "type": "uint256"
        }
      ],
      "name": "MessageSent",
      "type": "event"
    },
    {
      "anonymous": false,
      "inputs": [
        {
          "indexed": true,
          "internalType": "uint256",
          "name": "jobId",
          "type": "uint256"
        },
        {
          "indexed": true,
          "internalType": "uint256",
          "name": "applicationId",
          "type": "uint256"
        },
        {
          "indexed": true,
          "internalType": "address",
          "name": "employer",
          "type": "address"
        }
      ],
      "name": "ResumeUnlocked",
      "type": "event"
    },
    {
      "anonymous": false,
      "inputs": [
        {
          "indexed": true,
          "internalType": "address",
          "name": "employer",
          "type": "address"
        },
        {
          "indexed": true,
          "internalType": "address",
          "name": "reviewer",
          "type": "address"
        }
      ],
      "name": "ReviewSubmitted",
      "type": "event"
    },
    {
      "inputs": [
        {
          "internalType": "uint256",
          "name": "",
          "type": "uint256"
        },
        {
          "internalType": "uint256",
          "name": "",
          "type": "uint256"
        }
      ],
      "name": "applications",
      "outputs": [
        {
          "internalType": "address",
          "name": "candidate",
          "type": "address"
        },
        {
          "internalType": "string",
          "name": "candidateName",
          "type": "string"
        },
        {
          "internalType": "string",
          "name": "resumeIpfsCid",
          "type": "string"
        },
        {
          "internalType": "euint64",
          "name": "min_expectation",
          "type": "bytes32"
        },
        {
          "internalType": "euint8",
          "name": "experience",
          "type": "bytes32"
        },
        {
          "internalType": "ebool",
          "name": "remotePreference",
          "type": "bytes32"
        },
        {
          "internalType": "euint8",
          "name": "matchScore",
          "type": "bytes32"
        },
        {
          "internalType": "ebool",
          "name": "isMatched",
          "type": "bytes32"
        },
        {
          "internalType": "bool",
          "name": "matchRevealed",
          "type": "bool"
        },
        {
          "internalType": "bool",
          "name": "matchResult",
          "type": "bool"
        },
        {
          "internalType": "uint8",
          "name": "revealedScore",
          "type": "uint8"
        },
        {
          "internalType": "bool",
          "name": "resumeUnlocked",
          "type": "bool"
        },
        {
          "internalType": "uint256",
          "name": "appliedAt",
          "type": "uint256"
        }
      ],
      "stateMutability": "view",
      "type": "function"
    },
    {
      "inputs": [
        {
          "internalType": "uint256",
          "name": "jobId",
          "type": "uint256"
        },
        {
          "internalType": "string",
          "name": "candidateName",
          "type": "string"
        },
        {
          "internalType": "string",
          "name": "resumeIpfsCid",
          "type": "string"
        },
        {
          "internalType": "bytes32",
          "name": "encryptedExpectation",
          "type": "bytes32"
        },
        {
          "internalType": "bytes32",
          "name": "encryptedExperience",
          "type": "bytes32"
        },
        {
          "internalType": "bytes32",
          "name": "encryptedRemotePref",
          "type": "bytes32"
        },
        {
          "internalType": "bytes",
          "name": "inputProof",
          "type": "bytes"
        }
      ],
      "name": "applyToJob",
      "outputs": [
        {
          "internalType": "uint256",
          "name": "applicationId",
          "type": "uint256"
        }
      ],
      "stateMutability": "nonpayable",
      "type": "function"
    },
    {
      "inputs": [],
      "name": "bountyToken",
      "outputs": [
        {
          "internalType": "contract IERC20",
          "name": "",
          "type": "address"
        }
      ],
      "stateMutability": "view",
      "type": "function"
    },
    {
      "inputs": [
        {
          "internalType": "address",
          "name": "",
          "type": "address"
        },
        {
          "internalType": "uint256",
          "name": "",
          "type": "uint256"
        }
      ],
      "name": "candidateApplicationId",
      "outputs": [
        {
          "internalType": "uint256",
          "name": "",
          "type": "uint256"
        }
      ],
      "stateMutability": "view",
      "type": "function"
    },
    {
      "inputs": [
        {
          "internalType": "address",
          "name": "",
          "type": "address"
        },
        {
          "internalType": "uint256",
          "name": "",
          "type": "uint256"
        }
      ],
      "name": "candidateJobIds",
      "outputs": [
        {
          "internalType": "uint256",
          "name": "",
          "type": "uint256"
        }
      ],
      "stateMutability": "view",
      "type": "function"
    },
    {
      "inputs": [
        {
          "internalType": "uint256",
          "name": "jobId",
          "type": "uint256"
        }
      ],
      "name": "closeJob",
      "outputs": [],
      "stateMutability": "nonpayable",
      "type": "function"
    },
    {
      "inputs": [
        {
          "internalType": "address",
          "name": "employer",
          "type": "address"
        },
        {
          "internalType": "uint8",
          "name": "decryptedAvg",
          "type": "uint8"
        }
      ],
      "name": "commitRevealedRating",
      "outputs": [],
      "stateMutability": "nonpayable",
      "type": "function"
    },
    {
      "inputs": [
        {
          "internalType": "address",
          "name": "",
          "type": "address"
        }
      ],
      "name": "companyRevealedRating",
      "outputs": [
        {
          "internalType": "uint8",
          "name": "",
          "type": "uint8"
        }
      ],
      "stateMutability": "view",
      "type": "function"
    },
    {
      "inputs": [
        {
          "internalType": "address",
          "name": "",
          "type": "address"
        }
      ],
      "name": "companyReviewCounts",
      "outputs": [
        {
          "internalType": "uint256",
          "name": "",
          "type": "uint256"
        }
      ],
      "stateMutability": "view",
      "type": "function"
    },
    {
      "inputs": [],
      "name": "confidentialProtocolId",
      "outputs": [
        {
          "internalType": "uint256",
          "name": "",
          "type": "uint256"
        }
      ],
      "stateMutability": "view",
      "type": "function"
    },
    {
      "inputs": [
        {
          "internalType": "string",
          "name": "title",
          "type": "string"
        },
        {
          "internalType": "string",
          "name": "company",
          "type": "string"
        },
        {
          "internalType": "string",
          "name": "location",
          "type": "string"
        },
        {
          "internalType": "string",
          "name": "jobType",
          "type": "string"
        },
        {
          "internalType": "string",
          "name": "description",
          "type": "string"
        },
        {
          "internalType": "string",
          "name": "logoUrl",
          "type": "string"
        },
        {
          "internalType": "bytes32",
          "name": "encryptedBudget",
          "type": "bytes32"
        },
        {
          "internalType": "bytes32",
          "name": "encryptedExperience",
          "type": "bytes32"
        },
        {
          "internalType": "bytes32",
          "name": "encryptedRemoteOk",
          "type": "bytes32"
        },
        {
          "internalType": "bytes",
          "name": "inputProof",
          "type": "bytes"
        },
        {
          "internalType": "uint256",
          "name": "bountyPerUnlock_",
          "type": "uint256"
        },
        {
          "internalType": "uint256",
          "name": "totalDeposit_",
          "type": "uint256"
        }
      ],
      "name": "createJobPosting",
      "outputs": [
        {
          "internalType": "uint256",
          "name": "jobId",
          "type": "uint256"
        }
      ],
      "stateMutability": "nonpayable",
      "type": "function"
    },
    {
      "inputs": [],
      "name": "getActiveJobs",
      "outputs": [
        {
          "internalType": "uint256[]",
          "name": "ids",
          "type": "uint256[]"
        },
        {
          "internalType": "address[]",
          "name": "employers",
          "type": "address[]"
        },
        {
          "internalType": "string[]",
          "name": "titles",
          "type": "string[]"
        },
        {
          "internalType": "string[]",
          "name": "companies",
          "type": "string[]"
        },
        {
          "internalType": "string[]",
          "name": "locations",
          "type": "string[]"
        },
        {
          "internalType": "string[]",
          "name": "jobTypes",
          "type": "string[]"
        },
        {
          "internalType": "string[]",
          "name": "descriptions",
          "type": "string[]"
        },
        {
          "internalType": "string[]",
          "name": "logoUrls",
          "type": "string[]"
        },
        {
          "internalType": "uint256[]",
          "name": "createdAts",
          "type": "uint256[]"
        },
        {
          "internalType": "uint256[]",
          "name": "applicationCounts",
          "type": "uint256[]"
        },
        {
          "internalType": "uint256[]",
          "name": "bountyPools",
          "type": "uint256[]"
        },
        {
          "internalType": "uint256[]",
          "name": "bountyPerUnlocks",
          "type": "uint256[]"
        }
      ],
      "stateMutability": "view",
      "type": "function"
    },
    {
      "inputs": [
        {
          "internalType": "uint256",
          "name": "jobId",
          "type": "uint256"
        }
      ],
      "name": "getApplicationsForJob",
      "outputs": [
        {
          "internalType": "uint256[]",
          "name": "appIds",
          "type": "uint256[]"
        },
        {
          "internalType": "address[]",
          "name": "candidates",
          "type": "address[]"
        },
        {
          "internalType": "string[]",
          "name": "names",
          "type": "string[]"
        },
        {
          "internalType": "bool[]",
          "name": "matchRevealeds",
          "type": "bool[]"
        },
        {
          "internalType": "bool[]",
          "name": "matchResults",
          "type": "bool[]"
        },
        {
          "internalType": "bytes32[]",
          "name": "matchHandles",
          "type": "bytes32[]"
        },
        {
          "internalType": "bytes32[]",
          "name": "scoreHandles",
          "type": "bytes32[]"
        },
        {
          "internalType": "uint8[]",
          "name": "revealedScores",
          "type": "uint8[]"
        },
        {
          "internalType": "bool[]",
          "name": "resumeUnlockeds",
          "type": "bool[]"
        },
        {
          "internalType": "uint256[]",
          "name": "appliedAts",
          "type": "uint256[]"
        }
      ],
      "stateMutability": "view",
      "type": "function"
    },
    {
      "inputs": [
        {
          "internalType": "address",
          "name": "employer",
          "type": "address"
        }
      ],
      "name": "getCompanyReviewInfo",
      "outputs": [
        {
          "internalType": "uint256",
          "name": "reviewCount",
          "type": "uint256"
        },
        {
          "internalType": "uint8",
          "name": "revealedAvg",
          "type": "uint8"
        },
        {
          "internalType": "bytes32",
          "name": "totalScoreHandle",
          "type": "bytes32"
        }
      ],
      "stateMutability": "view",
      "type": "function"
    },
    {
      "inputs": [
        {
          "internalType": "address",
          "name": "employer",
          "type": "address"
        }
      ],
      "name": "getJobsByEmployer",
      "outputs": [
        {
          "internalType": "uint256[]",
          "name": "jobIds",
          "type": "uint256[]"
        }
      ],
      "stateMutability": "view",
      "type": "function"
    },
    {
      "inputs": [
        {
          "internalType": "uint256",
          "name": "jobId",
          "type": "uint256"
        },
        {
          "internalType": "uint256",
          "name": "applicationId",
          "type": "uint256"
        }
      ],
      "name": "getMessageCount",
      "outputs": [
        {
          "internalType": "uint256",
          "name": "",
          "type": "uint256"
        }
      ],
      "stateMutability": "view",
      "type": "function"
    },
    {
      "inputs": [
        {
          "internalType": "uint256",
          "name": "jobId",
          "type": "uint256"
        },
        {
          "internalType": "uint256",
          "name": "applicationId",
          "type": "uint256"
        }
      ],
      "name": "getMessages",
      "outputs": [
        {
          "internalType": "address[]",
          "name": "senders",
          "type": "address[]"
        },
        {
          "internalType": "string[]",
          "name": "contents",
          "type": "string[]"
        },
        {
          "internalType": "uint256[]",
          "name": "timestamps",
          "type": "uint256[]"
        }
      ],
      "stateMutability": "view",
      "type": "function"
    },
    {
      "inputs": [],
      "name": "getMyApplications",
      "outputs": [
        {
          "internalType": "uint256[]",
          "name": "jobIds",
          "type": "uint256[]"
        },
        {
          "internalType": "uint256[]",
          "name": "appIds",
          "type": "uint256[]"
        },
        {
          "internalType": "string[]",
          "name": "titles",
          "type": "string[]"
        },
        {
          "internalType": "string[]",
          "name": "companies",
          "type": "string[]"
        },
        {
          "internalType": "bool[]",
          "name": "matchRevealeds",
          "type": "bool[]"
        },
        {
          "internalType": "bool[]",
          "name": "matchResults",
          "type": "bool[]"
        },
        {
          "internalType": "uint256[]",
          "name": "appliedAts",
          "type": "uint256[]"
        }
      ],
      "stateMutability": "view",
      "type": "function"
    },
    {
      "inputs": [
        {
          "internalType": "uint256",
          "name": "jobId",
          "type": "uint256"
        },
        {
          "internalType": "uint256",
          "name": "applicationId",
          "type": "uint256"
        }
      ],
      "name": "getResumeIfUnlocked",
      "outputs": [
        {
          "internalType": "string",
          "name": "ipfsCid",
          "type": "string"
        }
      ],
      "stateMutability": "view",
      "type": "function"
    },
    {
      "inputs": [
        {
          "internalType": "address",
          "name": "",
          "type": "address"
        },
        {
          "internalType": "address",
          "name": "",
          "type": "address"
        }
      ],
      "name": "hasReviewed",
      "outputs": [
        {
          "internalType": "bool",
          "name": "",
          "type": "bool"
        }
      ],
      "stateMutability": "view",
      "type": "function"
    },
    {
      "inputs": [
        {
          "internalType": "uint256",
          "name": "",
          "type": "uint256"
        },
        {
          "internalType": "uint256",
          "name": "",
          "type": "uint256"
        }
      ],
      "name": "jobApplicationIds",
      "outputs": [
        {
          "internalType": "uint256",
          "name": "",
          "type": "uint256"
        }
      ],
      "stateMutability": "view",
      "type": "function"
    },
    {
      "inputs": [],
      "name": "jobCount",
      "outputs": [
        {
          "internalType": "uint256",
          "name": "",
          "type": "uint256"
        }
      ],
      "stateMutability": "view",
      "type": "function"
    },
    {
      "inputs": [
        {
          "internalType": "uint256",
          "name": "",
          "type": "uint256"
        }
      ],
      "name": "jobPostings",
      "outputs": [
        {
          "internalType": "address",
          "name": "employer",
          "type": "address"
        },
        {
          "internalType": "string",
          "name": "title",
          "type": "string"
        },
        {
          "internalType": "string",
          "name": "company",
          "type": "string"
        },
        {
          "internalType": "string",
          "name": "location",
          "type": "string"
        },
        {
          "internalType": "string",
          "name": "jobType",
          "type": "string"
        },
        {
          "internalType": "string",
          "name": "description",
          "type": "string"
        },
        {
          "internalType": "string",
          "name": "logoUrl",
          "type": "string"
        },
        {
          "internalType": "euint64",
          "name": "max_budget",
          "type": "bytes32"
        },
        {
          "internalType": "euint8",
          "name": "requiredExperience",
          "type": "bytes32"
        },
        {
          "internalType": "ebool",
          "name": "remoteOk",
          "type": "bytes32"
        },
        {
          "internalType": "bool",
          "name": "isActive",
          "type": "bool"
        },
        {
          "internalType": "bool",
          "name": "isResolved",
          "type": "bool"
        },
        {
          "internalType": "uint256",
          "name": "createdAt",
          "type": "uint256"
        },
        {
          "internalType": "uint256",
          "name": "applicationCount",
          "type": "uint256"
        },
        {
          "internalType": "uint256",
          "name": "bountyPool",
          "type": "uint256"
        },
        {
          "internalType": "uint256",
          "name": "bountyPerUnlock",
          "type": "uint256"
        }
      ],
      "stateMutability": "view",
      "type": "function"
    },
    {
      "inputs": [
        {
          "internalType": "address",
          "name": "employer",
          "type": "address"
        }
      ],
      "name": "requestRatingReveal",
      "outputs": [],
      "stateMutability": "nonpayable",
      "type": "function"
    },
    {
      "inputs": [
        {
          "internalType": "uint256",
          "name": "jobId",
          "type": "uint256"
        },
        {
          "internalType": "uint256",
          "name": "applicationId",
          "type": "uint256"
        }
      ],
      "name": "resolveApplication",
      "outputs": [],
      "stateMutability": "nonpayable",
      "type": "function"
    },
    {
      "inputs": [
        {
          "internalType": "uint256",
          "name": "jobId",
          "type": "uint256"
        },
        {
          "internalType": "uint256",
          "name": "applicationId",
          "type": "uint256"
        },
        {
          "internalType": "bool",
          "name": "decryptedMatchResult",
          "type": "bool"
        },
        {
          "internalType": "uint8",
          "name": "decryptedScore",
          "type": "uint8"
        }
      ],
      "name": "revealMatchResult",
      "outputs": [],
      "stateMutability": "nonpayable",
      "type": "function"
    },
    {
      "inputs": [
        {
          "internalType": "uint256",
          "name": "jobId",
          "type": "uint256"
        },
        {
          "internalType": "uint256",
          "name": "applicationId",
          "type": "uint256"
        },
        {
          "internalType": "string",
          "name": "content",
          "type": "string"
        }
      ],
      "name": "sendMessage",
      "outputs": [],
      "stateMutability": "nonpayable",
      "type": "function"
    },
    {
      "inputs": [
        {
          "internalType": "address",
          "name": "employer",
          "type": "address"
        },
        {
          "internalType": "bytes32",
          "name": "encryptedRating",
          "type": "bytes32"
        },
        {
          "internalType": "bytes",
          "name": "inputProof",
          "type": "bytes"
        }
      ],
      "name": "submitReview",
      "outputs": [],
      "stateMutability": "nonpayable",
      "type": "function"
    },
    {
      "inputs": [
        {
          "internalType": "uint256",
          "name": "jobId",
          "type": "uint256"
        },
        {
          "internalType": "uint256",
          "name": "applicationId",
          "type": "uint256"
        }
      ],
      "name": "unlockResume",
      "outputs": [],
      "stateMutability": "nonpayable",
      "type": "function"
    }
  ],
  "bytecode": "0x60a034620002cd57601f6200465b38819003918201601f1916830192916001600160401b03841183851017620002d15780839260409586528339602092839181010312620002cd57516001600160a01b038082169291839003620002cd576200006762000305565b5046600103620001dd576200007b62000305565b5062000086620002e5565b73ca2e8f1f656cd25c01f05d0b243ab1ecd4a8ffb6815273d82385dada1ae3e969447f20a3164f6213100e75838201527377627828a55156b04ac0dc0eb30467f1a552bb0385820152905b84818351169260018060a01b0319937f9e7b61f58c47dc699ac88507c4f5bb9f121c03808c5676a8078fe583e464970090858254161790558285820151167f9e7b61f58c47dc699ac88507c4f5bb9f121c03808c5676a8078fe583e464970190858254161790550151167f9e7b61f58c47dc699ac88507c4f5bb9f121c03808c5676a8078fe583e46497029182541617905581156200019a5750608052516143399081620003228239608051818181611a7e0152818161200b015281816133da01526134c10152f35b60649083519062461bcd60e51b82526004820152601e60248201527f5665696c5061793a20496e76616c696420746f6b656e206164647265737300006044820152fd5b4662aa36a7036200024d57620001f262000305565b50620001fd620002e5565b73f0ffdc93b7e186bc2f8cb3daa75d86d1930a433d81527392c920834ec8941d2c77d188936e1f7a6f49c1278382015273be0e383937d564d7ff0bc3b46c51f0bf8d5c311a8582015290620000d1565b46617a6903620002bc576200026162000305565b506200026c620002e5565b7350157cffd6bbfa2dece204a89ec419c23ef5755d815273e3a9105a3a932253a70f126eb1e3b589c643dd248382015273901f8942346f7ab3a01f6d7613119bca447bb0308582015290620000d1565b83516373cac13b60e01b8152600490fd5b5f80fd5b634e487b7160e01b5f52604160045260245ffd5b60405190606082016001600160401b03811183821017620002d157604052565b6200030f620002e5565b905f82525f60208301525f604083015256fe60a06040526004361015610011575f80fd5b5f3560e01c8063129de6e5146135e25780631772973b1461358d5780631e01abca146134095780632d4147e3146133c557806337597cb5146130ca57806339561dba14612d845780633c1ef6c414612d405780634bab198814612d085780634be8362d14612b7f5780634c5d8a0f14612b635780634d5a327814612b0c5780634d8f9ec514611ecc5780634d91e57d14611c0d578063558ee6a81461195b57806359a33e42146119015780635d74ed73146113d4578063622359b91461126d5780637a870b6314611179578063853aff9114610f6a57806386a4427f14610ec05780638801256814610de15780638927b03014610dbf578063ce71fbbe14610d81578063cfbd924d14610d46578063d00493d614610cf0578063da0fea4b1461060c578063e0e3c08114610330578063e69a79a5146102985763f02fec3e14610158575f80fd5b34610294576080366003190112610294576024356004356044358015158082036102945760643560ff81168103610294576101955f548510613a19565b835f52602092600184526101b1600c60405f2001548710613a65565b845f52600184526101cf60018060a01b0360405f2054163314613abd565b845f526002845260405f20865f528452600860405f200190815460ff811661024f5761ffff191690151560081b61ff00161760011781557ffa71382ddfc4ee59159e8334f34a8aa254c10d048d8954a3b4f87a76982f72f0939291610246919062ff000082549160101b169062ff00001916179055565b604051908152a3005b60405162461bcd60e51b815260048101879052601f60248201527f5665696c5061793a204d6174636820616c72656164792072657665616c6564006044820152606490fd5b5f80fd5b34610294576040366003190112610294576102b16136ad565b6024359060ff8216809203610294576001600160a01b03165f81815260076020526040902054156102f5575f52600860205260405f209060ff198254161790555f80f35b60405162461bcd60e51b81526020600482015260136024820152725665696c5061793a204e6f207265766965777360681b6044820152606490fd5b34610294576060366003190112610294576103496136ad565b6044356001600160401b038111610294576103689036906004016137e2565b6001600160a01b0392831692909183156105c757335f526020926009845260405f20855f52845260ff60405f20541661057257916103b56103ad85935f953691613c13565b602435613dc3565b90818215928361055f575b6103cb903090614059565b9161054b575b6044905f805160206142c483398151915254169160405194859384926307227b9160e21b84526004840152600460248401525af1908115610540575f91610513575b50825f526007825260405f2054155f146104c357825f526006825260405f20555b815f526006815260405f205480156104b0575b610452903090614059565b815f526007815260405f2061046781546139ae565b9055335f526009815260405f2090825f525260405f20600160ff1982541617905533907f08862c99a95efc9de960978cc012c400fa1e7221031e60f8688cd81636f4eb045f80a3005b506104526104bc61419f565b9050610447565b6104e2906006835260405f2054818115610503575b156104f3576141f1565b825f526006825260405f2055610434565b90506104fd61419f565b906141f1565b905061050d61419f565b906104d8565b90508181813d8311610539575b61052a81836138eb565b81010312610294575183610413565b503d610520565b6040513d5f823e3d90fd5b90506044610557614100565b9190506103d1565b506103cb61056b614100565b90506103c0565b60405162461bcd60e51b815260048101859052602760248201527f5665696c5061793a20416c72656164792072657669657765642074686973206560448201526636b83637bcb2b960c91b6064820152608490fd5b60405162461bcd60e51b815260206004820152601960248201527f5665696c5061793a20496e76616c696420656d706c6f796572000000000000006044820152606490fd5b346102945760e0366003190112610294576024356001600160401b0381116102945761063c9036906004016137e2565b6044356001600160401b0381116102945761065b9036906004016137e2565b60c4356001600160401b0381116102945761067a9036906004016137e2565b61068b5f9692965460043510613a19565b6004355f52600160205260ff600a60405f2001541615610cab57335f52600560205260405f206004355f5260205260405f20541580610c6e575b15610c29576004355f526001602052600c60405f2001958654966106e8886139ae565b905561072d6107256107066106fe368686613c13565b606435613cc5565b9261071d610715368784613c13565b608435613dc3565b943691613c13565b60a435613e78565b92818215610c16575b610741903090614059565b828315610c03575b610754903090614059565b838415610bf0575b610767903090614059565b61076f614153565b95610778614100565b95878815610bdd575b61078c903090614059565b868715610bca575b61079f903090614059565b60405198896101a08101106001600160401b036101a08c011117610afc576107e3936107d7916101a08c01604052338c523691613c13565b60208a01523691613c13565b60408701526060860152608085015260a084015260c083015260e08201525f6101008201525f6101208201525f6101408201525f610160820152426101808201526004355f52600260205260405f20825f5260205260405f209160018060a01b038251166001600160601b0360a01b84541617835560208201519283516001600160401b038111610afc5761087b60018301546138a0565b601f8111610b86575b506020601f8211600114610b1b5781929394955f92610b10575b50508160011b915f199060031b1c19161760018201555b60408301519283516001600160401b038111610afc576108d860028401546138a0565b94601f8611610ab8575b602095508590601f8311600114610a4857918060099492610180945f92610a3d575b50508160011b915f199060031b1c19161760028501555b606081015160038501556080810151600485015560a0810151600585015560c0810151600685015560e081015160078501556008840161096e6101008301511515829060ff801983541691151516179055565b610120820151815461ff00191690151560081b61ff0016178155610140820151815462ff0000191660109190911b62ff000016178155610160820151151563ff00000082549160181b169063ff000000191617905501519101556004355f52600382526109de8160405f20613c91565b335f52600482526109f460043560405f20613c91565b335f526005825260405f206004355f5282528060405f20556040519033816004357ffdb73f695bc6f43d03128339b6d99121833f5cb8d65f8cb3ffc6abe2e08a0a5b5f80a48152f35b015190508880610904565b90600285015f52865f20915f5b601f1985168110610aa1575092600994926001926101809583601f19811610610a89575b505050811b01600285015561091b565b01515f1960f88460031b161c19169055888080610a79565b919288600181928685015181550194019201610a55565b600284015f5260205f20601f830160051c810160208410610af5575b601f880160051c82018110610aea5750506108e2565b5f8155600101610ad4565b5080610ad4565b634e487b7160e01b5f52604160045260245ffd5b01519050858061089e565b600183015f5260205f20905f5b601f1984168110610b6e575060019394959683601f19811610610b56575b505050811b0160018201556108b5565b01515f1960f88460031b161c19169055858080610b46565b9091602060018192858b015181550193019101610b28565b600183015f5260205f20601f830160051c810160208410610bc3575b601f830160051c82018110610bb8575050610884565b5f8155600101610ba2565b5080610ba2565b5061079f610bd6614100565b9050610794565b5061078c610be9614153565b9050610781565b50610767610bfc614153565b905061075c565b50610754610c0f614100565b9050610749565b50610741610c226140ad565b9050610736565b60405162461bcd60e51b815260206004820152601860248201527f5665696c5061793a20416c7265616479206170706c69656400000000000000006044820152606490fd5b50600360205260405f2054151580610c87575b156106c5565b50600260205260405f205f80526020523360018060a01b0360405f20541614610c81565b60405162461bcd60e51b815260206004820152601a60248201527f5665696c5061793a204a6f62206973206e6f74206163746976650000000000006044820152606490fd5b3461029457604036600319011261029457610d096136ad565b6001600160a01b03602435818116929083900361029457165f52600960205260405f20905f52602052602060ff60405f2054166040519015158152f35b34610294576020366003190112610294576001600160a01b03610d676136ad565b165f526008602052602060ff60405f205416604051908152f35b3461029457610d8f366136f6565b905f52600360205260405f20805482101561029457602091610db09161380f565b90549060031b1c604051908152f35b34610294575f366003190112610294576020610dd961402a565b604051908152f35b3461029457610def366136f6565b610dfb5f548310613a19565b815f5260209160018352610e17600c60405f2001548310613a65565b805f5260018352610e3560018060a01b0360405f2054163314613abd565b5f526002825260405f20905f52815260405f2060ff600882015460181c1615610e7d576002610e64910161390c565b90610e79604051928284938452830190613748565b0390f35b6064826040519062461bcd60e51b825280600483015260248201527f5665696c5061793a20526573756d65206e6f742079657420756e6c6f636b65646044820152fd5b34610294576020366003190112610294576001600160a01b03610ee16136ad565b16805f52600760205260405f205415610f25575f52600660205260405f20548015610f12575b610f1090614245565b005b50610f10610f1e61419f565b9050610f07565b60405162461bcd60e51b815260206004820152601760248201527f5665696c5061793a204e6f2072657669657773207965740000000000000000006044820152606490fd5b34610294575f36600319011261029457335f5260206004815260405f206040518082848294549384815201905f52845f20925f5b868282106111635784610fb3818603826138eb565b805190610fbf826139d3565b91610fc9816139d3565b610fd282613b21565b94610fdc83613b21565b90610fe6846139d3565b92610ff0856139d3565b94610ffa816139d3565b965f5b82811061108b57505050611039959361106161107d946110538b611045610e799a9761106f976040519e8f9e8f9160e0835260e08301906136c3565b928184039101526136c3565b908b820360408d0152613786565b9089820360608b0152613786565b908782036080890152613838565b9085820360a0870152613838565b9083820360c08501526136c3565b8060098661110e878f8f9086611107916110fd6110aa60019b8d613a05565b5197335f526005815260405f20895f52815260405f20546110f5856002998a855260405f20845f52855260405f209c805f5260018096526110ef8360405f209c613a05565b52613a05565b52850161390c565b6110ef8383613a05565b500161390c565b611118848b613a05565b52611123838a613a05565b5060088a8c61114986848601549261113d8260ff96613a05565b85851615159052613a05565b921c1615159052015461115c828c613a05565b5201610ffd565b8554845260019586019587955093019201610f9e565b3461029457611187366136f6565b905f52600260205260405f20905f5260205260405f2060018060a01b038154166111b36001830161390c565b916111c06002820161390c565b60ff60038301549260048101546005820154600683015490600784015492611218600960088701549601549761120a6040519c8d809d60206101a0928392815201528d0190613748565b908b820360408d0152613748565b9760608a0152608089015260a088015260c087015260e08601528181161515610100860152818160081c161515610120860152818160101c1661014086015260181c1615156101608401526101808301520390f35b34610294576020366003190112610294576004355f90815260016020819052604090912080546001600160a01b0316916112a890820161390c565b906112b56002820161390c565b6112c16003830161390c565b916112ce6004820161390c565b926112db6005830161390c565b936112e86006840161390c565b946007840154956008850154600986015491600a87015493600b88015495600c89015497600d8a015499600e01549a6040519e8f9e8f91610200908352806020840152820161133691613748565b90808203906040015261134891613748565b8d810360608f015261135991613748565b8c810360808e015261136a91613748565b8b810360a08d015261137b91613748565b8a810360c08c015261138c91613748565b9760e08a015261010089015261012088015260ff8116151561014088015260081c60ff1615156101608701526101808601526101a08501526101c08401526101e08301520390f35b34610294576113e2366136f6565b906113ef5f548210613a19565b805f5260206001815261140a600c60405f2001548410613a65565b815f526002815260405f20835f52815260405f20825f526001825260405f209160ff6008830154166118ae57600382015491600784015491831561189e575b821561188e575b60018060a01b03915f805160206142c483398151915293838554169460405196631d44e90160e21b885260048801526024918288015283876064815f60449a818c8401525af1968715610540575f9761185f575b5084815416604051858189815f639cd07acb60e01b968783526032600484015260028a8401525af18015610540575f90611830575b6114ed91506114e6614100565b908a613f2c565b9660048501548660088c01548215611820575b8015611812575b60648a875416935f6040519586948593631391547f60e01b855260048501528b84015281888401525af18015610540575f906117e5575b5f915087898654168460405180958193898352601e600484015260028c8401525af18015610540575f906117b6575b611580925061157a614100565b91613f2c565b936005860154918760098d015484156117a6575b8015611798575b60648b885416955f604051978894859363f77f3f1d60e01b855260048501528884015281878401525af1938415610540578989945f96611762575b505f9060029697541660405196879586948552601460048601528401525af19081156105405788955f92611726575b5050956116286007949361162261162d9461168e9a61157a614100565b92613ff8565b613ff8565b8060068301558080159182611713575b611648903090614059565b61165b868a541683839061170a57614059565b906116f7575b61166a90614245565b015582159383856116e4575b611681903090614059565b541682846116d657614059565b906116c3575b61169d90614245565b7faa8bbadb289a5d836c5a29b62b1e26336926974e58e77b4ab5840cd8ca90a1265f80a3005b5061169d6116cf614153565b9050611694565b506116df614153565b614059565b506116816116f0614153565b9050611676565b5061166a611703614100565b9050611661565b506116df614100565b5061164861171f614100565b905061163d565b819396508092509493943d831161175b575b61174281836138eb565b8101031261029457518693919291906116286007611605565b503d611738565b94809296508591503d8311611791575b61177c81836138eb565b8101031261029457915192879290895f6115d6565b503d611772565b506117a1614153565b61159b565b93506117b0614153565b93611594565b508782813d83116117de575b6117cc81836138eb565b8101031261029457611580915161156d565b503d6117c2565b508681813d831161180b575b6117fb81836138eb565b81010312610294575f905161153e565b503d6117f1565b5061181b614100565b611507565b915061182a614100565b91611500565b508581813d8311611858575b61184681836138eb565b81010312610294576114ed90516114d9565b503d61183c565b9096508381813d8311611887575b61187781836138eb565b810103126102945751958a6114a4565b503d61186d565b91506118986140ad565b91611450565b92506118a86140ad565b92611449565b6084906040519062461bcd60e51b82526004820152602660248201527f5665696c5061793a20416c7265616479207265736f6c76656420616e642072656044820152651d99585b195960d21b6064820152fd5b34610294576020366003190112610294576001600160a01b036119226136ad565b165f526007602052606060405f2054600860205260ff60405f205416600660205260405f20549060405192835260208301526040820152f35b3461029457611969366136f6565b6119755f548310613a19565b815f52602060018152611990600c60405f2001548310613a65565b825f526001815260018060a01b03906119b08260405f2054163314613abd565b835f526002815260405f20835f52815260405f2091845f526001825260405f209260088101805460ff811680611c00575b15611bbb5760ff8160181c16611b785763010000009063ff0000001916179055600d840193600e8554910194855480831015611a41575b33888a7fd9c67b23e0903b466cca5aa7664734499e4c82bbeb358ea2eb592f06d52c83fa5f80a4005b808303928311611b6457919055815460405163a9059cbb60e01b81529084166001600160a01b03166004820152602481019190915283816044815f7f000000000000000000000000000000000000000000000000000000000000000088165af1908115610540575f91611b37575b5015611af257849286927f9367928aef8048626ad2184e12abeecbeb12bcfcd7cd9974789ebb7a7bdace079254169454604051908152a482808080808080611a18565b60405162461bcd60e51b815260048101849052601f60248201527f5665696c5061793a20426f756e7479207472616e73666572206661696c6564006044820152606490fd5b611b579150843d8611611b5d575b611b4f81836138eb565b810190613b09565b87611aaf565b503d611b45565b634e487b7160e01b5f52601160045260245ffd5b6064856040519062461bcd60e51b825280600483015260248201527f5665696c5061793a20526573756d6520616c726561647920756e6c6f636b65646044820152fd5b60405162461bcd60e51b815260048101869052601b60248201527f5665696c5061793a204e6f20636f6e6669726d6564206d6174636800000000006044820152606490fd5b5060ff8160081c166119e1565b3461029457602036600319011261029457611c2c5f5460043510613a19565b6004355f526001602052611c4d60018060a01b0360405f2054163314613abd565b6004355f526001602052600c60405f200154611c68816139d3565b611c71826139d3565b91611c7b81613b21565b611c84826139d3565b90611c8e836139d3565b611c97846139d3565b611ca0856139d3565b91611caa866139bc565b94611cb860405196876138eb565b868652611cc4876139bc565b601f1901366020880137611cd7876139d3565b94611ce1886139d3565b975f5b818110611dce575050604051998a99610140808c528b01611d04916136c3565b8a810360208c0152611d159161370c565b89810360408b0152611d2691613786565b88810360608a0152611d3791613838565b8781036080890152611d4891613838565b86810360a0880152611d599161386d565b85810360c0870152611d6a9161386d565b84810360e086015282519081815260200192602001905f5b818110611db25750505081611da39185610e79959403610100870152613838565b908382036101208501526136c3565b825160ff16855287965060209485019490920191600101611d82565b60049b92939495969798999a9b355f52600260205260405f20815f5260205280808d60405f2092611dfe91613a05565b5280546001600160a01b0316611e148386613a05565b52611e216001820161390c565b611e2b8387613a05565b52611e368286613a05565b506008808201549060ff90611e4b858a613a05565b828416151590528183611e5e878d613a05565b921c16151590526007830154611e74858c613a05565b526006830154611e84858d613a05565b52601082901c8116611e96858f613a05565b52611ea1848d613a05565b9160181c161515905260090154611eb8828d613a05565b526001019a9998979695949392919a611ce4565b3461029457610180366003190112610294576004356001600160401b03811161029457611efd9036906004016137e2565b906080526024356001600160401b03811161029457611f209036906004016137e2565b906044356001600160401b03811161029457611f409036906004016137e2565b92906064356001600160401b03811161029457611f619036906004016137e2565b9490916084356001600160401b03811161029457611f839036906004016137e2565b9660a4356001600160401b03811161029457611fa39036906004016137e2565b610124356001600160401b03811161029457611fc39036906004016137e2565b9590946101643515612ab85761014435151580612aa8575b15612a58576040516323b872dd60e01b81523360048201523060248201526101643560448201526020816064815f7f00000000000000000000000000000000000000000000000000000000000000006001600160a01b03165af1908115610540575f91612a39575b50156129f4575f549b6120558d6139ae565b5f5561209b61209261207361206b368c8c613c13565b60c435613cc5565b9861208a612082368d84613c13565b60e435613dc3565b9a3691613c13565b61010435613e78565b988788156129e1575b6120af903090614059565b8889156129ce575b6120c2903090614059565b898a156129bb575b6120d5903090614059565b6040519a8b6001600160401b03610200828181011092011117610afc578f978c8f8f61215498612148966121326060946121609f9461212661213e966102008a01604052338a523690608051613c13565b60208901523691613c13565b60408601523691613c13565b9101523691613c13565b60808b01523691613c13565b60a08801523691613c13565b60c085015260e084015261010083015261012082015260016101408201525f610160820152426101808201525f6101a0820152610164356101c0820152610144356101e0820152835f52600160205260405f209060018060a01b038151166001600160601b0360a01b83541617825560208101518051906001600160401b038211610afc5781906121f460018601546138a0565b601f811161296b575b50602090601f83116001146128fd575f926128f2575b50508160011b915f199060031b1c19161760018301555b60408101518051906001600160401b038211610afc57819061224f60028601546138a0565b601f81116128a2575b50602090601f8311600114612834575f92612829575b50508160011b915f199060031b1c19161760028301555b60608101518051906001600160401b038211610afc5781906122aa60038601546138a0565b601f81116127d9575b50602090601f831160011461276b575f92612760575b50508160011b915f199060031b1c19161760038301555b60808101518051906001600160401b038211610afc57819061230560048601546138a0565b601f8111612710575b50602090601f83116001146126a2575f92612697575b50508160011b915f199060031b1c19161760048301555b60a08101518051906001600160401b038211610afc57819061236060058601546138a0565b601f8111612647575b50602090601f83116001146125d9575f926125ce575b50508160011b915f199060031b1c19161760058301555b60c08101518051906001600160401b038211610afc576123b960068501546138a0565b601f811161258a575b509160209793918795938990601f83116001146124ed576101e06124d794846124c898957f752f79388b35d90d4202940ffb0c752f318a347800decc9e4c322e2cec1b404a9a9895600e955f926124e2575b50508160011b915f199060031b1c19161760068501555b60e081015160078501556101008101516008850155610120810151600985015561248b600a850161246f6101408401511515829060ff801983541691151516179055565b610160830151815461ff00191690151560081b61ff0016179055565b610180810151600b8501556101a0810151600c8501556101c0810151600d8501550151910155604051938493604085526040850190608051613c71565b908382038a8501523397613c71565b0390a3604051908152f35b015190508f80612414565b90600685015f528a5f20915f5b601f198516811061257057506124d7946001857f752f79388b35d90d4202940ffb0c752f318a347800decc9e4c322e2cec1b404a9a9895600e956101e0956124c89c99601f19811610612558575b505050811b01600685015561242b565b01515f1960f88460031b161c191690558f8080612548565b8183015184558b9950600190930192918c01918c016124fa565b600685015f5260205f20601f840160051c8101602085106125c7575b601f830160051c820181106125bc5750506123c2565b5f81556001016125a6565b50806125a6565b01519050888061237f565b9250600585015f5260205f20905f935b601f198416851061262c576001945083601f19811610612614575b505050811b016005830155612396565b01515f1960f88460031b161c19169055888080612604565b818101518355602094850194600190930192909101906125e9565b909150600585015f5260205f20601f840160051c810160208510612690575b90849392915b601f830160051c82018110612682575050612369565b5f815585945060010161266c565b5080612666565b015190508880612324565b9250600485015f5260205f20905f935b601f19841685106126f5576001945083601f198116106126dd575b505050811b01600483015561233b565b01515f1960f88460031b161c191690558880806126cd565b818101518355602094850194600190930192909101906126b2565b909150600485015f5260205f20601f840160051c810160208510612759575b90849392915b601f830160051c8201811061274b57505061230e565b5f8155859450600101612735565b508061272f565b0151905088806122c9565b9250600385015f5260205f20905f935b601f19841685106127be576001945083601f198116106127a6575b505050811b0160038301556122e0565b01515f1960f88460031b161c19169055888080612796565b8181015183556020948501946001909301929091019061277b565b909150600385015f5260205f20601f840160051c810160208510612822575b90849392915b601f830160051c820181106128145750506122b3565b5f81558594506001016127fe565b50806127f8565b01519050888061226e565b9250600285015f5260205f20905f935b601f1984168510612887576001945083601f1981161061286f575b505050811b016002830155612285565b01515f1960f88460031b161c1916905588808061285f565b81810151835560209485019460019093019290910190612844565b909150600285015f5260205f20601f840160051c8101602085106128eb575b90849392915b601f830160051c820181106128dd575050612258565b5f81558594506001016128c7565b50806128c1565b015190508880612213565b9250600185015f5260205f20905f935b601f1984168510612950576001945083601f19811610612938575b505050811b01600183015561222a565b01515f1960f88460031b161c19169055888080612928565b8181015183556020948501946001909301929091019061290d565b909150600185015f5260205f20601f840160051c8101602085106129b4575b90849392915b601f830160051c820181106129a65750506121fd565b5f8155859450600101612990565b508061298a565b506120d56129c7614153565b90506120ca565b506120c26129da614100565b90506120b7565b506120af6129ed6140ad565b90506120a4565b60405162461bcd60e51b815260206004820152601e60248201527f5665696c5061793a20546f6b656e207472616e73666572206661696c656400006044820152606490fd5b612a52915060203d602011611b5d57611b4f81836138eb565b8e612043565b60405162461bcd60e51b815260206004820152602260248201527f5665696c5061793a20496e76616c696420626f756e74792070657220756e6c6f604482015261636b60f01b6064820152608490fd5b5061016435610144351115611fdb565b60405162461bcd60e51b815260206004820152602660248201527f5665696c5061793a204d757374206465706f73697420696e7465727669657720604482015265626f756e747960d01b6064820152608490fd5b3461029457604036600319011261029457612b256136ad565b6001600160a01b03165f9081526004602052604090208054602435919082101561029457602091612b559161380f565b90546040519160031b1c8152f35b34610294575f3660031901126102945760205f54604051908152f35b3461029457612b8d366136f6565b612b995f548310613a19565b815f5260019160209260018452612bb8600c60405f2001548410613a65565b815f526002926002855260405f20815f52855260405f2092805f5260018652612c1560405f2094612bf8600882015460ff81169081612cfa575b50613b6a565b60018060a01b0380809754163314918215612cec575b5050613bb6565b5f52600a855260405f20905f52845260405f20908154612c34816139d3565b94612c3e82613b21565b93612c48836139d3565b955f5b848110612c8e57612c7389610e798a612c808e8c60405196879660608852606088019061370c565b9186830390870152613786565b9083820360408501526136c3565b8082612c9b889386613c58565b505416612ca8828c613a05565b52612cb7826111078387613c58565b612cc1828a613a05565b52612ccc8189613a05565b5084612cd88286613c58565b500154612ce5828b613a05565b5201612c4b565b909150541633148589612c0e565b60ff915060081c168a612bf2565b34610294576020366003190112610294576001600160a01b03612d296136ad565b165f526007602052602060405f2054604051908152f35b34610294576040366003190112610294576001600160a01b03612d616136ad565b165f52600560205260405f206024355f52602052602060405f2054604051908152f35b3461029457606036600319011261029457602480356004356001600160401b0360443581811161029457612dbc9036906004016137e2565b90612dc95f548510613a19565b835f526001602093818552612de6600c60405f2001548810613a65565b855f526002855260405f20875f52855260405f2091865f52808652612e3d60405f2093612e21600882015460ff811690816130bc5750613b6a565b60018060a01b03808096541633149182156130ae575050613bb6565b841561307157865f52600a865260405f20885f52865260405f205498875f52600a875260405f20895f52875260405f209460405196606088018881108682111761305e57604052338852612e9391369190613c13565b938787019485526040870195428752805490600160401b82101561305e5790612ec0918582018155613c58565b97909761304c5751166001600160601b0360a01b87541617865581860193519081519384116130395750612ef484546138a0565b601f8111612ff3575b508690601f8411600114612f6a5792806002959381937f402a45bf1deda6d11334ec5ba68b3cfb7b6d0066d03a8abb09996fd18cffa8659a9998965f94612f5f575b50501b915f199060031b1c19161790555b519101556040519485523394a4005b015192508d80612f3f565b90601f93929319831691855f52885f20925f5b818110612fde5750917f402a45bf1deda6d11334ec5ba68b3cfb7b6d0066d03a8abb09996fd18cffa86599989795939185600298969410612fc6575b505050811b019055612f50565b01515f1960f88460031b161c191690558b8080612fb9565b82840151855593860193928a01928a01612f7d565b845f52875f20601f850160051c81019189861061302f575b601f0160051c019083905b828110613024575050612efd565b5f8155018390613016565b909150819061300b565b634e487b7160e01b5f9081526041600452fd5b82634e487b7160e01b5f525f6004525ffd5b83634e487b7160e01b5f5260416004525ffd5b60405162461bcd60e51b8152600481018790526016818b0152755665696c5061793a20456d707479206d65737361676560501b6044820152606490fd5b90915054163314848c612c0e565b60ff915060081c168d612bf2565b34610294575f366003190112610294575f8054815b81811061339157506130f0826139d3565b906130fa836139d3565b92839161310682613b21565b61310f83613b21565b61311884613b21565b61312185613b21565b61312a86613b21565b9161313487613b21565b9361313e886139d3565b95613148896139d3565b978b8161315d6131578d6139d3565b9c6139d3565b809d8d8d8d8d8d8d8d8d8d5f9c5f9c5b8d1061324e579a999b506040519b8c9b8c6101808091528d0161318f916136c3565b8c810360208e01526131a09161370c565b8b810360408d01526131b191613786565b8a810360608c01526131c291613786565b89810360808b01526131d391613786565b88810360a08a01526131e491613786565b87810360c08901526131f591613786565b86810360e088015261320691613786565b858103610100870152613218916136c3565b84810361012086015261322a916136c3565b83810361014085015261323c916136c3565b828103610160840152610e79916136c3565b600a9a8d5f526001918260205260ff60405f209d8e015416613293575b50505050505050505050505050506001018c8f8f8d8f918d8f918d8f918d8f918e908e61316d565b8e9f60019f986133759f9d98829f9a61331c9161336f9f9a859f9a600e9f988f90886110fd9461330f6133369f839f966133026133299f869c936110fd60049b6111079a6132fa8b8e819a6132e983809a613a05565b52546001600160a01b031692613a05565b528b0161390c565b506110fd6002880161390c565b506110fd6003850161390c565b506110fd60058b0161390c565b506110fd6006880161390c565b5061334686600b86015492613a05565b5261335685600c85015492613a05565b5261336684600d84015492613a05565b52015492613a05565b526139ae565b9190508c8f8f8d8f918d8f918d8f918d8f915f8f918b9061326b565b805f52600160205260ff600a60405f200154166133b1575b6001016130df565b916133bd6001916139ae565b9290506133a9565b34610294575f366003190112610294576040517f00000000000000000000000000000000000000000000000000000000000000006001600160a01b03168152602090f35b3461029457602080600319360112610294576004359061342b5f548310613a19565b815f526001815260018060a01b039061344b8260405f2054163314613abd565b825f5260018152600d60405f20600a810160ff198154169055019182549283613496575b847f6edf0875f8a9ed26275e4e52f2355d96ea7fd96625d6992a9733be603136fa6e5f80a2005b5f9081905560405163a9059cbb60e01b815233600482015260248101859052918391839160449183917f0000000000000000000000000000000000000000000000000000000000000000165af1908115610540575f91613570575b501561352c577ff1ed347f033f54c0d6f1589c933d81b4256cf2f72a785106e3653a565f7433a283916040519384523393a38180808061346f565b6064906040519062461bcd60e51b82526004820152601f60248201527f5665696c5061793a20526566756e64207472616e73666572206661696c6564006044820152fd5b6135879150823d8411611b5d57611b4f81836138eb565b846134f1565b346102945761359b366136f6565b906135a85f548210613a19565b805f5260016020526135c2600c60405f2001548310613a65565b5f52600a60205260405f20905f52602052602060405f2054604051908152f35b3461029457602080600319360112610294576135fc6136ad565b5f80546001600160a01b03939092909190841690805b84811061367c5750613623906139d3565b935f925f5b8581106136455760405160208082528190610e799082018a6136c3565b806001915f52818352848460405f20541614613662575b01613628565b8061367661366f886139ae565b978a613a05565b5261365c565b805f5260018452828660405f20541614613699575b600101613612565b906136a56001916139ae565b919050613691565b600435906001600160a01b038216820361029457565b9081518082526020808093019301915f5b8281106136e2575050505090565b8351855293810193928101926001016136d4565b6040906003190112610294576004359060243590565b9081518082526020808093019301915f5b82811061372b575050505090565b83516001600160a01b03168552938101939281019260010161371d565b91908251928382525f5b848110613772575050825f602080949584010152601f8019910116010190565b602081830181015184830182015201613752565b90808251908181526020809101926020808460051b8301019501935f915b8483106137b45750505050505090565b90919293949584806137d2600193601f198682030187528a51613748565b98019301930191949392906137a4565b9181601f84011215610294578235916001600160401b038311610294576020838186019501011161029457565b8054821015613824575f5260205f2001905f90565b634e487b7160e01b5f52603260045260245ffd5b9081518082526020808093019301915f5b828110613857575050505090565b8351151585529381019392810192600101613849565b9081518082526020808093019301915f5b82811061388c575050505090565b83518552938101939281019260010161387e565b90600182811c921680156138ce575b60208310146138ba57565b634e487b7160e01b5f52602260045260245ffd5b91607f16916138af565b6001600160401b038111610afc57604052565b90601f801991011681019081106001600160401b03821117610afc57604052565b9060405191825f825461391e816138a0565b908184526020946001916001811690815f1461398c575060011461394e575b50505061394c925003836138eb565b565b5f90815285812095935091905b81831061397457505061394c93508201015f808061393d565b8554888401850152948501948794509183019161395b565b9250505061394c94925060ff191682840152151560051b8201015f808061393d565b5f198114611b645760010190565b6001600160401b038111610afc5760051b60200190565b906139dd826139bc565b6139ea60405191826138eb565b82815280926139fb601f19916139bc565b0190602036910137565b80518210156138245760209160051b010190565b15613a2057565b60405162461bcd60e51b815260206004820152601b60248201527f5665696c5061793a204a6f6220646f6573206e6f7420657869737400000000006044820152606490fd5b15613a6c57565b60405162461bcd60e51b815260206004820152602360248201527f5665696c5061793a204170706c69636174696f6e20646f6573206e6f742065786044820152621a5cdd60ea1b6064820152608490fd5b15613ac457565b60405162461bcd60e51b815260206004820152601960248201527f5665696c5061793a204e6f742074686520656d706c6f796572000000000000006044820152606490fd5b90816020910312610294575180151581036102945790565b90613b2b826139bc565b613b3860405191826138eb565b8281528092613b49601f19916139bc565b01905f5b828110613b5957505050565b806060602080938501015201613b4d565b15613b7157565b60405162461bcd60e51b815260206004820152601f60248201527f5665696c5061793a204e6f20636f6e6669726d656420464845206d61746368006044820152606490fd5b15613bbd57565b60405162461bcd60e51b815260206004820152602860248201527f5665696c5061793a204e6f742061207061727469636970616e7420696e2074686044820152670d2e640dac2e8c6d60c31b6064820152608490fd5b9291926001600160401b038211610afc5760405191613c3c601f8201601f1916602001846138eb565b829481845281830111610294578281602093845f960137010152565b8054821015613824575f52600360205f20910201905f90565b908060209392818452848401375f828201840152601f01601f1916010190565b8054600160401b811015610afc57613cae9160018201815561380f565b819291549060031b91821b915f19901b1916179055565b5f805160206142c48339815191525460405163045fc19560e11b81526004810192909252336024830152608060448301526001600160a01b03939260209183919086169082905f908290613d1d906084830190613748565b6005606483015203925af1908115610540575f91613d91575b5080925f805160206142e48339815191525416803b1561029457604051630f8e573b60e21b815260048101929092523360248301525f908290818381604481015b03925af1801561054057613d885750565b61394c906138d8565b90506020813d602011613dbb575b81613dac602093836138eb565b8101031261029457515f613d36565b3d9150613d9f565b5f805160206142c48339815191525460405163045fc19560e11b81526004810192909252336024830152608060448301526001600160a01b03939260209183919086169082905f908290613e1b906084830190613748565b6002606483015203925af1908115610540575f91613d91575080925f805160206142e48339815191525416803b1561029457604051630f8e573b60e21b815260048101929092523360248301525f90829081838160448101613d77565b5f805160206142c48339815191525460405163045fc19560e11b81526004810192909252336024830152608060448301526001600160a01b03939260209183919086169082905f908290613ed0906084830190613748565b82606483015203925af1908115610540575f91613d91575080925f805160206142e48339815191525416803b1561029457604051630f8e573b60e21b815260048101929092523360248301525f90829081838160448101613d77565b91908215613fe8575b8015613fda575b8115613fc4575b6064602092935f60018060a01b035f805160206142c483398151915254166040519687958694637702dcff60e01b86526004860152602485015260448401525af1908115610540575f91613f95575090565b90506020813d602011613fbc575b81613fb0602093836138eb565b81010312610294575190565b3d9150613fa3565b602091506064613fd2614100565b925050613f43565b50613fe3614100565b613f3c565b9150613ff2614153565b91613f35565b9061400f91801561401c575b8115614012576141f1565b90565b90506104fd614100565b50614025614100565b614004565b4660010361403757600190565b4662aa36a7036140475761271190565b617a694614614054575f90565b5f1990565b5f805160206142e4833981519152546001600160a01b031691823b1561029457604051635ca4b5b160e11b815260048101929092526001600160a01b03166024820152905f90829081838160448101613d77565b5f805160206142c483398151915254604051639cd07acb60e01b81525f60048201819052600560248301529091602091839160449183916001600160a01b03165af1908115610540575f91613f95575090565b5f805160206142c483398151915254604051639cd07acb60e01b81525f60048201819052600260248301529091602091839160449183916001600160a01b03165af1908115610540575f91613f95575090565b5f602060018060a01b035f805160206142c48339815191525416604460405180948193639cd07acb60e01b83528160048401528160248401525af1908115610540575f91613f95575090565b5f805160206142c483398151915254604051639cd07acb60e01b81525f600480830182905260248301529091602091839160449183916001600160a01b03165af1908115610540575f91613f95575090565b90602090606460018060a01b035f805160206142c48339815191525416935f604051958694859363022f65e760e31b8552600485015260248401528160448401525af1908115610540575f91613f95575090565b60405190604082018281106001600160401b03821117610afc576040526001825260208201602036823782511561382457525f805160206142e4833981519152546001600160a01b0316803b1561029457604051637d6e912360e11b815260206004820152915f918391829084908290613d7790602483019061386d56fe9e7b61f58c47dc699ac88507c4f5bb9f121c03808c5676a8078fe583e46497019e7b61f58c47dc699ac88507c4f5bb9f121c03808c5676a8078fe583e4649700a264697066735822122061e26f4301d8b48a40e6fa6e1779c6d8f7c34d72ffec8f42210f8ad2f672bb2c64736f6c63430008180033",
  "linkReferences": {},
  "deployedLinkReferences": {}
}