{
  "_format": "hh-sol-artifact-1",
  "contractName": "BlindHire",
  "sourceName": "contracts/BlindHire.sol",
  "abi": [
    {
      "inputs": [],
      "name": "ZamaProtocolUnsupported",
      "type": "error"
    },
    {
      "anonymous": false,
      "inputs": [
        {
          "indexed": true,
          "internalType": "uint256",
          "name": "jobId",
          "type": "uint256"
        },
        {
          "indexed": true,
          "internalType": "uint256",
          "name": "applicationId",
          "type": "uint256"
        }
      ],
      "name": "ApplicationResolved",
      "type": "event"
    },
    {
      "anonymous": false,
      "inputs": [
        {
          "indexed": true,
          "internalType": "uint256",
          "name": "jobId",
          "type": "uint256"
        },
        {
          "indexed": true,
          "internalType": "uint256",
          "name": "applicationId",
          "type": "uint256"
        },
        {
          "indexed": true,
          "internalType": "address",
          "name": "candidate",
          "type": "address"
        }
      ],
      "name": "ApplicationSubmitted",
      "type": "event"
    },
    {
      "anonymous": false,
      "inputs": [
        {
          "indexed": true,
          "internalType": "uint256",
          "name": "jobId",
          "type": "uint256"
        }
      ],
      "name": "JobClosed",
      "type": "event"
    },
    {
      "anonymous": false,
      "inputs": [
        {
          "indexed": true,
          "internalType": "uint256",
          "name": "jobId",
          "type": "uint256"
        },
        {
          "indexed": true,
          "internalType": "address",
          "name": "employer",
          "type": "address"
        },
        {
          "indexed": false,
          "internalType": "string",
          "name": "title",
          "type": "string"
        },
        {
          "indexed": false,
          "internalType": "string",
          "name": "company",
          "type": "string"
        }
      ],
      "name": "JobPosted",
      "type": "event"
    },
    {
      "anonymous": false,
      "inputs": [
        {
          "indexed": true,
          "internalType": "uint256",
          "name": "jobId",
          "type": "uint256"
        },
        {
          "indexed": true,
          "internalType": "uint256",
          "name": "applicationId",
          "type": "uint256"
        },
        {
          "indexed": false,
          "internalType": "bool",
          "name": "isMatch",
          "type": "bool"
        }
      ],
      "name": "MatchRevealed",
      "type": "event"
    },
    {
      "anonymous": false,
      "inputs": [
        {
          "indexed": true,
          "internalType": "uint256",
          "name": "jobId",
          "type": "uint256"
        },
        {
          "indexed": true,
          "internalType": "uint256",
          "name": "applicationId",
          "type": "uint256"
        },
        {
          "indexed": true,
          "internalType": "address",
          "name": "employer",
          "type": "address"
        }
      ],
      "name": "ResumeUnlocked",
      "type": "event"
    },
    {
      "inputs": [
        {
          "internalType": "uint256",
          "name": "",
          "type": "uint256"
        },
        {
          "internalType": "uint256",
          "name": "",
          "type": "uint256"
        }
      ],
      "name": "applications",
      "outputs": [
        {
          "internalType": "address",
          "name": "candidate",
          "type": "address"
        },
        {
          "internalType": "string",
          "name": "candidateName",
          "type": "string"
        },
        {
          "internalType": "string",
          "name": "resumeIpfsCid",
          "type": "string"
        },
        {
          "internalType": "euint64",
          "name": "min_expectation",
          "type": "bytes32"
        },
        {
          "internalType": "ebool",
          "name": "isMatched",
          "type": "bytes32"
        },
        {
          "internalType": "bool",
          "name": "matchRevealed",
          "type": "bool"
        },
        {
          "internalType": "bool",
          "name": "matchResult",
          "type": "bool"
        },
        {
          "internalType": "bool",
          "name": "resumeUnlocked",
          "type": "bool"
        },
        {
          "internalType": "uint256",
          "name": "appliedAt",
          "type": "uint256"
        }
      ],
      "stateMutability": "view",
      "type": "function"
    },
    {
      "inputs": [
        {
          "internalType": "uint256",
          "name": "jobId",
          "type": "uint256"
        },
        {
          "internalType": "string",
          "name": "candidateName",
          "type": "string"
        },
        {
          "internalType": "string",
          "name": "resumeIpfsCid",
          "type": "string"
        },
        {
          "internalType": "bytes32",
          "name": "encryptedExpectation",
          "type": "bytes32"
        },
        {
          "internalType": "bytes",
          "name": "inputProof",
          "type": "bytes"
        }
      ],
      "name": "applyToJob",
      "outputs": [
        {
          "internalType": "uint256",
          "name": "applicationId",
          "type": "uint256"
        }
      ],
      "stateMutability": "nonpayable",
      "type": "function"
    },
    {
      "inputs": [
        {
          "internalType": "address",
          "name": "",
          "type": "address"
        },
        {
          "internalType": "uint256",
          "name": "",
          "type": "uint256"
        }
      ],
      "name": "candidateApplicationId",
      "outputs": [
        {
          "internalType": "uint256",
          "name": "",
          "type": "uint256"
        }
      ],
      "stateMutability": "view",
      "type": "function"
    },
    {
      "inputs": [
        {
          "internalType": "address",
          "name": "",
          "type": "address"
        },
        {
          "internalType": "uint256",
          "name": "",
          "type": "uint256"
        }
      ],
      "name": "candidateJobIds",
      "outputs": [
        {
          "internalType": "uint256",
          "name": "",
          "type": "uint256"
        }
      ],
      "stateMutability": "view",
      "type": "function"
    },
    {
      "inputs": [
        {
          "internalType": "uint256",
          "name": "jobId",
          "type": "uint256"
        }
      ],
      "name": "closeJob",
      "outputs": [],
      "stateMutability": "nonpayable",
      "type": "function"
    },
    {
      "inputs": [],
      "name": "confidentialProtocolId",
      "outputs": [
        {
          "internalType": "uint256",
          "name": "",
          "type": "uint256"
        }
      ],
      "stateMutability": "view",
      "type": "function"
    },
    {
      "inputs": [
        {
          "internalType": "string",
          "name": "title",
          "type": "string"
        },
        {
          "internalType": "string",
          "name": "company",
          "type": "string"
        },
        {
          "internalType": "string",
          "name": "location",
          "type": "string"
        },
        {
          "internalType": "string",
          "name": "jobType",
          "type": "string"
        },
        {
          "internalType": "bytes32",
          "name": "encryptedBudget",
          "type": "bytes32"
        },
        {
          "internalType": "bytes",
          "name": "inputProof",
          "type": "bytes"
        }
      ],
      "name": "createJobPosting",
      "outputs": [
        {
          "internalType": "uint256",
          "name": "jobId",
          "type": "uint256"
        }
      ],
      "stateMutability": "nonpayable",
      "type": "function"
    },
    {
      "inputs": [],
      "name": "getActiveJobs",
      "outputs": [
        {
          "internalType": "uint256[]",
          "name": "ids",
          "type": "uint256[]"
        },
        {
          "internalType": "address[]",
          "name": "employers",
          "type": "address[]"
        },
        {
          "internalType": "string[]",
          "name": "titles",
          "type": "string[]"
        },
        {
          "internalType": "string[]",
          "name": "companies",
          "type": "string[]"
        },
        {
          "internalType": "string[]",
          "name": "locations",
          "type": "string[]"
        },
        {
          "internalType": "string[]",
          "name": "jobTypes",
          "type": "string[]"
        },
        {
          "internalType": "uint256[]",
          "name": "createdAts",
          "type": "uint256[]"
        },
        {
          "internalType": "uint256[]",
          "name": "applicationCounts",
          "type": "uint256[]"
        }
      ],
      "stateMutability": "view",
      "type": "function"
    },
    {
      "inputs": [
        {
          "internalType": "uint256",
          "name": "jobId",
          "type": "uint256"
        }
      ],
      "name": "getApplicationsForJob",
      "outputs": [
        {
          "internalType": "uint256[]",
          "name": "appIds",
          "type": "uint256[]"
        },
        {
          "internalType": "address[]",
          "name": "candidates",
          "type": "address[]"
        },
        {
          "internalType": "string[]",
          "name": "names",
          "type": "string[]"
        },
        {
          "internalType": "bool[]",
          "name": "matchRevealeds",
          "type": "bool[]"
        },
        {
          "internalType": "bool[]",
          "name": "matchResults",
          "type": "bool[]"
        },
        {
          "internalType": "bool[]",
          "name": "resumeUnlockeds",
          "type": "bool[]"
        },
        {
          "internalType": "uint256[]",
          "name": "appliedAts",
          "type": "uint256[]"
        }
      ],
      "stateMutability": "view",
      "type": "function"
    },
    {
      "inputs": [
        {
          "internalType": "address",
          "name": "employer",
          "type": "address"
        }
      ],
      "name": "getJobsByEmployer",
      "outputs": [
        {
          "internalType": "uint256[]",
          "name": "jobIds",
          "type": "uint256[]"
        }
      ],
      "stateMutability": "view",
      "type": "function"
    },
    {
      "inputs": [],
      "name": "getMyApplications",
      "outputs": [
        {
          "internalType": "uint256[]",
          "name": "jobIds",
          "type": "uint256[]"
        },
        {
          "internalType": "uint256[]",
          "name": "appIds",
          "type": "uint256[]"
        },
        {
          "internalType": "string[]",
          "name": "titles",
          "type": "string[]"
        },
        {
          "internalType": "string[]",
          "name": "companies",
          "type": "string[]"
        },
        {
          "internalType": "bool[]",
          "name": "matchRevealeds",
          "type": "bool[]"
        },
        {
          "internalType": "bool[]",
          "name": "matchResults",
          "type": "bool[]"
        },
        {
          "internalType": "uint256[]",
          "name": "appliedAts",
          "type": "uint256[]"
        }
      ],
      "stateMutability": "view",
      "type": "function"
    },
    {
      "inputs": [
        {
          "internalType": "uint256",
          "name": "jobId",
          "type": "uint256"
        },
        {
          "internalType": "uint256",
          "name": "applicationId",
          "type": "uint256"
        }
      ],
      "name": "getResumeIfUnlocked",
      "outputs": [
        {
          "internalType": "string",
          "name": "ipfsCid",
          "type": "string"
        }
      ],
      "stateMutability": "view",
      "type": "function"
    },
    {
      "inputs": [
        {
          "internalType": "uint256",
          "name": "",
          "type": "uint256"
        },
        {
          "internalType": "uint256",
          "name": "",
          "type": "uint256"
        }
      ],
      "name": "jobApplicationIds",
      "outputs": [
        {
          "internalType": "uint256",
          "name": "",
          "type": "uint256"
        }
      ],
      "stateMutability": "view",
      "type": "function"
    },
    {
      "inputs": [],
      "name": "jobCount",
      "outputs": [
        {
          "internalType": "uint256",
          "name": "",
          "type": "uint256"
        }
      ],
      "stateMutability": "view",
      "type": "function"
    },
    {
      "inputs": [
        {
          "internalType": "uint256",
          "name": "",
          "type": "uint256"
        }
      ],
      "name": "jobPostings",
      "outputs": [
        {
          "internalType": "address",
          "name": "employer",
          "type": "address"
        },
        {
          "internalType": "string",
          "name": "title",
          "type": "string"
        },
        {
          "internalType": "string",
          "name": "company",
          "type": "string"
        },
        {
          "internalType": "string",
          "name": "location",
          "type": "string"
        },
        {
          "internalType": "string",
          "name": "jobType",
          "type": "string"
        },
        {
          "internalType": "euint64",
          "name": "max_budget",
          "type": "bytes32"
        },
        {
          "internalType": "bool",
          "name": "isActive",
          "type": "bool"
        },
        {
          "internalType": "bool",
          "name": "isResolved",
          "type": "bool"
        },
        {
          "internalType": "uint256",
          "name": "createdAt",
          "type": "uint256"
        },
        {
          "internalType": "uint256",
          "name": "applicationCount",
          "type": "uint256"
        }
      ],
      "stateMutability": "view",
      "type": "function"
    },
    {
      "inputs": [
        {
          "internalType": "uint256",
          "name": "jobId",
          "type": "uint256"
        },
        {
          "internalType": "uint256",
          "name": "applicationId",
          "type": "uint256"
        }
      ],
      "name": "resolveApplication",
      "outputs": [],
      "stateMutability": "nonpayable",
      "type": "function"
    },
    {
      "inputs": [
        {
          "internalType": "uint256",
          "name": "jobId",
          "type": "uint256"
        },
        {
          "internalType": "uint256",
          "name": "applicationId",
          "type": "uint256"
        }
      ],
      "name": "revealMatchResult",
      "outputs": [],
      "stateMutability": "nonpayable",
      "type": "function"
    },
    {
      "inputs": [
        {
          "internalType": "uint256",
          "name": "jobId",
          "type": "uint256"
        },
        {
          "internalType": "uint256",
          "name": "applicationId",
          "type": "uint256"
        }
      ],
      "name": "unlockResume",
      "outputs": [],
      "stateMutability": "nonpayable",
      "type": "function"
    }
  ],
  "bytecode": "0x608060405234801562000010575f80fd5b50620000c86200001f620000ce565b80517f9e7b61f58c47dc699ac88507c4f5bb9f121c03808c5676a8078fe583e464970080546001600160a01b03199081166001600160a01b039384161790915560208301517f9e7b61f58c47dc699ac88507c4f5bb9f121c03808c5676a8078fe583e46497018054831691841691909117905560408301517f9e7b61f58c47dc699ac88507c4f5bb9f121c03808c5676a8078fe583e46497028054909216921691909117905550565b62000280565b604080516060810182525f80825260208201819052918101919091524660010362000168575060408051606080820183525f8083526020808401829052928401528251908101835273ca2e8f1f656cd25c01f05d0b243ab1ecd4a8ffb6815273d82385dada1ae3e969447f20a3164f6213100e75918101919091527377627828a55156b04ac0dc0eb30467f1a552bb039181019190915290565b4662aa36a703620001e8575060408051606080820183525f8083526020808401829052928401528251908101835273f0ffdc93b7e186bc2f8cb3daa75d86d1930a433d81527392c920834ec8941d2c77d188936e1f7a6f49c1279181019190915273be0e383937d564d7ff0bc3b46c51f0bf8d5c311a9181019190915290565b46617a690362000267575060408051606080820183525f808352602080840182905292840152825190810183527350157cffd6bbfa2dece204a89ec419c23ef5755d815273e3a9105a3a932253a70f126eb1e3b589c643dd249181019190915273901f8942346f7ab3a01f6d7613119bca447bb0309181019190915290565b6040516373cac13b60e01b815260040160405180910390fd5b6133a9806200028e5f395ff3fe608060405234801561000f575f80fd5b5060043610610111575f3560e01c80635d74ed731161009e578063880125681161006e578063880125681461028d5780638927b030146102ad5780639950c2a3146102b5578063ca916b27146102c8578063ce71fbbe146102db575f80fd5b80635d74ed731461020e578063622359b9146102215780637a870b631461024a578063853aff9114610272575f80fd5b80633deac9f3116100e45780633deac9f3146101a75780634c5d8a0f146101ba5780634d5a3278146101c25780634d91e57d146101d5578063558ee6a8146101fb575f80fd5b8063129de6e5146101155780631e01abca1461013e57806337597cb5146101535780633c1ef6c41461016f575b5f80fd5b6101286101233660046129a8565b6102ee565b60405161013591906129fb565b60405180910390f35b61015161014c366004612a0d565b6103de565b005b61015b610483565b604051610135989796959493929190612af7565b61019961017d366004612ba5565b600560209081525f928352604080842090915290825290205481565b604051908152602001610135565b6101996101b5366004612c11565b610ab1565b6101995f5481565b6101996101d0366004612ba5565b610f1f565b6101e86101e3366004612a0d565b610f4a565b6040516101359796959493929190612ce6565b610151610209366004612d7c565b6113a8565b61015161021c366004612d7c565b6114fe565b61023461022f366004612a0d565b611658565b6040516101359a99989796959493929190612d9c565b61025d610258366004612d7c565b6118d0565b60405161013599989796959493929190612e2c565b61027a611a42565b6040516101359796959493929190612e9b565b6102a061029b366004612d7c565b611f49565b6040516101359190612ee7565b6101996120eb565b6101996102c3366004612ef9565b6120f9565b6101516102d6366004612d7c565b6123b6565b6101996102e9366004612d7c565b61250a565b60605f805b5f54811015610332575f818152600160205260409020546001600160a01b0380861691160361032a578161032681612fe9565b9250505b6001016102f3565b50806001600160401b0381111561034b5761034b61300d565b604051908082528060200260200182016040528015610374578160200160208202803683370190505b5091505f805b5f548110156103d6575f818152600160205260409020546001600160a01b038087169116036103ce578084836103af81612fe9565b9450815181106103c1576103c1613021565b6020026020010181815250505b60010161037a565b505050919050565b805f5481106104085760405162461bcd60e51b81526004016103ff90613035565b60405180910390fd5b5f8281526001602052604090205482906001600160a01b0316331461043f5760405162461bcd60e51b81526004016103ff9061306c565b5f83815260016020526040808220600601805460ff191690555184917f6edf0875f8a9ed26275e4e52f2355d96ea7fd96625d6992a9733be603136fa6e91a2505050565b6060806060806060806060805f805b5f548110156104ca575f8181526001602052604090206006015460ff16156104c257816104be81612fe9565b9250505b600101610492565b50806001600160401b038111156104e3576104e361300d565b60405190808252806020026020018201604052801561050c578160200160208202803683370190505b509850806001600160401b038111156105275761052761300d565b604051908082528060200260200182016040528015610550578160200160208202803683370190505b509750806001600160401b0381111561056b5761056b61300d565b60405190808252806020026020018201604052801561059e57816020015b60608152602001906001900390816105895790505b509650806001600160401b038111156105b9576105b961300d565b6040519080825280602002602001820160405280156105ec57816020015b60608152602001906001900390816105d75790505b509550806001600160401b038111156106075761060761300d565b60405190808252806020026020018201604052801561063a57816020015b60608152602001906001900390816106255790505b509450806001600160401b038111156106555761065561300d565b60405190808252806020026020018201604052801561068857816020015b60608152602001906001900390816106735790505b509350806001600160401b038111156106a3576106a361300d565b6040519080825280602002602001820160405280156106cc578160200160208202803683370190505b509250806001600160401b038111156106e7576106e761300d565b604051908082528060200260200182016040528015610710578160200160208202803683370190505b5091505f805b5f54811015610aa4575f8181526001602052604090206006015460ff1615610a9c575f8181526001602052604090208b5182908d908590811061075b5761075b613021565b602090810291909101015280548b516001600160a01b03909116908c908590811061078857610788613021565b60200260200101906001600160a01b031690816001600160a01b0316815250508060010180546107b7906130a3565b80601f01602080910402602001604051908101604052809291908181526020018280546107e3906130a3565b801561082e5780601f106108055761010080835404028352916020019161082e565b820191905f5260205f20905b81548152906001019060200180831161081157829003601f168201915b50505050508a848151811061084557610845613021565b602002602001018190525080600201805461085f906130a3565b80601f016020809104026020016040519081016040528092919081815260200182805461088b906130a3565b80156108d65780601f106108ad576101008083540402835291602001916108d6565b820191905f5260205f20905b8154815290600101906020018083116108b957829003601f168201915b50505050508984815181106108ed576108ed613021565b6020026020010181905250806003018054610907906130a3565b80601f0160208091040260200160405190810160405280929190818152602001828054610933906130a3565b801561097e5780601f106109555761010080835404028352916020019161097e565b820191905f5260205f20905b81548152906001019060200180831161096157829003601f168201915b505050505088848151811061099557610995613021565b60200260200101819052508060040180546109af906130a3565b80601f01602080910402602001604051908101604052809291908181526020018280546109db906130a3565b8015610a265780601f106109fd57610100808354040283529160200191610a26565b820191905f5260205f20905b815481529060010190602001808311610a0957829003601f168201915b5050505050878481518110610a3d57610a3d613021565b60200260200101819052508060070154868481518110610a5f57610a5f613021565b6020026020010181815250508060080154858481518110610a8257610a82613021565b602090810291909101015282610a9781612fe9565b935050505b600101610716565b5050509091929394959697565b5f885f548110610ad35760405162461bcd60e51b81526004016103ff90613035565b5f8a8152600160205260409020600601548a9060ff16610b355760405162461bcd60e51b815260206004820152601c60248201527f426c696e64486972653a204a6f62206973206e6f74206163746976650000000060448201526064016103ff565b335f9081526005602090815260408083208e8452909152902054158015610b9557505f8b81526003602052604090205415801590610b9357505f8b81526002602090815260408083208380529091529020546001600160a01b031633145b155b610be15760405162461bcd60e51b815260206004820152601a60248201527f426c696e64486972653a20416c7265616479206170706c69656400000000000060448201526064016103ff565b5f8b8152600160205260408120600801805491610bfd83612fe9565b9190505592505f610c468787878080601f0160208091040260200160405190810160405280939291908181526020018383808284375f9201919091525060059250612523915050565b9050610c5181612630565b505f610c5c5f612650565b9050610c6781612671565b50604051806101200160405280336001600160a01b031681526020018d8d8080601f0160208091040260200160405190810160405280939291908181526020018383808284375f92019190915250505090825250604080516020601f8e018190048102820181019092528c815291810191908d908d90819084018382808284375f81840152601f19601f8201169050808301925050505050505081526020018381526020018281526020015f151581526020015f151581526020015f151581526020014281525060025f8f81526020019081526020015f205f8781526020019081526020015f205f820151815f015f6101000a8154816001600160a01b0302191690836001600160a01b031602179055506020820151816001019081610d8d9190613127565b5060408201516002820190610da29082613127565b50606082015181600301556080820151816004015560a0820151816005015f6101000a81548160ff02191690831515021790555060c08201518160050160016101000a81548160ff02191690831515021790555060e08201518160050160026101000a81548160ff021916908315150217905550610100820151816006015590505060035f8e81526020019081526020015f2085908060018154018082558091505060019003905f5260205f20015f909190919091505560045f336001600160a01b03166001600160a01b031681526020019081526020015f208d908060018154018082558091505060019003905f5260205f20015f90919091909150558460055f336001600160a01b03166001600160a01b031681526020019081526020015f205f8f81526020019081526020015f2081905550336001600160a01b0316858e7ffdb73f695bc6f43d03128339b6d99121833f5cb8d65f8cb3ffc6abe2e08a0a5b60405160405180910390a45050505098975050505050505050565b6004602052815f5260405f208181548110610f38575f80fd5b905f5260205f20015f91509150505481565b6060806060806060806060875f548110610f765760405162461bcd60e51b81526004016103ff90613035565b5f8981526001602052604090205489906001600160a01b03163314610fad5760405162461bcd60e51b81526004016103ff9061306c565b5f8a815260016020526040902060080154806001600160401b03811115610fd657610fd661300d565b604051908082528060200260200182016040528015610fff578160200160208202803683370190505b509950806001600160401b0381111561101a5761101a61300d565b604051908082528060200260200182016040528015611043578160200160208202803683370190505b509850806001600160401b0381111561105e5761105e61300d565b60405190808252806020026020018201604052801561109157816020015b606081526020019060019003908161107c5790505b509750806001600160401b038111156110ac576110ac61300d565b6040519080825280602002602001820160405280156110d5578160200160208202803683370190505b509650806001600160401b038111156110f0576110f061300d565b604051908082528060200260200182016040528015611119578160200160208202803683370190505b509550806001600160401b038111156111345761113461300d565b60405190808252806020026020018201604052801561115d578160200160208202803683370190505b509450806001600160401b038111156111785761117861300d565b6040519080825280602002602001820160405280156111a1578160200160208202803683370190505b5093505f5b81811015611399575f8c815260026020908152604080832084845290915290208b5182908d90829081106111dc576111dc613021565b602090810291909101015280548b516001600160a01b03909116908c908490811061120957611209613021565b60200260200101906001600160a01b031690816001600160a01b031681525050806001018054611238906130a3565b80601f0160208091040260200160405190810160405280929190818152602001828054611264906130a3565b80156112af5780601f10611286576101008083540402835291602001916112af565b820191905f5260205f20905b81548152906001019060200180831161129257829003601f168201915b50505050508a83815181106112c6576112c6613021565b60209081029190910101526005810154895160ff909116908a90849081106112f0576112f0613021565b6020026020010190151590811515815250508060050160019054906101000a900460ff1688838151811061132657611326613021565b6020026020010190151590811515815250508060050160029054906101000a900460ff1687838151811061135c5761135c613021565b602002602001019015159081151581525050806006015486838151811061138557611385613021565b6020908102919091010152506001016111a6565b50505050919395979092949650565b815f5481106113c95760405162461bcd60e51b81526004016103ff90613035565b5f838152600160205260409020600801548390839081106113fc5760405162461bcd60e51b81526004016103ff906131e6565b5f8581526001602052604090205485906001600160a01b031633146114335760405162461bcd60e51b81526004016103ff9061306c565b5f8681526002602090815260408083208884529091529020600581015460ff16801561146857506005810154610100900460ff165b6114b45760405162461bcd60e51b815260206004820152601d60248201527f426c696e64486972653a204e6f20636f6e6669726d6564206d6174636800000060448201526064016103ff565b60058101805462ff00001916620100001790556040513390879089907fd9c67b23e0903b466cca5aa7664734499e4c82bbeb358ea2eb592f06d52c83fa905f90a450505050505050565b815f54811061151f5760405162461bcd60e51b81526004016103ff90613035565b5f838152600160205260409020600801548390839081106115525760405162461bcd60e51b81526004016103ff906131e6565b5f85815260026020908152604080832087845282528083208884526001909252909120600582015460ff16156115db5760405162461bcd60e51b815260206004820152602860248201527f426c696e64486972653a20416c7265616479207265736f6c76656420616e64206044820152671c995d99585b195960c21b60648201526084016103ff565b5f6115ee83600301548360050154612680565b60048401819055905061160081612671565b5081546116179082906001600160a01b03166126b5565b50611621816126d8565b50604051879089907faa8bbadb289a5d836c5a29b62b1e26336926974e58e77b4ab5840cd8ca90a126905f90a35050505050505050565b600160208190525f9182526040909120805491810180546001600160a01b0390931692611684906130a3565b80601f01602080910402602001604051908101604052809291908181526020018280546116b0906130a3565b80156116fb5780601f106116d2576101008083540402835291602001916116fb565b820191905f5260205f20905b8154815290600101906020018083116116de57829003601f168201915b505050505090806002018054611710906130a3565b80601f016020809104026020016040519081016040528092919081815260200182805461173c906130a3565b80156117875780601f1061175e57610100808354040283529160200191611787565b820191905f5260205f20905b81548152906001019060200180831161176a57829003601f168201915b50505050509080600301805461179c906130a3565b80601f01602080910402602001604051908101604052809291908181526020018280546117c8906130a3565b80156118135780601f106117ea57610100808354040283529160200191611813565b820191905f5260205f20905b8154815290600101906020018083116117f657829003601f168201915b505050505090806004018054611828906130a3565b80601f0160208091040260200160405190810160405280929190818152602001828054611854906130a3565b801561189f5780601f106118765761010080835404028352916020019161189f565b820191905f5260205f20905b81548152906001019060200180831161188257829003601f168201915b5050506005840154600685015460078601546008909601549495919460ff808316955061010090920490911692508a565b600260209081525f9283526040808420909152908252902080546001820180546001600160a01b039092169291611906906130a3565b80601f0160208091040260200160405190810160405280929190818152602001828054611932906130a3565b801561197d5780601f106119545761010080835404028352916020019161197d565b820191905f5260205f20905b81548152906001019060200180831161196057829003601f168201915b505050505090806002018054611992906130a3565b80601f01602080910402602001604051908101604052809291908181526020018280546119be906130a3565b8015611a095780601f106119e057610100808354040283529160200191611a09565b820191905f5260205f20905b8154815290600101906020018083116119ec57829003601f168201915b5050506003840154600485015460058601546006909601549495919490935060ff80831693506101008304811692620100009004169089565b60608060608060608060605f60045f336001600160a01b03166001600160a01b031681526020019081526020015f20805480602002602001604051908101604052809291908181526020018280548015611ab957602002820191905f5260205f20905b815481526020019060010190808311611aa5575b5050835193945083925050506001600160401b03811115611adc57611adc61300d565b604051908082528060200260200182016040528015611b05578160200160208202803683370190505b509850806001600160401b03811115611b2057611b2061300d565b604051908082528060200260200182016040528015611b49578160200160208202803683370190505b509750806001600160401b03811115611b6457611b6461300d565b604051908082528060200260200182016040528015611b9757816020015b6060815260200190600190039081611b825790505b509650806001600160401b03811115611bb257611bb261300d565b604051908082528060200260200182016040528015611be557816020015b6060815260200190600190039081611bd05790505b509550806001600160401b03811115611c0057611c0061300d565b604051908082528060200260200182016040528015611c29578160200160208202803683370190505b509450806001600160401b03811115611c4457611c4461300d565b604051908082528060200260200182016040528015611c6d578160200160208202803683370190505b509350806001600160401b03811115611c8857611c8861300d565b604051908082528060200260200182016040528015611cb1578160200160208202803683370190505b5092505f5b81811015611f3d575f838281518110611cd157611cd1613021565b602090810291909101810151335f908152600583526040808220838352845280822054600285528183208184528552818320848452600190955291208e5192945090929184908f9087908110611d2957611d29613021565b602002602001018181525050828d8681518110611d4857611d48613021565b602002602001018181525050806001018054611d63906130a3565b80601f0160208091040260200160405190810160405280929190818152602001828054611d8f906130a3565b8015611dda5780601f10611db157610100808354040283529160200191611dda565b820191905f5260205f20905b815481529060010190602001808311611dbd57829003601f168201915b50505050508c8681518110611df157611df1613021565b6020026020010181905250806002018054611e0b906130a3565b80601f0160208091040260200160405190810160405280929190818152602001828054611e37906130a3565b8015611e825780601f10611e5957610100808354040283529160200191611e82565b820191905f5260205f20905b815481529060010190602001808311611e6557829003601f168201915b50505050508b8681518110611e9957611e99613021565b602090810291909101015260058201548a5160ff909116908b9087908110611ec357611ec3613021565b6020026020010190151590811515815250508160050160019054906101000a900460ff16898681518110611ef957611ef9613021565b6020026020010190151590811515815250508160060154888681518110611f2257611f22613021565b6020908102919091010152505060019092019150611cb69050565b50505090919293949596565b6060825f548110611f6c5760405162461bcd60e51b81526004016103ff90613035565b5f84815260016020526040902060080154849084908110611f9f5760405162461bcd60e51b81526004016103ff906131e6565b5f8681526001602052604090205486906001600160a01b03163314611fd65760405162461bcd60e51b81526004016103ff9061306c565b5f8781526002602090815260408083208984529091529020600581015462010000900460ff166120535760405162461bcd60e51b815260206004820152602260248201527f426c696e64486972653a20526573756d65206e6f742079657420756e6c6f636b604482015261195960f21b60648201526084016103ff565b806002018054612062906130a3565b80601f016020809104026020016040519081016040528092919081815260200182805461208e906130a3565b80156120d95780601f106120b0576101008083540402835291602001916120d9565b820191905f5260205f20905b8154815290600101906020018083116120bc57829003601f168201915b50505050509550505050505092915050565b5f6120f46126f3565b905090565b5f8054818061210783612fe9565b9190505590505f6121508585858080601f0160208091040260200160405190810160405280939291908181526020018383808284375f9201919091525060059250612523915050565b905061215b81612630565b50604051806101400160405280336001600160a01b031681526020018e8e8080601f0160208091040260200160405190810160405280939291908181526020018383808284375f92019190915250505090825250604080516020601f8f018190048102820181019092528d815291810191908e908e90819084018382808284375f92019190915250505090825250604080516020601f8d018190048102820181019092528b815291810191908c908c90819084018382808284375f92019190915250505090825250604080516020601f8b0181900481028201810190925289815291810191908a908a90819084018382808284375f9201829052509385525050506020808301859052600160408085018290526060850184905242608086015260a090940183905286835280825292909120835181546001600160a01b0319166001600160a01b039091161781559083015190918201906122bc9082613127565b50604082015160028201906122d19082613127565b50606082015160038201906122e69082613127565b50608082015160048201906122fb9082613127565b5060a0820151816005015560c0820151816006015f6101000a81548160ff02191690831515021790555060e08201518160060160016101000a81548160ff02191690831515021790555061010082015181600701556101208201518160080155905050336001600160a01b0316827f752f79388b35d90d4202940ffb0c752f318a347800decc9e4c322e2cec1b404a8f8f8f8f60405161239e9493929190613253565b60405180910390a3509b9a5050505050505050505050565b815f5481106123d75760405162461bcd60e51b81526004016103ff90613035565b5f8381526001602052604090206008015483908390811061240a5760405162461bcd60e51b81526004016103ff906131e6565b5f8581526001602052604090205485906001600160a01b031633146124415760405162461bcd60e51b81526004016103ff9061306c565b5f8681526002602090815260408083208884529091529020600581015460ff16156124b85760405162461bcd60e51b815260206004820152602160248201527f426c696e64486972653a204d6174636820616c72656164792072657665616c656044820152601960fa1b60648201526084016103ff565b60058101805461ffff191661010117905560405160018152869088907ffa71382ddfc4ee59159e8334f34a8aa254c10d048d8954a3b4f87a76982f72f09060200160405180910390a350505050505050565b6003602052815f5260405f208181548110610f38575f80fd5b7f9e7b61f58c47dc699ac88507c4f5bb9f121c03808c5676a8078fe583e46497015460405163045fc19560e11b81525f915f80516020613354833981519152916001600160a01b03909116906308bf832a906125899088903390899089906004016132a4565b6020604051808303815f875af11580156125a5573d5f803e3d5ffd5b505050506040513d601f19601f820116820180604052508101906125c991906132e5565b8154604051630f8e573b60e21b8152600481018390523360248201529193506001600160a01b031690633e395cec906044015f604051808303815f87803b158015612612575f80fd5b505af1158015612624573d5f803e3d5ffd5b50505050509392505050565b5f816126425761263f5f612727565b91505b61264c823061273c565b5090565b5f61266b8261265f575f612662565b60015b60ff165f6127b0565b92915050565b5f816126425761263f5f612650565b5f826126925761268f5f612727565b92505b816126a3576126a05f612727565b91505b6126ae83835f61285a565b9392505050565b5f826126c7576126c45f612650565b92505b6126d1838361273c565b5090919050565b5f816126ea576126e75f612650565b91505b61264c8261290f565b5f466001036127025750600190565b4662aa36a703612713575061271190565b46617a690361272257505f1990565b505f90565b5f61266b826001600160401b031660056127b0565b5f805160206133548339815191528054604051635ca4b5b160e11b8152600481018590526001600160a01b0384811660248301529091169063b9496b62906044015b5f604051808303815f87803b158015612795575f80fd5b505af11580156127a7573d5f803e3d5ffd5b50505050505050565b7f9e7b61f58c47dc699ac88507c4f5bb9f121c03808c5676a8078fe583e464970154604051639cd07acb60e01b81525f915f80516020613354833981519152916001600160a01b0390911690639cd07acb9061281290879087906004016132fc565b6020604051808303815f875af115801561282e573d5f803e3d5ffd5b505050506040513d601f19601f8201168201806040525081019061285291906132e5565b949350505050565b5f80821561286d5750600160f81b612870565b505f5b5f5f805160206133548339815191526001810154604051631d44e90160e21b815260048101899052602481018890526001600160f81b0319851660448201529192506001600160a01b031690637513a404906064016020604051808303815f875af11580156128e1573d5f803e3d5ffd5b505050506040513d601f19601f8201168201806040525081019061290591906132e5565b9695505050505050565b6040805160018082528183019092525f80516020613354833981519152915f91906020808301908036833701905050905082815f8151811061295357612953613021565b60209081029190910101528154604051637d6e912360e11b81526001600160a01b039091169063fadd22469061277e908490600401613310565b80356001600160a01b03811681146129a3575f80fd5b919050565b5f602082840312156129b8575f80fd5b6126ae8261298d565b5f815180845260208085019450602084015f5b838110156129f0578151875295820195908201906001016129d4565b509495945050505050565b602081525f6126ae60208301846129c1565b5f60208284031215612a1d575f80fd5b5035919050565b5f815180845260208085019450602084015f5b838110156129f05781516001600160a01b031687529582019590820190600101612a37565b5f81518084525f5b81811015612a8057602081850181015186830182015201612a64565b505f602082860101526020601f19601f83011685010191505092915050565b5f8282518085526020808601955060208260051b840101602086015f5b84811015612aea57601f19868403018952612ad8838351612a5c565b98840198925090830190600101612abc565b5090979650505050505050565b5f610100808352612b0a8184018c6129c1565b90508281036020840152612b1e818b612a24565b90508281036040840152612b32818a612a9f565b90508281036060840152612b468189612a9f565b90508281036080840152612b5a8188612a9f565b905082810360a0840152612b6e8187612a9f565b905082810360c0840152612b8281866129c1565b905082810360e0840152612b9681856129c1565b9b9a5050505050505050505050565b5f8060408385031215612bb6575f80fd5b612bbf8361298d565b946020939093013593505050565b5f8083601f840112612bdd575f80fd5b5081356001600160401b03811115612bf3575f80fd5b602083019150836020828501011115612c0a575f80fd5b9250929050565b5f805f805f805f8060a0898b031215612c28575f80fd5b8835975060208901356001600160401b0380821115612c45575f80fd5b612c518c838d01612bcd565b909950975060408b0135915080821115612c69575f80fd5b612c758c838d01612bcd565b909750955060608b0135945060808b0135915080821115612c94575f80fd5b50612ca18b828c01612bcd565b999c989b5096995094979396929594505050565b5f815180845260208085019450602084015f5b838110156129f0578151151587529582019590820190600101612cc8565b60e081525f612cf860e083018a6129c1565b8281036020840152612d0a818a612a24565b90508281036040840152612d1e8189612a9f565b90508281036060840152612d328188612cb5565b90508281036080840152612d468187612cb5565b905082810360a0840152612d5a8186612cb5565b905082810360c0840152612d6e81856129c1565b9a9950505050505050505050565b5f8060408385031215612d8d575f80fd5b50508035926020909101359150565b6001600160a01b038b168152610140602082018190525f90612dc08382018d612a5c565b90508281036040840152612dd4818c612a5c565b90508281036060840152612de8818b612a5c565b90508281036080840152612dfc818a612a5c565b60a0840198909852505093151560c085015291151560e08401526101008301526101209091015295945050505050565b6001600160a01b038a168152610120602082018190525f90612e508382018c612a5c565b90508281036040840152612e64818b612a5c565b60608401999099525050608081019590955292151560a085015290151560c0840152151560e0830152610100909101529392505050565b60e081525f612ead60e083018a6129c1565b8281036020840152612ebf818a6129c1565b90508281036040840152612ed38189612a9f565b90508281036060840152612d328188612a9f565b602081525f6126ae6020830184612a5c565b5f805f805f805f805f805f60c08c8e031215612f13575f80fd5b6001600160401b03808d351115612f28575f80fd5b612f358e8e358f01612bcd565b909c509a5060208d0135811015612f4a575f80fd5b612f5a8e60208f01358f01612bcd565b909a50985060408d0135811015612f6f575f80fd5b612f7f8e60408f01358f01612bcd565b909850965060608d0135811015612f94575f80fd5b612fa48e60608f01358f01612bcd565b909650945060808d0135935060a08d0135811015612fc0575f80fd5b50612fd18d60a08e01358e01612bcd565b81935080925050509295989b509295989b9093969950565b5f6001820161300657634e487b7160e01b5f52601160045260245ffd5b5060010190565b634e487b7160e01b5f52604160045260245ffd5b634e487b7160e01b5f52603260045260245ffd5b6020808252601d908201527f426c696e64486972653a204a6f6220646f6573206e6f74206578697374000000604082015260600190565b6020808252601b908201527f426c696e64486972653a204e6f742074686520656d706c6f7965720000000000604082015260600190565b600181811c908216806130b757607f821691505b6020821081036130d557634e487b7160e01b5f52602260045260245ffd5b50919050565b601f82111561312257805f5260205f20601f840160051c810160208510156131005750805b601f840160051c820191505b8181101561311f575f815560010161310c565b50505b505050565b81516001600160401b038111156131405761314061300d565b6131548161314e84546130a3565b846130db565b602080601f831160018114613187575f84156131705750858301515b5f19600386901b1c1916600185901b1785556131de565b5f85815260208120601f198616915b828110156131b557888601518255948401946001909101908401613196565b50858210156131d257878501515f19600388901b60f8161c191681555b505060018460011b0185555b505050505050565b60208082526025908201527f426c696e64486972653a204170706c69636174696f6e20646f6573206e6f7420604082015264195e1a5cdd60da1b606082015260800190565b81835281816020850137505f828201602090810191909152601f909101601f19169091010190565b604081525f61326660408301868861322b565b828103602084015261327981858761322b565b979650505050505050565b605481106132a057634e487b7160e01b5f52602160045260245ffd5b9052565b8481526001600160a01b03841660208201526080604082018190525f906132cd90830185612a5c565b90506132dc6060830184613284565b95945050505050565b5f602082840312156132f5575f80fd5b5051919050565b828152604081016126ae6020830184613284565b602080825282518282018190525f9190848201906040850190845b818110156133475783518352928401929184019160010161332b565b5090969550505050505056fe9e7b61f58c47dc699ac88507c4f5bb9f121c03808c5676a8078fe583e4649700a264697066735822122047823524eab9c15a708b8c7aa6c96b21589ab8a1067cdaf3dd8233ed4a1ab68f64736f6c63430008180033",
  "linkReferences": {},
  "deployedLinkReferences": {}
}